:020000040800F2
:200000000025002045010008D1070008A10500084D07000855020008CD0D00080000000022
:20002000000000000000000000000000390800087102000800000000290800083B08000878
:200040005F0100085F0100085F0100085F0100085F0100085F0100085F0100085F01000860
:200060005F0100085F0100085F0100085F0100085F0100085F0100085F0100085F01000840
:200080005F0100085F0100085F0100085F0100085F0100085F0100085F0100085F01000820
:2000A0005F0100085F0100085F0100085F0100085F0100085F0100085F0100085F01000800
:2000C0005F0100085F0100085F0100085F0100085F010008F10B0008410C0008910C00081A
:2000E0005F0100085F0100085F0100085F0100085F0100085F0100085F0100085F010008C0
:200100005F0100085F0100085F0100085F010008510B0008A10B00085F0100085F01000857
:200120005F0100085F0100085F0100085F010008DFF80CD000F03CF800480047FD140008A0
:20014000002500200648804706480047FEE7FEE7FEE7FEE7FEE7FEE7FEE7FEE7FEE7FEE7BE
:20016000490800083101000840EA01039B0703D009E008C9121F08C0042AFAD203E011F8B0
:20018000013B00F8013B521EF9D27047D2B201E000F8012B491EFBD270470022F6E710B5C5
:2001A00013460A4604461946FFF7F0FF204610BD064C074D06E0E06840F0010394E807004A
:2001C00098471034AC42F6D3FFF7B6FFCC1C0008EC1C000870B58C1810F8015B15F007035E
:2001E00001D110F8013B2A1106D110F8012B03E010F8016B01F8016B5B1EF9D12B0705D499
:200200000023521E0DD401F8013BFAE710F8013BCB1A921C03E013F8015B01F8015B521E6E
:20022000F9D5A142D8D3002070BD000001490120087170473C0000207047000001490120FC
:20024000487070474800002001490120087070474E000020FEE70000014901204870704700
:200260005000002001490120C8707047600100207047000003484EF66021D0F8B001484368
:20028000704700007C0300200148D0F8D40170477C03002003484FF47A71D0F8D00148432F
:2002A000704700007C0300200448D0F8AC0118B14EF6602148437047014870477C030020B8
:2002C000E09304000B4810B50178002910D00021017000F09FFA014668220748FFF744FF99
:2002E000BDE81040044A4FF41671002000F006B810BD0000AF0100207C0300202DE9F041A0
:20030000002416460D4680464F090CE008EB441081B206EB44132022A02000F048F90520E6
:2003200000F0F2F8641CBC42F0D3E8060BD008EB441006EB441305F01F02BDE8F04181B22B
:20034000A02000F034B9BDE8F0812DE9F041074600F0ECFF40F20534204600F081FF651EB7
:20036000284600F07DFFE61E304600F079FF384600F098FF204600F073FF284600F070FF27
:20038000304600F06DFFBDE8F04100F077BF00002DE9F04715460F46064600F0C7FF00246C
:2003A00040F205384FF4417940F2023A19E000BF55F8241006EB840000F0D4FF55F8240081
:2003C00056F82410884202D00020BDE8F087404600F046FF484600F043FF504600F040FF83
:2003E000641CBC42E4D300F049FF0120EDE7000010B5002305E000BF50F8234042F82340C7
:200400005B1C8B42F8D310BD0148807970470000B001002001490120C8717047B00100200A
:200420002DE9F04140F2026001F07EF940F2036001F07AF940F2046001F076F940F20560F3
:2004400001F072F92E4E4FF4005301221421304600F0FEFF4FF4804301221421304600F0AF
:20046000F7FF4FF40044234601221421304600F0EFFF244F01231A461021384600F0E8FF6D
:20048000022301221021384600F0E2FF102301221946304600F0DCFF802301221021304631
:2004A00000F0D6FFE5112B4601221021304600F0CFFF234601221021384600F0C9FF2B4624
:2004C00001221021384600F0C3FF01228021304600F0B8FF01222946304600F0B3FF0122EA
:2004E0000221384600F0AEFF01221021304600F0A9FF21463846BDE8F041012200F0A2BF2D
:20050000001001400008014004490A68431C00D0401C0B689B1A8342FBD37047AC020020B7
:200520002DE9F0411C480168491C01601B4E002505EB450706EB870461684868C0B10A782F
:20054000D20723D06288012A16D1401E486061680ED1087820F0F80008300870616882079B
:2005600002D420F001000870A16809B16068884760680078C00709D0608838B936F82700B4
:20058000082803D1A16809B1606888476D1CEDB2152DCDD3BDE8F081AC020020BC19000832
:2005A000FEE70020401CC0B23228FBD3704770B51D4614460E4600F069F8A8B1300A00F07F
:2005C00017F888B1F0B200F013F868B106E015F8010B00F00DF838B1641EA4B2002CF6D175
:2005E00000F08AF8012070BD00F086F8002070BD2DE9F041244E074680244FF47A753C4226
:2006000001D0012200E000228021304600F01AFFFFF7C7FFFFF7C5FF01224021304600F064
:2006200011FFFFF7BEFF00224021304600F00AFFFFF7B7FF6408E2D1012280213446304686
:2006400000F000FFFFF7ADFF01224021204600F0F9FEFFF7A6FF8021204600F044FF18B19A
:200660006D1E2D042D0CF6D1FFF79BFF00224021204600F0E7FEFFF794FF15B10120BDE85B
:20068000F0810020FBE70000000C014070B5194D06464FF47A7401228021284600F0D2FEA0
:2006A000FFF77FFF01224021284600F0CBFEFFF778FF4021284600F016FF18B9641E24045F
:2006C000240CF6D1FFF76DFF94B100228021284600F0B8FEFFF765FF00224021284600F06A
:2006E000B1FEFFF75EFF3046BDE87040FFF780BF002070BD000C014010B50C4C002280217E
:20070000204600F09FFEFFF74CFF01224021204600F098FEFFF745FF01228021204600F0E1
:2007200091FEBDE81040FFF73CBF0000000C01400248C079002800D001207047BC010020C7
:200740000149887170470000BC010020FEE700000249CA7860F34102CA707047CA010020DE
:200760000248C078C0F3400070470000CA0100200149012008707047C8010020054AD17847
:2007800060F3000121F0FC00D0700120911E087070470000CA010020094906230122C878F0
:2007A000B3EB900F04D902EB900363F3870001E020F0FC00C8700248801E0270704700008C
:2007C000CA0100200149887070470000B001002070470907090E002806DA00F00F0000F18E
:2007E000E02080F8141D704700F1E02080F8001470470000BFF34F8F04480168044A01F4DD
:20080000E06111430160BFF34F8FFEE70CED00E00400FA05004870475406002001490120AD
:2008200048707047D001002070470000014902200870704750020020704710B500F0C6FC66
:20084000BDE81040FFF76CBE214808B5016841F00101016001688907FCD5416841F080013B
:20086000416000210091009A521C0092502AFAD3426842F0900242600091491C0091502934
:20088000FBD3416821F003014160026811490A4002604268104B1A40426002680A400260A4
:2008A000026822F48022026042680C4B1A40426002680A4002604FF41F01816000F05EFF10
:2008C000BDE8084000214FF0006000F0B7BE000000100240FFFFF6FE0C00FFE8FFFF00F7DA
:2008E00010B50178002221F0010101700121074800F0A8FD0120FFF741FF05484FF4FA62CB
:200900000178426041F00301017010BD000C0140E80200207047000010B50020FFF710FF51
:2009200001490020087010BD4C02002010B50446FFF7B0FC6060FFF767FD002808D0FFF7D9
:20094000A3FC002804D0BDE810400520FFF73ABF10BD4FF4FA614160FFF71EBF10B54FF40C
:20096000C8714160FFF7FCFE30B10020FFF7F0FEBDE81040FFF7FCBE0120F7E74FF47A71F6
:200980004160FFF761BC64214160FFF765BC10B50446FFF789FC6060FFF748FFFFF73AFDB2
:2009A000BDE810404FF4FA60AFF3008004494860087820F0F80040F00100087070470000A6
:2009C000F802002070B54D4C207840F003002070FFF76AFC60602078002220F0F800207076
:2009E00004F1400064250178426021F0FB01017030384FF47A720178456021F0F80141F0B0
:200A000003010170083004F1180100784D6020F0F80040F00300087001F108000831007898
:200A20004D6020F0F80040F00300087001F1080058340178426021F0F80141F00301017005
:200A4000207820F0020040F001002070FFF712FC60602078002220F0F8002070A4F1280058
:200A600038340178426021F0FB01017008300178426021F0FB01017018300178426021F02C
:200A8000FB010170103047F230520178456021F0F80141F00301017008300178426021F0BC
:200AA000FB010170083042F210720178426021F0FB01017008300178426021F0FB01017071
:200AC00008300F4A0178426021F0FB010170083043F698220178426021F0FA0141F0010167
:200AE0000170207840F003002070FFF7D3FB6060207820F0F800207070BD0000B002002077
:200B0000A0BB0D0010B504460078C0070AD0FFF70FFE002806D060684FF6FF71884201D22A
:200B2000401C606010BD4FF47A714160FFF776BE10B504464FF47A706060FFF793FBFFF75D
:200B400075FB4FF496706060BDE81040FFF776BB70B5104D0E49284600F0F5FE88B10E4C43
:200B6000206870B1284600F093FEE18822680A44491CE1801070E088A188884201D3002007
:200B8000E0802846BDE87040044900F0DCBE000005030500004C0040280000200703070069
:200BA00070B5104D0E49284600F0CDFE88B10E4C206870B1284600F06BFEE18822680A44EF
:200BC000491CE1801070E088A188884201D30020E0802846BDE87040044900F0B4BE0000AE
:200BE0000503050000500040300000200703070070B5104D0E49284600F0A5FE88B10E4C8A
:200C0000206870B1284600F043FEE18822680A44491CE1801070E088A188884201D30020B6
:200C2000E0802846BDE87040044900F08CBE00000503050000380140100000200703070043
:200C400070B5104D0E49284600F07DFE88B10E4C206870B1284600F01BFEE18822680A44EE
:200C6000491CE1801070E088A188884201D30020E0802846BDE87040044900F064BE00005D
:200C80000503050000440040180000200703070070B5104D0E49284600F055FE88B10E4C5D
:200CA000206870B1284600F0F3FDE18822680A44491CE1801070E088A188884201D3002067
:200CC000E0802846BDE87040044900F03CBE000005030500004800402000002007030700D4
:200CE00010B500221146352000F05AFC40F2046000F01AFD40F2056000F016FD40F214702E
:200D000000F012FD4FF4805303221821074800F09FFB042303221946054800F099FBBDE866
:200D200010404FF41641034800F020B80010014000140140005000402DE9F0410E46074698
:200D40000024094D0BE0395D284600F0A5FD0721284600F0D6FD0028F9D0641CA4B2B44282
:200D6000F1D3BDE8F08100000050004070B50C46054600F095FD2146284600F05DFD002185
:200D8000284600F013FE0021284600F001FE0021284600F0EFFD0021284600F0C3FD00219B
:200DA000284600F0B9FD0421284600F0EBFD0821284600F0F5FD284600F09EFD2846BDE82F
:200DC0007040014900F0B4BD05030500FEE7000070B50C4800254FF40074057021460A4843
:200DE000FFF7DBF90948C58084800749016040210748FFF7D2F9BDE870404022054904481C
:200E0000FFF7B2B958030020BC06002030000020BC0A0020000002082DE9F04FA64800266B
:200E200085B000683746A54CE061E069A449DFF894824FF4007A354688423AD1E07850B9D5
:200E400008EBC620FFF781FA761CF6B23C2EF7D30120E07065619D4B60699B4A56465146DA
:200E60001844FFF7C5FA6369974A314603EB0800FFF78EFA0120FFF747FB6069944900F5D5
:200E800000606061496A814213D84FF01A3020619048FFF75AFA0120FFF736FB874A8648BD
:200EA00010320421001FFFF773FA0120FFF72CFB00E1DFF82492B9F8060020700026DFF859
:200EC0001CB251E01BF806205A2A4BD10BEB060002904078012845D102984079FA28A1EBB4
:200EE000060021D00A283DD302980421001D00F0FFFA0299764A0B6813644B6853640989B3
:200F0000A2F8481081422DD1564651467348FFF744F90127257002206070A9F80650A9F8B6
:200F20000460C9F800B022E094281BD302980421001D00F0DDFA019002988021103000F091
:200F4000D7FA04906248942240300299FFF70CF95F49019840310A89824203D1B1F892109E
:200F60000498CFE7761CF6B221788E42AAD36078032867D2DFE800F066660200002F61D0DE
:200F80004E48534E18304036017821F0010101703079002856D0012854D0022852D17079E5
:200FA00048F20117F72815D006DC05284AD2DFE800F0494949490B00F838052842D2DFE892
:200FC00000F01014274456000520FFF79DFA4FF4004203E00520FFF797FA3A460121F720BD
:200FE0005AE001213A46F82056E000254FEA080606EBC520FFF7A9F96D1CEDB23C2DF7D392
:2010000005206660FFF780FA01221146F92043E070892F4A810850326068FFF7B9F948B1D9
:2010200001221146FA2000F05DF8708961680844606004E000220121FA2000F053F8F06834
:20104000C4E9020505B0BDE8F08FE368244A202103EB0800FFF7CCF92149802010390122E2
:201060004881E06811468030E060FB2014E0124D4FF01A30114A2D1F206110320421284624
:20108000FFF786F90A20FFF73FFA28682169884207D000220121FC2005B0BDE8F04F00F0DE
:2010A00021B801221146FC2000F01CF80A20FFF72BFA71B6FFF79EFBC4FC0308580300207C
:2010C0004523010000200008FC0C002040000208BC0A002000F8030830000020BC060020F2
:2010E000CC08002070B505462048224C032985701F4822D0016821604168616000892081BE
:201100006571E2800421201D00F0F2F920810520FFF7FAF9FB2D20D00A211648FFF70CFE0A
:201120004FF4007421461448FFF737F813480021C18084801049016070BD50F80A1F216076
:2011400041686160008920810820E07265710221201D00F0CDF9E080D9E706488021103046
:2011600000F0C6F9A4F892009421D6E758030020B81A0008BC080020BC06002030000020B5
:2011800002E008C8121F08C1002AFAD170477047002001E001C1121F002AFBD1704700009F
:2011A00070B54FF6FF75074E08E0040A05EA002311F8010B604036F810005840521E92B2B5
:2011C000F3D270BDCC1A00087047000003480168002902D00168491E016070473800002089
:2011E00000B5034600F008F85B1E012802D1002BF8D1042000BD000008490020CA68D2073B
:2012000001D001207047CA68D20601D503207047C9684907FBD502207047000000200240DF
:2012200000B5034600F008F85B1E012802D1002BF8D1042000BD000008490020CA6CD207F6
:2012400001D001207047CA6CD20601D503207047C96C4907FBD50220704700000020024097
:20126000054901EB90110A6800F01F030120984002430A6070470000002002400748016995
:2012800041F08001016106490988B1F5007F03D9016D41F0800101657047000000200240BA
:2012A000E0F7FF1F70B505461D481E4C4FF470260088B0F5007F02D91B48854215D2304613
:2012C000FFF78EFF00280FD1206940F0020020616561206940F0400020613046FFF780FF1C
:2012E000216921F00201216170BD3046FFF798FF0028F9D1206D40F0020020656565E06955
:20130000800700D56561206D40F0400020653046FFF786FF216D21F00201216570BD0000E3
:20132000E0F7FF1F00200240FFFF070809480169094A0B06094901D542604160084B1B88C9
:20134000B3F5007F04D9036D1B0601D542644164704700000020024023016745AB89EFCDFE
:20136000E0F7FF1FF0B505461748184C0E4600884FF47027B0F5007F02D91548854211D209
:201380003846FFF72DFF00280BD1206940F0010020612E603846FFF723FF216921F00101AD
:2013A0002161F0BD3846FFF73BFF0028F9D1206D40F0010020652E603846FFF731FF216D5B
:2013C00021F001012165F0BDE0F7FF1F00200240FFFF070830B5124A104B45F255551C4684
:2013E0001560D568641E05F0010502D0002DF8D100E04DB95160D1685B1E01F0020102D0E7
:201400000029F8D102E009B1002030BDC0F30B0090604AF6AA201060012030BDFFFF0F00EE
:201420000030004002494AF6AA200860704700000030004002494CF6CC40086070470000A0
:20144000003000400AB1016170474161704700002DE9F04301F00F04CD0600D5144300257E
:201460004FF00F095FF0010202FA05F61E4014D007684FEA850C09FA0CF827EA080704FA2C
:201480000CF848EA0708282902D0482902D002E0466100E00661C0F800806D1CADB2082D7C
:2014A000E2D3082502FA05F61E4016D047684FEA8508A8F1200809FA08FC27EA0C0704FAB0
:2014C00008FC4CEA070C282902D0482902D002E0466100E00661C0F804C06D1CADB2102DE8
:2014E000E0D3BDE8F0838068084000D0012070470A4601460020FFF753BE00001D480168BD
:201500001D48C160C168B1F11A3F0ED11B490A681B4B1A40B2F1005F07D14A688260826854
:201520004260086880F308889047FEF779FFFFF7D7FB062140F6B830FFF74CFFFFF77AFF95
:20154000FFF740FA00F058F9FEF776FE00220DA110A0FFF739FE002201211048FFF772FF01
:20156000FFF736FCFFF75EFFFFF756FCFEF7AAFEF8E70000C0FC030800000020002000081D
:201580000000FE2F73797374656D207265736574000000006D61696E000000000008014048
:2015A00070B505461F4800240E460068234600F4E0614FF4A06081420FD006DCB1F5407FAA
:2015C00016D0B1F5806F06D10FE0B1F5C06F09D0B1F5E06F04D000F027F80224234608E0CD
:2015E000042306E00124032303E00324012300E00424C4F104008640C3F104010F20C840EE
:201600001040304305F1E021000181F8000405F01F01012088406909890001F1E021C1F8ED
:20162000000170BD0CED00E00249084302490860704700000000FA050CED00E0034A11402D
:20164000014303480160BFF34F8F704780FFFF1F08ED00E070B52EA588B02ECD8DE82E0013
:201660002CA22F4BD2E90012CDE9041229A20446D2E90012CDE9061259680020C1F38102C1
:201680002849FAB1012A1DD0022A1BD15A6802F480354A10B5F5803F05D15D6805F4003505
:2016A000B5F5003F00D111465A685D68C2F383422D0101D542F010020F2A01D2921C00E036
:2016C000521C51435A68C2F303121DF8025021FA05F25D6804AEC5F302255B68755D22FAFC
:2016E00005F5C3F3C22306AEF35C22FA03F344B1012C08D0022C08D0032C00D1184608B02A
:2017000070BD0846FBE71046F9E72846F7E7000000000000000000000102030406070809C2
:201720000010024000127A00054901EB90110A6800F01F030120984002430A60704700000D
:2017400000100240054901EB90110A6800F01F030120984082430A607047000000100240A7
:20176000054901EB90110A6800F01F030120984002430A6070470000001002401B480021D5
:20178000026842F0010202604FF4A0630268491C12F0020F01D19942F8D10168890700D4DD
:2017A000FEE74168416041684160416841F48061416041680E4A1140416041680D4A114309
:2017C0004160016841F08071016001688901FCD5416821F003014160416841F002014160DB
:2017E0004168C1F381010229FAD1704700100240FFFFC3F70000040870B50E484FF47A719E
:201800000068B0FBF1F0401EB0F1807F11D24FF0E024606165170F212846FEF7DAFF0020E7
:20182000A061072020612846BDE870400021FEF7D0BFFEE77803002070B5134B04460D46F7
:201840000020E11A1A159C421BD005DC0F49611817D0914208D114E0914212D0B1F56C4F26
:2018600002D10320FFF7F6FE00EB5500B0FBF5F14FF6F07201EA020001F00F010843A060D7
:2018800070BD0220EEE70000004C004000BCFFBF4068C0F308007047C1F3080141607047EF
:2018A000134B10B5C21A1915984213D007DC114A80180CD088421AD140F212440FE08A4294
:2018C0000BD0B2F56C4F12D140F20E3407E040F2114404E040F2134401E040F214442046C8
:2018E000FFF73EFF2046BDE81040FFF72BBF10BD004C004000BCFFBFC16841F40051C160D7
:20190000704700EB9110006801F01F0201219140084000D001207047426922F400720A43A7
:2019200042617047426922F480720A434261704710B5C1F38912835801F01F040121A140ED
:201940000B43835010BD10B5C1F38912835800EB915001F01F04012202FA04F400682340E8
:20196000C1F304418A40104202D00BB1012010BD002010BDC26822F4C062C260C2680A43EE
:20198000C2607047C26822F004020A43C2607047026922F44052026102690A4302617047BE
:2019A000C26822F008020A43C2607047C26822F48052C260C2680A43C26070470000010036
:2019C000B00200208F09000801000100C00200208709000802000100C8020020310B0008E8
:2019E00003000100D0020020270B000804000100D80200207D09000805000100F002002012
:201A00000000000006000100B80200200000000007000100F80200200000000008000000BB
:201A200048030020050B00080900010008030020000000000A000100E0020020E1080008F0
:201A40000B000100E8020020530900080C00010000030020190900080D0001001003002071
:201A60005D0900080E00010018030020150900080F00010020030020000000001000010024
:201A8000280300200000000011000100500300200000000012000100300300200000000010
:201AA00013000100380300200000000014000100400300202D0900085A00040001010000A1
:201AC00000005A00020003010000000000002110422063308440A550C660E7700881299107
:201AE0004AA16BB18CC1ADD1CEE1EFF13112100273325222B5529442F772D6623993188332
:201B00007BB35AA3BDD39CC3FFF3DEE36224433420040114E664C774A44485546AA54BB56D
:201B200028850995EEE5CFF5ACC58DD55336722611163006D776F6669556B4465BB77AA7B1
:201B400019973887DFF7FEE79DD7BCC7C448E5588668A7784008611802282338CCC9EDD96D
:201B60008EE9AFF9488969990AA92BB9F55AD44AB77A966A711A500A333A122AFDDBDCCB31
:201B8000BFFB9EEB799B588B3BBB1AABA66C877CE44CC55C222C033C600C411CAEED8FFD6D
:201BA000ECCDCDDD2AAD0BBD688D499D977EB66ED55EF44E133E322E511E700E9FFFBEEFB1
:201BC000DDDFFCCF1BBF3AAF599F788F8891A981CAB1EBA10CD12DC14EF16FE18010A100E7
:201BE000C230E3200450254046706760B9839893FBA3DAB33DC31CD37FE35EF3B102901231
:201C0000F322D2323542145277625672EAB5CBA5A89589856EF54FE52CD50DC5E234C3246C
:201C2000A01481046674476424540544DBA7FAB79987B8975FE77EF71DC73CD7D326F236B0
:201C40009106B01657667676154634564CD96DC90EF92FE9C899E9898AB9ABA9445865486C
:201C600006782768C018E1088238A3287DCB5CDB3FEB1EFBF98BD89BBBAB9ABB754A545A30
:201C8000376A167AF10AD01AB32A923A2EFD0FED6CDD4DCDAABD8BADE89DC98D267C076C6C
:201CA000645C454CA23C832CE01CC10C1FEF3EFF5DCF7CDF9BAFBABFD98FF89F176E367EB0
:201CC000554E745E932EB23ED10EF01EEC1C0008000000207C030000D4010008941E0008AB
:201CE0007C0300208421000090110008014243E02E723E02100100FF005EBCE2613FDD83A5
:201D0000C29C7E20A3FD1F419DC3217FFCA2401E5F01E3BD3E6082DC237D9FC1421CFEA0D3
:201D2000E1BF5D0380DE3C62BEE0025CDF81633D7C22C09E1D43A1FF4618FAA427799BC5B3
:201D400084DA3866E5BB5907DB856739BAE406581947A5FB7826C49A653BD987045AB8E693
:201D6000A7F91B45C6987A24F8A6441A99C7257B3A6486D85B05E7B98CD2306EEDB3510F73
:201D80004E10F2AC2F7193CD114FADF3702ECC92D38D6F31B2EC0E50AFF1134DCE90722C53
:201DA0006D33D18F0C52B0EE326C8ED0530DEFB1F0AE4C1291CF2D73CA947628ABF5174933
:201DC0000856B4EA6937D58B5709EBB536688AD495CB2977F4AA4816E9B7550B88D6346A13
:201DE0002B7597C94A14F6A8742AC896154BA9F7B6E80A54D7896B021C35130106220C3554
:201E000049C90104160FB00E011012011A020D1DBB8041330D12031F01020960A01B0B1A22
:201E2000040B5D076CA5C939B9460121023F80880FC56A290EFBBE5D72C3B9B881FBDD1414
:201E400015FACEB3985D12ACCD5F14398E998F150103F70D1F0127BD0103F8DA1EB4AF0197
:201E60000620153B43CA083C054209081E07C3C80106201117B96F010310011F0751080187
:201E8000033028178B0A0106F00204D5029ACB0400A24A04FFFFFFFFFFFFFFFFFFFFFFFF1A
:201EA000FFFFFFFFFFFFFFFFFFFFFFFFFFFFFFFFFFFFFFFFFFFFFFFFFFFFFFFFFFFFFFFF42
:201EC000FFFFFFFFFFFFFFFFFFFFFFFFFFFFFFFFFFFFFFFFFFFFFFFFFFFFFFFFFFFFFFFF22
:201EE000FFFFFFFFFFFFFFFFFFFFFFFFFFFFFFFFFFFFFFFFFFFFFFFFFFFFFFFFFFFFFFFF02
:201F0000FFFFFFFFFFFFFFFFFFFFFFFFFFFFFFFFFFFFFFFFFFFFFFFFFFFFFFFFFFFFFFFFE1
:201F2000FFFFFFFFFFFFFFFFFFFFFFFFFFFFFFFFFFFFFFFFFFFFFFFFFFFFFFFFFFFFFFFFC1
:201F4000FFFFFFFFFFFFFFFFFFFFFFFFFFFFFFFFFFFFFFFFFFFFFFFFFFFFFFFFFFFFFFFFA1
:201F6000FFFFFFFFFFFFFFFFFFFFFFFFFFFFFFFFFFFFFFFFFFFFFFFFFFFFFFFFFFFFFFFF81
:201F8000FFFFFFFFFFFFFFFFFFFFFFFFFFFFFFFFFFFFFFFFFFFFFFFFFFFFFFFFFFFFFFFF61
:201FA000FFFFFFFFFFFFFFFFFFFFFFFFFFFFFFFFFFFFFFFFFFFFFFFFFFFFFFFFFFFFFFFF41
:201FC000FFFFFFFFFFFFFFFFFFFFFFFFFFFFFFFFFFFFFFFFFFFFFFFFFFFFFFFFFFFFFFFF21
:201FE000FFFFFFFFFFFFFFFFFFFFFFFFFFFFFFFFFFFFFFFFFFFFFFFFFFFFFFFFFFFFFFFF01
:20200000B0610020652100086D360008A9350008CD3500088D270008A53F000800000000BE
:20202000000000000000000000000000B5360008F130000800000000A53600080137000861
:202040007F2100087F2100087F2100087F2100087F2100087F210008693100087F21000846
:202060007F2100087F2100087F2100087F2100087F2100087F2100087F2100087F21000820
:202080007F2100087F2100087F2100087F210008912700087F2100087F2100087F210008E8
:2020A0007F2100087F2100087F2100087F210008E93700087F2100087F2100087F21000860
:2020C0007F2100087F2100087F2100087F2100087F210008E53D00083D3E00089D3E000828
:2020E0007F2100087F2100087F2100087F2100087F2100087F2100087F2100080000000048
:202100007F210008000000007F2100087F210008253D0008853D00087F2100087F21000843
:202120007F2100087F2100087F2100087F2100087F2100087F2100087F2100087F2100085F
:20214000AD2700087F2100087F2100087F210008DFF80CD000F0CAFA004800471D5200083E
:20216000B06100200648804706480047FEE7FEE7FEE7FEE7FEE7FEE7FEE7FEE7FEE7FEE792
:202180000D370008512100082DE9F05F0546002092469B4688460646814640241BE0284642
:2021A00041464746224600F0F1F953465A46C01A914110D311461846224600F0D8F92D1ADC
:2021C00067EB01084F4622460120002100F0CFF917EB00094E41201EA4F10104DFDC4846F2
:2021E00031462A464346BDE8F09F40EA01039B0703D009E008C9121F08C0042AFAD203E008
:2022000011F8013B00F8013B521EF9D27047D2B201E000F8012B491EFBD270470022F6E7E0
:2022200010B513460A4604461946FFF7F0FF204610BD2DE9FE4F804681EA0300C00F0C46B7
:20224000009021F0004123F00045B8EB0200A94105D24046214690461C460B46024623F00D
:202260000040104347D0270DC7F30A00C3F30A510290401A019040286BDAC3F3130040F484
:20228000801B0098924620B10023D2EB030A63EB0B0B01985946C0F14002504600F067F900
:2022A00006460D4650465946019A00F07FF910EB08006141002487EA115284EAE7731A4385
:2022C00040D0009A62B3019A012A4FEA075215DC001B61EB02014FF0004202EA0752CDE910
:2022E0000042001C41F5801132462B4600F07FF903B0BDE8F08F40462146F9E7001B61EB5D
:202300000201001C41F5801300185B412018A2F5001747EB030140EAD570B6196D4111E028
:202320006D084FEA360645EAC0754FEA0752001B61EB0201001C41F5801149084FEA3000B6
:202340000019514132462B4603B0BDE8F04F00F03FB90098012240000023D0EB020263EB3F
:20236000E073009821464FEAE074B8EB000061EB0401E9E783F000435BE781F0004158E7D1
:202380002DE9FE4F81EA030404F0004421F0004100944FF0000B23F0004350EA01045ED03D
:2023A00052EA03045BD0C3F30A54C1F30A552C44A4F2F3340194A0FB0254C1F3130141F4D8
:2023C0008011C3F3130343F4801301FB024400FB034E840A970A44EA815447EA8357A4FB6C
:2023E000076802958D0A05FB07854FEA932C04FB0C542705029D4FEA065847EA1637B5EBDD
:2024000008056EEB070C870E920E47EA811742EA8312A7FB0201B6EB0B0164EB00042B0DA7
:2024200043EA0C335E1844EB1C50DA465146E7FB0201C5F313044FEA0B3343EA14534FEA70
:202440000432019C43EA0603A4F10C040294009CCDE900B400F0CBF803B0BDE8F08F002088
:202460000146F9E72DE9F04D81EA030404F0004B21F0004514464FF0000A23F0004150EAAA
:20248000050220D054EA01021DD0C5F30A570246C5F31303C1F31300C1F30A5640F4801544
:2024A00043F48013A7EB0608101BD64608F2FD3873EB050002D308F1010801E092185B41DB
:2024C000B8F1000F03DA00200146BDE8F08D00204FF48011064684460EE0171B73EB05074A
:2024E00005D3121B63EB050306434CEA010C49084FEA300092185B4150EA0107EDD152EAB9
:20250000030012D082EA040083EA0501084305D0101BAB4106D20122002306E000224FF057
:20252000004302E06FF0010253101AEB06004CEB085110EB0A0041EB0B01BDE8F04D00F007
:2025400047B830B50B46014600202022012409E021FA02F59D4205D303FA02F5491B04FA70
:2025600002F52844151EA2F10102F1DC30BD202A04DB203A00FA02F1002070479140C2F1AA
:20258000200320FA03F3194390407047202A04DB203A21FA02F00021704721FA02F3D0409D
:2025A000C2F120029140084319467047202A06DBCB17203A41FA02F043EAE07306E041FADF
:2025C00002F3D040C2F12002914008431946704710B5141E73F1000408DA401C41F100011F
:2025E00092185B411A4301D120F0010010BD2DE9F04D92469B4611B1B1FA81F202E0B0FA10
:2026000080F220329046FFF7B2FF04460F4640EA0A0041EA0B0153465A46084313D01146B1
:2026200053EA010019D0C8F140025046FFF7AEFF05460E46504659464246FFF798FF08430B
:2026400005D0012004E020463946BDE8F08D0020054346EAE0762C4337430A986305E40ACA
:20266000A0EB08000022FD0A44EA47540A3002D500200146E9E7010510196941DDE90845A1
:2026800000196941BDE8F04DA2E7C1F30A52C1F3130140F2FF3341F480119A4202DA002032
:2026A0000146704740F233439A42A2F2334202DC5242FFF76BBFFFF75ABF000030B5041EE7
:2026C00071F1000404DB4FF00044404264EB0101141E73F1000405DB1C464FF0004352426D
:2026E00063EB0403994208BF904230BD064C074D06E0E06840F0010394E807009847103476
:20270000AC42F6D3FFF728FD485B0008685B000870B58C1810F8015B15F0070301D110F85B
:20272000013B2A1106D110F8012B03E010F8016B01F8016B5B1EF9D12B0705D40023521E7A
:202740000DD401F8013BFAE710F8013BCB1A921C03E013F8015B01F8015B521EF9D5A142EB
:20276000D8D3002070BD000001200149087070474700002001200149087070475500002051
:2027800001200149087070475C00002000BFFEE710B5044A0021044802F09DF9014800F03E
:2027A00019F810BD6C0400200064004010B5044A0021044802F08FF9014800F087F810BD88
:2027C000800400200068004001200149087070476100002070B504466068050B2D032748AC
:2027E00085424AD1207A042847D12549897801EB8101244A206842F821002148807800EB9F
:202800008000114601EB80004068616808431C49897801EB810102EB81014860207A1849D3
:20282000897801EB810102EB81010872607A1449897801EB810102EB81014872A07A1049FE
:20284000897801EB810102EB81018872A27A0C49897801EB81010B4B03EB810101F10B00FD
:2028600004F10B01FFF7C1FC05488078642804DA03488078401C0249887070BD00E00618E8
:20288000A8490020EC49002010B504460748007808B9606820B906A0616801F085FB10BDED
:2028A0002146094802F08AF900BFF8E78C59002043414E20302074782064697361626C6526
:2028C0002025780D0A0000000064004038B504466068050B2D032C48C078642853DA606814
:2028E00000902A480178BDF8020061F30710ADF80200BDF8020040F00100BDF8021060F392
:202900000301ADF802102048C07800EB8000204901EB8000009941601B49C97801EB8101CF
:202920001B4A206842F82100207A1749C97801EB810102EB81010872607A1349C97801EB5A
:20294000810102EB81014872A07A0F49C97801EB810102EB81018872A27A0B49C97801EBA5
:2029600081010B4B03EB810101F10B0004F10B01FFF73BFC0448C078642804DA0248C07874
:20298000401C0149C87038BDA84900205B040020BC51002010B504460748007C08B9606844
:2029A00020B906A0616801F0FFFA10BD2146094802F004F900BFF8E78C59002043414E20DC
:2029C000312074782064697361626C652025780D0A0000000068004070B505460E46002462
:2029E00000BF0DE0621C02EB820205EB820104EB840205EB82001422FFF7F7FB601CC4B2D2
:202A0000701EA042EEDC70BD00B589B04FF4C06002F070FD06A9002002F078F901A90120A2
:202A200002F074F9414801F029FF414801F026FF40F2197002F05EFD40F21A7002F05AFDE9
:202A40004FF40063032248213A4802F083FB4FF4805303221821374802F07CFB4FF48053DE
:202A600003224821344802F075FB4FF4005303221821314802F06EFB00208DF81C008DF8DC
:202A80001D008DF81E008DF81F008DF820008DF821008DF818008DF819000D208DF81A0080
:202AA00002208DF81B000C20ADF8220006A91F4801F07CFF06A91E4801F078FF0020ADF89D
:202AC0000E00ADF810000120ADF812000020ADF80400ADF80600ADF80800ADF80A00ADF8E6
:202AE0000C0001208DF8140001A801F0D7FE0F20ADF80E0001A801F0D1FE02210B4801F0EF
:202B0000E6FF02210A4801F0E2FF0C49032002F0FDF800221146142002F0CAFB012211464C
:202B2000402002F0C5FB09B000BD0000006400400068004000080140000C01406C0400209B
:202B400010B52249002000F0F3F82149012000F0EFF82048007838B91E48007C20B94EF618
:202B60006021092001F09EF800F074FC1A498969401A0A2829D300F06DFC174988610846F7
:202B8000C278817815A001F00FFA1348807860B11748FFF7FFFE104881781548FFF71CFFDE
:202BA0000D488078401E0C4988700B48C07860B11048FFF769FE0848C1780E48FFF70CFFEC
:202BC0000548C078401E0449C87010BD00640040006800408C590020A84900202D63616EFF
:202BE000302025642D63616E312025640D0A0000EC490020BC51002010B50020394908704B
:202C0000394908703949087039480021016041603848016041603848016041603748016038
:202C2000416037480160416036480160416036480160416035480160416035480160416074
:202C400034480160416001604160016041600160416001604160016041602F480160416073
:202C60002E48016041601C212D48FFF7D7FA2D480021016041608160C160016141618161E3
:202C8000C1610020284908708021284802F0B8FA28B92548007840F0010023490870402118
:202CA000224802F0ADFA28B91F48007840F002001D49087020211D4802F0A2FA28B91A48CA
:202CC000007840F00400184908701021174802F097FA28B91448007840F00800124908709C
:202CE00010BD0000C0030020C1030020C2030020C3030020CB030020D3030020DB03002093
:202D0000E3030020EB030020F3030020FB030020030400202B0400203B040020430400202F
:202D2000A84900208C5900205B04002000080140F8B504460D46AC4800EB04104078022896
:202D400002D14FF47A7000E064200646022C00DBF8BDA54800EB0410407810B300F07AFB39
:202D6000A14901EB04114968401AB04219D3A86900F00400A8B900F06DFB07469A4800EBA7
:202D8000041000963A462146436898A001F00CF90020954901EB04110870934901EB041175
:202DA0004870A86900F0040000285ED000F052FB8D4901EB04114968401AB04255D3A868B7
:202DC00092490843A860286840F001002860286820F001002860844800EB04108089B0F5DA
:202DE0007A7F08DA804800EB04108089401C7E4901EB0411888101207B4901EB041108709D
:202E0000794800EB04108089052817DB00F022FB754901EB041148600220734901EB041177
:202E2000487000F017FB07466F4800EB041083893A46214676A001F0B7F816E000F00AFB41
:202E4000694901EB041148600120674901EB0411487000F0FFFA0746634800EB04108389A1
:202E60003A46214671A001F09FF8A86900F0700028B17648006800F07000302815D1A869B3
:202E800000F0040088B9584800EB0410808960B10020554901EB0411888100F0DBFA07466A
:202EA0003A4621466AA001F07FF8A86900F0700030286CD14C4800EB04104078002866D109
:202EC000494800EB0410807820B1012816D002285CD139E000F0BEFA434901EB04118860FD
:202EE0000120414901EB0411887000F0B3FA07463A4621465EA001F057F847E000F0AAFA64
:202F0000394901EB04118968401A64281BD300F0A1FA354901EB041188600220324901EBEE
:202F200004118870A86839490843A86001202E4901EB0411087000F08DFA07463A462146E3
:202F400052A001F031F821E000F084FA264901EB04118968401A962817D300F07BFA2249C3
:202F600001EB0411886001201F4901EB0411887000F070FA07463A4621464CA001F014F86F
:202F80000020194901EB0411087000BF29E00020154901EB0411887000F05CFA124901EB6A
:202FA00004118860104800EB0410407820B900200D4901EB0411087000F04CFA434951F832
:202FC0002410401A0A280CD900F044FA07463A4621463FA000F0E8FF00F03CFA3B4941F851
:202FE000240000BFB4E600008C5900202D63616E202564204255534F46465F434C4F53458D
:203000002025642025642025640D0A00808080002D63616E2025642D4255534F46465F5372
:203020004C4F572025642025640D0A002D63616E2025642D4255534F46465F515549434B5F
:203040002025642025640D0A00000000186400402D63616E2025642D4255534F46465F43AF
:203060004C4541525F4E4F4E452025640D0A00002D63616E202564202D4D4953535F414369
:203080004B5F4E4F4E452025640D0A002D63616E202564202D4D4953535F41434B5F5449DB
:2030A0004D454F55542025640D0A00002D63616E202564202D4D4953535F41434B5F524511
:2030C000434F564552592025640D0A005C0400202D63616E2025642D6E6F6E652025640D3D
:2030E0000A000000012001490870704771010020704701B5BDF8000000EBC00101EB0010D0
:203100004FF6FF7101EAC000009004E0BDF80000401E80B20090BDF800000028F6D108BD9D
:203120000148D0F8F0017047940500200348D0F8EC014FF47A7148437047000094050020F4
:203140000748D0F8C80148B10548D0F8C801C0EB001080004FF47A71484370470148FCE7E1
:2031600094050020E093040010B5012001F03EFF28B1012000F054F9012001F031FF10BDC5
:203180001A488078C0B91948407850B91748C07818B900201649C87026E040201449C87020
:2031A00022E01248C07818B920201149C8701BE060200F49C87017E00C48407850B90B486E
:2031C000C07818B910200A49C8700DE050200849C87009E00548C07818B930200449C87031
:2031E00002E070200249C870704700009C490020B303002010B54FF4C06002F07BF94FF477
:20320000A06002F0ABF802221146062002F050F80021012001F052FF01220021104601F02F
:2032200081FE012001F0DCFE10BD00000148007870470000F501002001200149087070472E
:20324000F601002010B540F2026002F053F940F2036002F04FF940F2046002F04BF940F2F3
:20326000056002F047F94FF4005301221421694801F070FF4FF4804301221421654801F0BC
:2032800069FF4FF4004301221421624801F062FF01231A461021604801F05CFF02230122FB
:2032A00010215D4801F056FF0423012210215B4801F050FF802301221021564801F04AFFC5
:2032C0004FF4807301221021524801F043FF4FF4004301221021504801F03CFF4FF48073C3
:2032E000012210214C4801F035FF102301221946494801F02FFF202301221021464801F046
:2033000029FF802301221021434801F023FF402301221021404801F01DFF012280213D485B
:2033200001F0C6FE012211023A4801F0C1FE00220221394801F0BCFE00220421374801F048
:20334000B7FE402301221421344801F003FF802301221421314801F0FDFE4FF48043012205
:2033600048212E4801F0F6FE4FF4004301224821294801F0EFFE202301224821254801F0FB
:20338000E9FE01231A464821244801F0E3FE022301221021204801F0DDFE4FF400530122B5
:2033A00010211E4801F0D6FE012211021A4801F07FFE802301224821174801F0CBFE402300
:2033C00001224821144801F0C5FE202301224821114801F0BFFE1023012248210E4801F075
:2033E000B9FE1023012219460A4801F0B3FE022301221021094801F0ADFE00221021054867
:2034000001F056FE00220221044801F051FEFFF7F1FE10BD0010014000080140000C0140FD
:2034200010B50446012C0FD10A20FFF762FE2021064801F0E5FE012803D1042004490870A7
:2034400002E003200249087010BD000000100140050200200148006870470000A80300202C
:2034600010B54F480068401C4D490860002493E004EB44004B4901EB8000406840680028EC
:2034800060D004EB440001EB80004068007800F00100002856D004EB440001EB8000408897
:2034A00001284FD104EB440001EB800040684068401E04EB44013B4A02EB810149684860F5
:2034C00004EB4400114601EB800040684068C8BB04EB440001EB80004068007820F0F8005C
:2034E000083004EB440102EB81014968087004EB4400114601EB800040680078C0F34000BF
:2035000068B904EB440001EB80004068007820F0010004EB440102EB81014968087004EBFF
:203520004400204901EB8000806858B104EB44020B4603EB8202506804EB440203EB82022A
:203540009168884704EB4400164901EB80004068007800F00100E8B104EB440001EB80005C
:203560004088B8B904EB440031F82000082811D104EB440001EB8000806858B104EB4402BF
:203580000B4603EB8202506804EB440203EB820291688847601CC4B2162CFFF469AF10BD35
:2035A000A8030020405A000800BFFEE70348007808B1012070470020FCE70000FA01002088
:2035C00001490870704700000602002000BFFEE70349C97860F34101014AD1707047000041
:2035E000070200200248C078C0F34000704700000702002001200149087070470B02002086
:2036000000B502460648C07862F300000449C8700846C07820F0FC00C870FFF7EBFF00BDE6
:203620000702002000B50D48C0780621B1EB900F0BDD0A48C078012101EB90000749C9781C
:2036400060F387010548C17005E00448C07820F0FC000249C870FFF7CDFF00BD0702002071
:203660000149087070470000F10100207047000010B5002807DA0A07140E054A00F00F03B6
:203680001B1FD45403E00A07130E024A135410BD18ED00E000E400E00120014908707047F0
:2036A0001B020020704700000220014908707047940200207047000010B501221146024885
:2036C00001F0F6FC10BD00000010014010B500220121024801F0ECFC10BD0000001001409F
:2036E0000020002100BF04E0044A125C5140421CD0B20B28F8D3014AD1727047B3030020A0
:2037000010B501F087FBFFF7ABFE10BD08B53148006840F001002F49086000BF2D480068BA
:2037200000F002000028F9D000BF2A48406840F08000284948600020009002E00098401C7E
:20374000009000985028F9D32248406840F09000204948600020009002E00098401C009004
:2037600000985028F9D300BF1A48406820F003001849486008460068174908401549086064
:2037800008464068154908401249486008460068114908400F4908600846006820F4802008
:2037A0000860084640680E4908400A4948600020C862084600680B490840064908604FF47B
:2037C0007F00886001F0F0FF4FF40051880301F0CFFD08BD00100240FFFFF6FE0C00FFE0D2
:2037E000FFFF00DFFFFFF6EA10B50121880702F00AF801280CD101F019FB0648007818B10A
:203800000548007801F0A6FE0121880701F0F8FF10BD0000B3030020BF0300204FF47A7102
:203820004160704710B50446207820F001002070002240210B4801F03BFC0120FFF7E0FEF5
:203840000948007820F00100401C074908704FF4FA6048600846007820F00200801C087039
:2038600010BD000000080140300300207047000010B504460020FFF7A3FE00200149087080
:2038800010BD00001A02002010B50446FFF74EFC6060FFF7CBFC28B1FFF742FC10B1052060
:2038A000FFF7DEFE10BD10B504464FF4FA606060FFF7B8FE10BD70B504464FF4C8706060DA
:2038C000FFF790FE08B9012000E000200546FFF77FFEFFF78FFE70BD10B504464FF4FA6068
:2038E0006060FEF74DFF10BD10B5044664206060FEF76AFF10BD10B50446FFF721FC60609A
:20390000FFF7D2FEFFF798FC4FF4FA6000F002F810BD000006494860097821F00101491C13
:20392000034A11701146097821F0F801117070474003002010B5B448007820F00100401C96
:20394000B14908700846007820F00200801C0870FFF7F6FBAC4948600846007820F0F800B7
:203960000870AA48007820F00100A84908700846007820F00200087000204860084600780D
:2039800020F0F8000870A248007820F00100401C9F4908700846007820F00200801C08708C
:2039A000642048600846007820F00200801C08700846007820F0F80008709648007820F043
:2039C0000100401C934908700846007820F00200801C0870642048600846007820F0F80050
:2039E00008708D48007820F00100401C8A4908700846007820F00200801C08706420486032
:203A00000846007820F0F80008708448007820F00100401C814908700846007820F0020095
:203A2000801C08704FF47A7048600846007820F0F80008707A48007820F00100401C7849EF
:203A400008700846007820F0020008704EF6602048600846007820F0F800087071480078BB
:203A600020F001006F4908700846007820F002000870002048600846007820F0F8000870A7
:203A80006948007820F00100674908700846007820F002000870002048600846007820F0D6
:203AA000F80008706148007820F001005F4908700846007820F002000870002048600846DE
:203AC000007820F0F80008705948007820F00100401C574908700846007820F00200801CDC
:203AE0000870642048600846007820F0F80008705048007820F001004E49087008460078E6
:203B000020F00200087047F2305048600846007820F0F80008704848007820F001004649CC
:203B200008700846007820F00200087042F2107048600846007820F0F80008703F4800781C
:203B400020F001003D4908700846007820F00200087042F2107048600846007820F0F800DC
:203B600008703748007820F00100354908700846007820F002000870324848600846007897
:203B800020F0F80008703048007820F00100401C2D4908700846007820F00200087043F6D1
:203BA000982048600846007820F0F80008702748007820F00100401C244908700846007860
:203BC00020F00200801C0870FFF7B0FA1F4948600846007820F0F80008701D48007820F0DC
:203BE0000100401C1A4908700846007820F00200801C08704FF47A7048600846007820F0F6
:203C0000F800087010BD0000F8020020380300200803002010030020180300202003002016
:203C20005803002028030020300300205003002060030020680300207003002078030020BC
:203C400088030020A0BB0D009003002098030020A003002010B50446207800F0010050B187
:203C6000FFF7A4FC38B14FF6FF716068884202D26068401C606010BD10B504464FF47A70BD
:203C80006060FFF709FD10BD10B504464FF47A706060FFF727FAFEF767FD64206060FEF7F6
:203CA00069FD10BD30B50246002000BF2EE000EB4003184C34F82330934225D100EB4003AD
:203CC00004EB83035B681B7823F001035B1C00EB4004104D05EB84046468237000EB4003FA
:203CE0002C4604EB83035B68596000EB400304EB83035B681B7823F0F80300EB400405EB3B
:203D000084046468237003E0431CD8B21628CEDB00BF30BD405A000801490978C808704769
:203D20005803002010B51349134801F044FED8B112480068A8B1104801F0BAFDC1B20F48EB
:203D4000C488601C0D4AD0801046006801551046C08811468988884206DB00201146C88070
:203D600002E0054801F0A4FD0549034801F023FE10BD000005030500004C00401800002039
:203D80000703070010B51349134801F014FED8B112480068A8B1104801F08AFDC1B20F4855
:203DA000C488601C0D4AD0801046006801551046C08811468988884206DB00201146C88010
:203DC00002E0054801F074FD0549034801F0F3FD10BD00000503050000500040200000202E
:203DE0000703070010B51149114801F0E4FDB8B110480068A0B10E4801F05AFDC1B20D4888
:203E0000C488601C0B4AD0801046006801551046C08811468988884202DB00201146C880B5
:203E20000549034801F0C7FD10BD00000503050000380140000000200703070010B513498F
:203E4000134801F0B8FDD8B112480068A8B1104801F02EFDC1B20F48C488601C0D4AD08010
:203E60001046006801551046C08811468988884206DB00201146C88002E0054801F018FD89
:203E80000549034801F097FD10BD00000503050000440040080000200703070010B513494C
:203EA000134801F088FDD8B112480068A8B1104801F0FEFCC1B20F48C488601C0D4AD08011
:203EC0001046006801551046C08811468988884206DB00201146C88002E0054801F0E8FC5A
:203EE0000549034801F067FD10BD00000503050000480040100000200703070010B500224A
:203F00001146262001F0D4F940F2026001F0F2FA40F2117001F0EEFA042303221821074875
:203F200001F018F9082303220421044801F012F94FF4E131024800F005F810BD0008014020
:203F40000044004070B504460D46204601F0BAFC2946204601F064FC0021204601F067FD0C
:203F60000021204601F053FD0021204601F03FFD0021204601F00AFD0021204601F0FEFCD4
:203F80000421204601F03BFD0821204601F047FD204601F0DFFC0249204601F0FFFC70BDAD
:203FA0000503050000BFFEE70FB4054B10B503A9044A029800F0CAF810BC5DF814FB000002
:203FC000055000086804002002E008C8121F08C1002AFAD170477047002001E001C1121FF5
:203FE000002AFBD1704700002DE9FF5FDDE90220010DDDF838B0024318D044F61050A1F293
:20400000FF3141430D140F98012820D0A5EB0B00401C5FEA000A4FF00004474EDFF81C9165
:20402000A046504616D5CAF1000728E00F98012443A2012808D0002100980F9BC0E9002170
:20404000C0E90243BDE8FF9F6FEA0B01F4E7CBF10000DEE7074612E0F80707D02246334678
:2040600040464946FEF78CF9804689462246334610461946FEF784F904460E467F10002FB8
:20408000EAD1DDE90201BAF1000F42464B4602DAFEF776F901E0FEF7E5F904460E46002215
:2040A000284BFEF70BFB03D84FF0FF30014607E00022254B20463146FEF7BBF8FEF7E5FA30
:2040C000102409E0002C0ADB0A220023FEF75CF8019B30321A55641E50EA0102F2D1641CAB
:2040E000019AC4F1110314440F9A012A03D0012208430DD10AE0084304D000204FF0110B8D
:204100000F9080E7A3EB0B056D1E0DE05B4504DD4FF0000205F1010504E003DA4FF00002C3
:20412000A5F10105002AECD000980F99C0E90231C0E9004586E70000000024400000F03FF3
:20414000300000000000F0430000E03F2DE9FF4F95B09B468946064600250FE2252877D18D
:2041600000242746F84A0121059400E0044316F8013F203B01FA03F01042F7D130782A28DF
:2041800011D06FF02F033078A0F13002092A16D8059A44F0020402EB820203EB4202104451
:2041A000761C0590EFE759F8042B0592002A03DA504244F40054059044F00204761C3078BD
:2041C0002E2816D116F8010F44F004042A280DD06FF02F023078A0F13003092B09D807EB16
:2041E000870302EB4303C718761CF3E759F8047B761C30786C280FD006DC4C2817D068286D
:204200000DD06A2814D104E0742810D07A280FD10DE044F400140AE044F4801401E044F460
:2042200040147278824202D104F58014761C761C307866280BD013DC582877D009DC002824
:2042400075D04528F6D04628F4D047281AD19DE118E0632835D0642879D0652812D195E199
:20426000702873D008DC6728F1D069286FD06E280DD06F2806D1B5E073282CD0752875D070
:20428000782874D05A46179990476D1C75E1C4F30250022809D003280DD0D9F80010042813
:2042A0000DD00D6009F1040967E1D9F80010EA17C1E90052F6E7D9F800100D80F2E70D70E6
:2042C000F0E719F8041B8DF8001000208DF80100EA46012003E059F804AB4FF0FF30610792
:2042E0004FF0000102D40DE008F101018846B9420FDA8045F8DB1AF808100029F4D108E076
:2043000008F1010188468142FADB1AF808100029F6D105985B46A0EB080721463846179AB4
:2043200000F094FA284400EB080507E04DE029E10DE01AF8010B5A4617999047B8F1010899
:20434000F7D25B4621463846179A13E142E00A220092C4F302524FF0000A022A08D059F8E0
:2043600004CB032A4FEAEC710AD00DE029E02AE009F1070121F00702F2E802C1914609E058
:204380000FFA8CFC4FEAEC71042A03D14FFA8CFC4FEAEC71002907DA0A460021DCF1000C39
:2043A00061EB02012D2202E0220504D52B228DF80420012203E0E20701D02022F7E79046D1
:2043C00059E00A2102E010220DE010214FF0000A00910BE010224FF0000A44F0040408279C
:2043E000009203E008224FF0000A0092C4F30252022A05D059F804CB0021032A08D009E008
:2044000009F1070121F00702F2E802C1914605E01FFA8CFC042A01D10CF0FF0C4FF0000838
:20442000220728D5702806D0009B83F0100353EA0A0305D00EE040228DF80420012208E0A4
:204440005CEA010206D030228DF804208DF8050002229046009B83F0080353EA0A030AD180
:204460005CEA010201D1620705D530228DF804204FF001087F1E582804D034A003900EA88D
:2044800002900DE036A0F9E753466046009AFDF77BFE84460398825C0298401E0290027062
:2044A0005CEA0100F0D1029806A9081A00F1200A600702D524F4803400E00127574502DDE1
:2044C000A7EB0A0000E0002000EB0A01009005984144401A0590E00306D45B462146179A33
:2044E000059800F0B3F90544002706E001A85A46C05D179990476D1C7F1C4745F6DBE003DC
:204500000CD55B462146179A059800F09FF9054404E030205A46179990476D1C0099481EB0
:2045200000900029F5DC08E0029802995A460078491C0291179990476D1CBAF10001AAF16D
:20454000010AF1DC65E10000092801003031323334353637383961626364656600000000A9
:20456000303132333435363738394142434445460000000000F058F90544761C30780028AD
:204580007FF4ECAD19B02846BDE8F08F620700D4062709F1070222F0070CFCE80223E146F2
:2045A00003F000485FEA080C02D00FF2702C0DE05FEA045C02D50FF2682C07E05FEAC47C82
:2045C00002D00FF2602C01E0AFF2700C4FF0FF3823F00043CDF850C065280CD006DC452825
:2045E00009D046281DD047283DD13DE0662818D067287ED138E00021112F01DB112000E033
:20460000781CCDE9000106A90EA8FFF7EDFCDDE90F010E9A03910021009207F1010A0491AE
:204620004DE04FF000400097CDE9011006A90EA8FFF7DAFCDDE90F0203920E9B119900225E
:20464000DDF80CA00093049211B9791C00EB010AB7EB0A0004D4C0F1FF3007F1010A049060
:20466000AAEB0700019044E0012F00DA01270021112F01DD112000E03846CDE9000106A983
:204680000EA8FFF7B1FCDDE90F010E9A0391002104910092BA4621070CD40399514500DA53
:2046A0008A46BAF1010F05DD009AAAF10101515C302908D0B84202DA10F1040F06DA01218C
:2046C000CDE9011015E0AAF10101E9E7002805DC049901440491AAEB000102E0411C5145C6
:2046E00000DD8A460499401A401C01904FF000400290200704D40198504501DBCDF80480C6
:2047000000208DF84F0002980DF14F07B0F1004F25D02B200E9002984FF0020800280CDAF8
:20472000404202902D200E9007E00A210298FDF708FF3031029007F8011DB8F10001A8F180
:204740000108F2DC02980028EFD1791E0E980870307800F0200040F0450007F8020D12A856
:20476000C01B00F107081498007800B1012000EB0A01019801EBE07105984144401A401EC2
:204780000590E00306D45B462146179A059800F05DF805441498007818B15A4617999047CF
:2047A0006D1CE00324D55B462146179A059800F04DF805441CE00498002807DBDDE9030154
:2047C000884203DD0098405C179901E0179930205A469047049805F10105401C04900198D2
:2047E000401E019004D12E205A46179990476D1CBAF10001AAF1010ADDDC05E017F8010BEC
:204800005A46179990476D1CB8F10001A8F10108F4DC5B462146179A0598ABE62D000000B8
:204820002B000000200000002DE9F041044600251E461746880404D405E039462020B047B7
:204840006D1C641EF9D52846BDE8F0812DE9F041044600251E469046C80301D5302700E033
:204860002027880404D505E041463846B0476D1C641EF9D52846BDE8F081000010B504463F
:204880000548844207D140F2194000F053FE40F2194000F03FFE10BD0064004010B5002152
:2048A000837A012202FA03F13E4A126842F001023C4B1A603B4A1C3212688A43394B1C33C3
:2048C0001A60C289DAB9374A0C3212688A43354B0C331A60C288344B03EA024243881A431F
:2048E0004389304C403444F8332082882E4B03EA024203881A43438904EBC3035A60C2894B
:20490000012A1BD1274A0C3212680A43254B0C331A600288244B03EA024243881A434389C3
:20492000204C403444F8332082881F4B03EA0242C3881A43438904EBC3035A6082893AB982
:20494000184A121D12688A43164B1B1D1A6006E0144A121D12680A43124B1B1D1A60028998
:204960003AB9104A143212688A430E4B14331A6006E00C4A143212680A430A4B14331A60E4
:20498000027C012A06D1074A1C3212680A43054B1C331A60034A126822F00102014B1A6076
:2049A00010BD0000006600400000FFFF70B502464FF6FF730020146824F0020414601468BC
:2049C00044F00104146000E05B1E546804F001040CB9002BF8D1546804F001040CB90020C9
:2049E00074E00C784FF0404505EA84744D784FF0407606EA05652C438D784FF4702606EAE3
:204A000005452C43CD784FF4E00606EA05552C434D896D1EC5F309052C43D4610C79012C39
:204A200004D1146844F08004146003E0146824F0800414604C79012C04D1146844F04004D3
:204A4000146003E0146824F0400414608C79012C04D1146844F02004146003E0146824F0F5
:204A600020041460CC79012C04D1146824F01004146003E0146844F0100414600C7A012C71
:204A800004D1146824F00804146003E0146844F0080414604C7A012C04D1146844F004049E
:204AA000146003E0146824F004041460146824F0010414604FF6FF7300E05B1E546804F0CA
:204AC00001040CB1002BF8D103B1012070BD42690A434261704710B500F5D87303EB0113C5
:204AE0001B6803F004031372137A3BB900F5D87303EB01131B685B0D136006E000F5D8736D
:204B000003EB01131B68DB08536000F5D87303EB01131B6803F00203537200F5DA7303EBC8
:204B200001131B681B0AD37400F5DA7303EB01131B6803F00F03937200F5DC7303EB01135B
:204B40001B68D37200F5DC7303EB01131B681C0A147300F5DC7303EB01131B681C0C54735F
:204B600000F5DC7303EB01131B681C0E947300F5DE7303EB01131B68D37300F5DE7303EBF6
:204B800001131B681C0A147400F5DE7303EB01131B681C0C547400F5DE7303EB01131B684A
:204BA0001C0E947421B9C36843F02003C36003E0036943F02003036110BD000030B5024642
:204BC0000B460021906800F08060B0F1806F00D110E0906800F00060B0F1006F01D10121FE
:204BE00008E0906800F08050B0F1805F01D1022100E00321032901D1032030BD02F5C07067
:204C000000EB0110006800F0010402F5C07000EB01100460187A88B918883B4C04EA40503C
:204C20005C7A204302F5C07404EB01142468204302F5C07404EB0114206013E06FF0070411
:204C4000586804EAC0001C7A20435C7A204302F5C07404EB01142468204302F5C07404EB7C
:204C60000114206002F5C27000EB0110006820F00F0402F5C27000EB0110046002F5C2703D
:204C800000EB011000689C7A204302F5C27404EB01142060987B4FF07F4404EA00605C7B4C
:204CA0004FF47F0505EA044420431C7B2D1205EA04242043DC7A204302F5C47404EB011457
:204CC0002060987C2C0404EA00605C7C2D0205EA044420431C7C2D1205EA04242043DC7B79
:204CE000204302F5C67404EB0114206002F5C07000EB0110006840F0010402F5C07000EBCA
:204D000001100460084678E70000E0FF10B5024632B1012A16D0022A20D0032A41D12EE028
:204D200000234B71CB718B7140F2FF334B8100230B724B7002238B700023CB700B714B721A
:204D40000B7030E00123CB8100230B740B810B804B808B80CB808B814B8124E0002005E09D
:204D6000002401F10B031C54431CD8B20828F7D300238B724B600B724B720B6013E0002039
:204D800005E0002401F10B031C54431CD8B20828F7D300238B724B600B72CB744B720B6008
:204DA00001E000BFFEE700BF10BD000017480078A8B91648C079012804D0022806D00328EB
:204DC0000CD107E001201249087107E002201049087103E003200E49087100BF15E00B4862
:204DE000C079012804D0022806D003280CD107E021200749087107E022200549087103E0B1
:204E000023200349087100BF00BF70479C490020B30300200448006820B103480068401EE4
:204E200001490860704700002C00002000B5FEF7A7F9FFF7BBFF00F061F800F055F800F04D
:204E400067F800F005F800F031F8FEF749FC00BD14488079D0B91348407958B91148007A20
:204E6000142803DC0420104988701AE000200E49887016E00B48007A142803DC0C200A49DC
:204E800088700EE00820084988700AE00548007A142803DC05200449887002E00120024937
:204EA000887070479C490020B30300200C48407870B90B48807858B90948C07840B9084805
:204EC000007928B90648407910B90548007818B100200449487102E0012002494871704736
:204EE0009C490020B30300200248007A02494872704700009C490020B303002002480079B9
:204F000002490872704700009C490020B30300200248407A02498872704700009C49002035
:204F2000B303002010B52D4B1B6883432B4C2360231D1B688343241D2360231D1B68834345
:204F4000241D2360231D1B688343241D236011B101290ED105E0214B1B6803431F4C23606D
:204F600008E01E4B1B1D1B6803431C4C241D236000E000BF00BF32B1012A11D0022A1CD04E
:204F8000032A27D127E0154B08331B680343134C08342360231D1B688343241D23601BE01B
:204FA0000E4B08331B6883430C4C08342360231D1B680343241D23600EE0084B08331B6831
:204FC0000343064C08342360231D1B680343241D236001E000BF00BF00BF10BD000401407D
:204FE000014908607047000014040140014604480068084008B1012070470020FCE7000018
:205000001404014070B504460D46E1B2054800F054FC00BF0721034800F0A1FC0028F9D0A5
:20502000204670BD0044004030B502460B46164C002145F25550154D286000BF1348C06850
:2050400000F00101601E041E01D00029F6D109B1002030BD0D4843600B4C00BF0B48C068AD
:2050600000F00201601E041E01D00029F6D109B10020EEE7C2F30B00044DA8604AF6AA200A
:2050800028600120E5E70000FFFF0F00003000404AF6AA200149086070470000003000403B
:2050A0004CF6CC400149086070470000003000400AB1016100E041617047000010B500228C
:2050C0008B071C0F0F2303FA04F204290EDA204B9B6893431E4CA36023469B688C07240FF6
:2050E00000FA04F423431A4CA3602FE008290EDA174BDB689343164CE3602346DB688C0768
:20510000240F00FA04F42343114CE3601EE00C290EDA0F4B1B6993430D4C236123461B69CB
:205120008C07240F00FA04F42343094C23610DE0074B5B699343064C636123465B698C07C9
:20514000240F00FA04F42343014C636110BD000000000140F0B5044616460025002201F022
:205160000F0501F0100707B1354300201EE0012787401F40C7B122684FEA800C0F2707FA79
:205180000CF7BA43870005FA07F73A43282904D1012787401F40676105E0482903D1012780
:2051A00087401F4027612260471CB8B20828DED3082022E0012787401F40E7B16268A0F1A6
:2051C00008074FEA870C0F2707FA0CF7BA43A0F10807BF0005FA07F73A43282904D1012796
:2051E00087401F40676105E0482903D1012787401F4027616260471CB8B21028DAD3F0BDA0
:2052000002469068084008B1012070470020FCE7A020014908807047AC030020FEF712F85B
:20522000FEF76CFEFFF7F4FF06214CF25030FFF7FBFEFFF735FF00F0BBFAFEF77BFBFDF724
:20524000E3FBFDF7D9FC10A0FEF7AEFE1BE0FFF71FFFFDF775FCFEF75FFDA0B10EA0FEF79D
:20526000A3FE71B600BFBFF34F8F0F48006800F4E0600E490843001D0B490860BFF34F8F19
:2052800000BF00BFFEE7E2E773797374656D2073746172740D0A000073797374656D2072A1
:2052A000657365740D0A00000CED00E00000FA052DE9F04103460D46164600240027A046DE
:2052C0002448006800F4E060B0F5A06F15D006DCB0F5407F18D0B0F5806F19D110E0B0F5EC
:2052E000C06F06D0B0F5E06F12D100274FF0040815E001274FF0030811E00227B8460EE0F3
:2053000003274FF001080AE004274FF0000806E04FF4A06000F022F80227B84600BF00BFE7
:20532000C7F1040005FA00F4C8F104010F20C8403040044324010848C45403F01F01012051
:2053400088405911890001F1E021C1F80001BDE8F08100000CED00E000E400E002490143A3
:20536000024A1160704700000000FA050CED00E0034A0A400243034B1A60BFF34F8F7047F6
:2053800080FFFF1F08ED00E02DE9F14F8DB000200B9051A090E8004CC068CDE905BECDF832
:2053A00010A007900FF2341ADAE9000ACDE9020A0FF2281ADAE9000ACDE9000A4A484068BE
:2053C000C0F381000C900C9820B1012804D002284DD103E045494CE044494AE042484068BD
:2053E00000F48039B9F5803F26D1404B3E48C06A00F480300A900A98B0F5803F12D13A48B8
:20540000C06AC0F30310401C08903748C06AC0F30320871C112F00D114270898B3FBF0F00C
:2054200000FB07F33048C06A00F00F00401C09900998B3FBF0F300E02D4B2B484068C0F389
:2054400083422948406800F0005008B142F010020F2A01D2921C00E0521C03FB02F10F2AFF
:2054600004D103EB4300400000EB530101E01F4900BF00BF1C484068C0F3031504A8465DBA
:2054800021FA06F418484068C0F3022502A8465D24FA06FC14484068C0F3C2251DF8056090
:2054A00024FA06F80D9830B1012806D0022806D003280AD106E00B9108E00B9406E0CDF891
:2054C0002CC003E0CDF82C8000E000BF00BF0B980EB0BDE8F08F00000000000000000000A9
:2054E00001020304060708090010024000127A0000093D00064A02EB9011096800F01F03FF
:2055000001229A401143024B03EB90121160704700100240064A02EB9011096800F01F0382
:2055200001229A409143024B03EB90121160704700100240064A02EB9011096800F01F03E2
:2055400001229A401143024B03EB9012116070470010024070B50446614862490978405CC3
:2055600061490978084100F0010524B1012C2AD0022C72D1A5E05D480078222805DA5B48E6
:205580000078401C594908700AE058480078222806D1FEF79BF855480078401C53490870ED
:2055A0005248007823280DDB01205149087000204E49087007204C490870002049490870E6
:2055C0004C4908708AE0002D3CD04A48007838B9FEF772F847480078401C464908706FE008
:2055E00044480078012807D1FEF770F841480078401C4049087063E03E48007802285FD150
:20560000FEF764F800203B49087037480078401E40B235490870084690F90000002807DA00
:2056200030480078401C2F49087007202E4908702C48007830490978884241DD02202C49B3
:2056400008704BE02B48007840B9FEF735F829480078401C2749087032E03EE0254800785F
:20566000012807D1FEF728F822480078401C2149087025E01F480078022821D1FEF726F8E1
:2056800000201C49087018480078401E40B216490870084690F90000002807DA114800785D
:2056A000401C1049087007200F4908700D48007811490978884203DD02200D4908700DE097
:2056C0000CE000200A490870FDF7F6FF00200549087007200449087000E000BF00BF70BDAD
:2056E000B3030020B2030020B1030020AE030020BF030020AF030020B00300200020002192
:20570000264A126842F00102244B1A6000BF401C224A126802F0020111B9B0F5A06FF6D146
:205720001E4A126802F002020AB900BFFEE71B4A52681A4B5A601A4652685A601A465268FE
:2057400042F480625A601A465268154B1A40134B5A601A465268134B1A43104B5A601A4641
:20576000126842F080721A6000BF0C4A126802F00072002AF9D0094A526822F00302074BB5
:205780005A601A46526842F002025A6000BF034A526802F00C02082AF9D17047001002407A
:2057A000FFFFC3DF0000282010B5FFF7A7FF10BD10B5124800684FF47A71B0FBF1F4601E10
:2057C000B0F1807F01D301200FE0601E4FF0E02148610F214FF0FF30FDF74AFF00204FF0A4
:2057E000E021886107200861002008B100BFFEE70021481EFDF73CFF10BD000064040020A7
:20580000CA43026170470246D06800EA01031069084010B10BB1012070470020FCE70000DA
:205820002DE9F04704460D460027B846B94600261D49601A8C421CD006DC1C48204470B1CF
:20584000B0F5806F1FD10FE0B0F5806F16D0B0F56C4F18D10320FFF797FD074614E0022002
:20586000FFF792FD07460FE00220FFF78DFD07460AE00220FFF788FD074605E00220FFF7A7
:2058800083FD074600E000BF00BF07EB5500B0FBF5F64FF6F07006EA000806F00F0948EA23
:2058A0000900A060BDE8F087004C004000BCFFBF01464868C0F308007047C1F308024260F4
:2058C0007047000010B504462049601A8C4228D006DC1F48204490B1B0F5806F33D117E0DC
:2058E000B0F5806F26D0B0F56C4F2CD140F20E30FFF720FE40F20E30FFF70CFE24E040F297
:205900001140FFF717FE40F21140FFF703FE1BE040F21240FFF70EFE40F21240FFF7FAFDBF
:2059200012E040F21340FFF705FE40F21340FFF7F1FD09E040F21440FFF7FCFD40F21440AA
:20594000FFF7E8FD00E000BF00BF10BD004C004000BCFFBFC16841F40051C160704710B5EF
:20596000024602EB9110006801F01F040123A340184008B1012010BD0020FCE70A4600215B
:20598000416921F400711143416170470A460021416921F4807111434161704710B5C1F3E3
:2059A0008912825801F01F040123A3401A43C1F38913C25010BD70B5024600230024C1F363
:2059C0008910105801F01F060125B54000EA050302EB91500068C1F304460125B54000EA6A
:2059E000050414B10BB1012070BD0020FCE7C26822F4C062C260C2680A43C26070470A46A8
:205A00000021C16821F004011143C1607047026922F44052026102690A43026170470A4662
:205A20000021C16821F008011143C1607047C26822F48052C260C2680A43C2607047000052
:205A400000000100F8020020F73800080100010008030020E9380008020001001003002068
:205A6000893C00080300010018030020793C00080400010020030020D938000805000100F6
:205A8000380300200000000006000100000300200000000007000100400300200000000016
:205AA0000800000048030020553C00080900010058030020000000000A00010028030020FF
:205AC000253800080B00010030030020A73800080C00010050030020713800080D000100DC
:205AE00060030020B73800080E000100680300206D3800080F000100700300200000000042
:205B0000100001007803002000000000110001008003002000000000120001008803002066
:205B20000000000013000100900300200000000014000100980300208938000815000100EF
:205B4000A00300201D380008685B0008000000206C04000010270008445D00086C04002052
:205B6000445D0000D83F00080132C5E02EC05D0310D8591A57028102100100FF005EBCE2FC
:205B8000613FDD83C29C7E20A3FD1F419DC3217FFCA2401E5F01E3BD3E6082DC237D9FC111
:205BA000421CFEA0E1BF5D0380DE3C62BEE0025CDF81633D7C22C09E1D43A1FF4618FAA4F9
:205BC00027799BC584DA3866E5BB5907DB856739BAE406581947A5FB7826C49A653BD987D1
:205BE000045AB8E6A7F91B45C6987A24F8A6441A99C7257B3A6486D85B05E7B98CD2306EB9
:205C0000EDB3510F4E10F2AC2F7193CD114FADF3702ECC92D38D6F31B2EC0E50AFF1134D90
:205C2000CE90722C6D33D18F0C52B0EE326C8ED0530DEFB1F0AE4C1291CF2D73CA94762878
:205C4000ABF517490856B4EA6937D58B5709EBB536688AD495CB2977F4AA4816E9B7550B50
:205C600088D6346A2B7597C94A14F6A8742AC896154BA9F7B6E80A54D7896B223543016F5F
:205C80003BD5C3083CFF958308160F95C7011012012302041DBB8041330D12031F010209E7
:205CA00060A01B0B1A040B17076CA5C90106220C1C49C901261104370FB00E2A010429059D
:205CC000B912091128023F80880FC56A290EFBBE5D72C3B9B881FBDD1415FACEB3985D1239
:205CE000ACCD5F140911A039081403F70D10080127BD0103F8101F01B4AF010620153B435C
:205D0000CA083C054209081E07C3C80106201117B96F010310011F07510801033028178B64
:205D20000A0106F0020C16029ACB6001B4130B0713086119E812801B1020E701A544F36F10
:205D400006000000550000202DE9F04107460D462846FCF73FFA00F0FF0809A1384600F038
:205D60000DFC044654B1641C22212046FEF70CF8C6B2324621460348FCF7F6F9BDE8F0810F
:205D8000222B0000EE0F00202DE9F04704460D462846FCF71FFAC6B2A0192221FDF7F4FFDA
:205DA000C7B2062F00DB06271448002101608180A1193A46FCF7D8F91148FCF70BFA804639
:205DC0002846FCF707FAC0F180090C48FCF702FAA9EB0000801E80450BD20948FCF7FAF9D9
:205DE000074900EB0108054B2A4606A1404609F085F802F0E5F8BDE8F0870000E8170020F2
:205E00006E0F002025732573222C000070B500252A480078C008B0B12848007820F0F8001A
:205E20002649087008464078401C487008464078142808DA22480078FEF754F8002142F2C5
:205E4000107008F0B5FA1F48C0881F4908601F4804682DE0601E1E49085C0D2804D108461B
:205E6000005D0A2800D13CB91948005D3E2803D01748005D7D281AD10A2004F083FC601C71
:205E800012490968401A1349086011480F4A1268811811A009F022F80D490C4A12688818C9
:205EA00007490978FEF756FB601C08490860641C054800688442CDD370BD0000D4040020D6
:205EC00054000020080000205800002060000020600700205C00002047534D3A2573000072
:205EE0002DE9F04FA3B081460E46802103A8FCF754F90024A046A24675A14846FCF758F979
:205F00008046B8F1000F1BD0802103A8FCF745F9092270A103A8FCF727F916B103A803F03C
:205F2000EBFA00206E49C1F8F80150216D48FCF734F90DF113020721012003F011FBC3E0AF
:205F40000025002700206649C1F8F80150216548FCF723F964A14846FCF72AF9824600BF17
:205F600035E000272DE000200190029001AA3946284603F09BF810B301A90AF10700FCF715
:205F800017F98046B8F1000F19D001A95548FCF70FF9A0B95248D0F8F80114280FD25048DF
:205FA000D0F8F811D0F8F801401C4D4A01EB4101C2F8F8014B4800EB410001990160781C2D
:205FC000C7B24B48405DB842CDDC681CC5B2052DC7DB802103A8FCF7E0F846A103C9CDE926
:205FE00003013F48D0F8F80130B3002418E003A8FCF7F0F803A900EB010B04EB4401394878
:2060000000EB41023EA1584608F078FF03A8FCF7E1F803A908443CA109780170601CC4B236
:206020002F48D0F8F801A042E1D803A8FCF7D2F8401E03A900220A5403A8FCF7CBF803A98E
:20604000084426A109780170802103A8FCF7A5F85B208DF80C00002415E003A8FCF7BAF8EA
:2060600018280ED203A8FCF7B5F803A900EB010B04EB44011B4800EB410224A1584608F0F2
:206080003DFF601CC4B21648D0F8F801A042E4D81348D0F8F80138B103A8FCF79BF8401E81
:2060A00003A95D220A5405E003A8FCF793F803A95D220A5403AA0721012003F051FA16B1C5
:2060C00003A803F0E7F900BF23B0BDE8F08F00005B5D00002272616D6C223A5B5D000000F2
:2060E00000170020FC1800202272616D6C223A00EC3401082272616D6C223A5B000000005D
:2061000022257322000000002C000000222573222C00000070B504462046FCF75BF885B21D
:206120002946204608F0CAFD03A008F0D7FE214603A008F0D3FE70BD4D43553A000000003C
:20614000257300002DE9F04F93B0804689460020049003900290019000907EA14046FCF7E8
:2061600027F808B1012002904846FCF733F8C0B21290129908EB01002321FDF705FEC0B288
:206180001190202105A8FCF708F8129808EB000405A8109000270EE0E05D202809D0E15DDE
:2061A000109801701098401C10900198401CC0B20190781C87B211988742EDDB6848FCF780
:2061C00009F882464846FCF705F8C0F1800B05A8FCF700F8ABEB0000801E82450DD2029830
:2061E00058B95F48FBF7F6FF5D4900EB010A05AB4A465CA1504608F081FE019814280FDA5C
:20620000029868B95648FBF7E5FF55490844A0F1010A56A1504608F071FE13B0BDE8F08FEE
:206220000198142806DA5748407820F00200801C544948700DF11E0000F0CCF90646002012
:206240008DF81E0005A800F0C5F90546202105A8FBF7A3FFC5208DF821006A208DF82200B7
:2062600029208DF823000E208DF82400FA208DF82500300E8DF82900300C8DF82800300A83
:206280008DF82700F0B28DF82600280E8DF82D00280C8DF82C00280A8DF82B00E8B28DF837
:2062A0002A000DF12104207B8DF83700E07A8DF83600A07A8DF83500607A8DF83400207A24
:2062C0008DF83B00E0798DF83A00A0798DF8390060798DF838002C48DDE90D12C0E9141251
:2062E00006F090FC29480078012810D11C48FBF771FF7A2821D21A48FBF76CFF1849084462
:2063000023A10A6840F8012C0979C17015E01F480078022811D11248FBF75CFF7A280CD228
:206320000F48FBF757FF0E4908441BA10A6840F8012D8A888280897981711448007800901B
:206340006A460C21022003F00BF901F039FE00BF63E700002F636D642F636F6465000000E9
:206360006E0F002025732573222C00006973206E6F7420636F727265637420666F726D616E
:20638000742E20003A020020D8800020B40300202075736522000000206572726F72220095
:2063A0002DE9F04704460D462846FBF713FFC6B2A0192221FDF7E8FCC7B2082F00DB08277B
:2063C000154800218160C160A1193A460830FBF7CBFE1248FBF7FEFE80462846FBF7FAFEAA
:2063E000C0F180090C480830FBF7F4FEA9EB0000801E80450CD20948FBF7ECFE074900EBB6
:206400000108054B08332A4605A1404608F076FD01F0D6FDBDE8F0870E1800206E0F00201E
:2064200025732573222C000070B51648FBF7D2FE0446224613491448FBF796FE3C211348F1
:20644000FBF7ABFE1248FBF7C5FE0446224610490E48FBF789FE0C48FBF7BCFE05460B481A
:20646000FBF7B8FE094944182A4607492046FBF77BFE0648FBF7AEFE0449084405A1098879
:20648000018070BDD88000201A100020D61000202C2E01082F23000070B5A2B0044680216F
:2064A00002A8FBF77AFE14212A48FBF776FE2A48FBF790FE05462A4627492648FBF754FEEC
:2064C00080212648FBF769FE2548FBF783FEB0B12348FBF77FFE282811D22248204B224AC5
:2064E00022A1009002A808F009FD02A8FBF772FE05462A4602A91948FBF736FE0EE0194B56
:20650000194A1CA102A808F0F9FC02A8FBF762FE05462A4602A91148FBF726FE0D48FBF7AC
:2065200059FE06460D48FBF755FE0C494518324608492846FBF718FE4CB10848FBF74AFEA6
:206540000649451822460AA1284608F0D7FC22B070BD00001A100020D880002056100020FC
:20656000AC190020552E01081C2E0108257325732573000025732573000000002DE9F04712
:2065800006460F46124800881FFA80F93846FBF721FE1FFA80F8002513E0002407E0281962
:2065A000305C395D884200D003E0601C84B24445F5DB00BF444502D17019BDE8F087681CED
:2065C00085B2A9EB0800A842E7DC0020F5E700005C0000202DE9F041054600242846FBF7AD
:2065E000F9FDC7B2002600BF0EE0285D302802DB285D392800DD09E006EB86004600285DB1
:2066000030380644601CC4B2BC42EEDB00BF3046BDE8F0812DE9F84F82460C465046FBF7C5
:20662000D9FD8346002500260020009000274FF00308814600BF2FE01AF8090019490D5CD4
:20664000FF2D01D100202070FD2D00D122E0FE2D02D10025A8F1010845EA86160098401C0B
:206660000090042815D1C6F3074238467F1C2254B8F1010F04DDC6F3072238467F1C2254DC
:20668000B8F1020F02DD38467F1C265400200646009000BF09F10109D945CDDBB8B2BDE83A
:2066A000F88F0000A046010870470000F0B5A3B0002500201A900026002719906A4C2021D9
:2066C00011A8FBF76AFD20211BA8FBF766FD00F0F1F81AAA1BA9204600F034FA00286FD003
:2066E0009DF8680000286CD060480078401F09282BD2DFE800F0052B3E5167737A8D9200A3
:206700009DF86800202808DA1BAA59A101A808F0F5FB5BA101A8FFF715FD5D48007828B957
:2067200020221BA95B48FBF71FFD00E000BF5848007858497C3981F864011A204B49087071
:2067400055490870642004F01DF879E051487C38BDF86C10A0F89C1019AA0121084602F056
:2067600013FCBDF864004D49C1F8D00101F028FC66E048487C38BDF86C10A0F89E1019AAF8
:206780000221012002F000FCBDF864004349C1F8D40101F015FC53E020221BA93D48243080
:2067A000FBF7E2FC20213D486830FBF7F6FC3B4A68320321012002F0E7FB01F001FC3FE082
:2067C00050E03EE033487C38BDF86C10A0F89E10FF2228213248FBF7D9FC31E020221BA903
:2067E0002C484630FBF7C0FC2AE02A487C38BDF86C10A0F8E21019AA0621012002F0C4FB5A
:20680000BDF86400254981F8C40101F0D9FB17E000211BA8FFF764FB12E01E487C38BDF8FD
:206820006C10A0F8041119AA0821012002F0ACFBBDF864001949C1F8DC0101F0C1FB00BF0C
:2068400000BF4FF480710848FBF7A7FC00201549C880054808600548007800F059F864205B
:2068600003F090FF23B0F0BD92110020A60000202F636D642F636F64652F22257322000055
:206880002F636D642F636F64652F222A30000000B4030020AE740020A90000200017002007
:2068A0000A740020000000200120014908707047A700002010B500241248007808B31248E9
:2068C000008820B110480088401E0F4908800E48008840B90D48007800F01AF800210B4827
:2068E000007803F045F809480078401C0749087008460078282801DD00200870002001490D
:20690000087010BDA7000020AC000020A900002070B588B004460025002620216846FBF703
