:020000040800F2
:20000000B81C002045010008D1070008A10500084D07000855020008A50D0008000000009B
:20002000000000000000000000000000190800087102000800000000090800081B080008D8
:200040005F0100085F0100085F0100085F0100085F0100085F0100085F0100085F01000860
:200060005F0100085F0100085F0100085F0100085F0100085F0100085F0100085F01000840
:200080005F0100085F0100085F0100085F0100085F0100085F0100085F0100085F01000820
:2000A0005F0100085F0100085F0100085F0100085F0100085F0100085F0100085F01000800
:2000C0005F0100085F0100085F0100085F0100085F010008D10B0008210C0008710C00087A
:2000E0005F0100085F0100085F0100085F0100085F0100085F0100085F0100085F010008C0
:200100005F0100085F0100085F0100085F010008310B0008810B00085F0100085F01000897
:200120005F0100085F0100085F0100085F010008DFF80CD000F03CF800480047311400086C
:20014000B81C00200648804706480047FEE7FEE7FEE7FEE7FEE7FEE7FEE7FEE7FEE7FEE70F
:20016000290800083101000840EA01039B0703D009E008C9121F08C0042AFAD203E011F8D0
:20018000013B00F8013B521EF9D27047D2B201E000F8012B491EFBD270470022F6E710B5C5
:2001A00013460A4604461946FFF7F0FF204610BD064C074D06E0E06840F0010394E807004A
:2001C00098471034AC42F6D3FFF7B6FF001C0008201C000870B58C1810F8015B15F00703F6
:2001E00001D110F8013B2A1106D110F8012B03E010F8016B01F8016B5B1EF9D12B0705D499
:200200000023521E0DD401F8013BFAE710F8013BCB1A921C03E013F8015B01F8015B521E6E
:20022000F9D5A142D8D3002070BD000001490120087170473C0000207047000001490120FC
:20024000487070474800002001490120087070474E000020FEE70000014901204870704700
:200260005000002001490120C8707047600100207047000003484EF66021D0F8B001484368
:2002800070470000740300200148D0F8D40170477403002003484FF47A71D0F8D00148433F
:2002A00070470000740300200448D0F8AC0118B14EF66021484370470148704774030020C8
:2002C000E09304000B4810B50178002910D00021017000F08FFA014668220748FFF744FFA9
:2002E000BDE81040044A4FF41671002000F006B810BD0000AF010020740300202DE9F041A8
:20030000002416460D4680464F090CE008EB441081B206EB44132022A02000F048F90520E6
:2003200000F0F2F8641CBC42F0D3E8060BD008EB441006EB441305F01F02BDE8F04181B22B
:20034000A02000F034B9BDE8F0812DE9F041074600F086FF40F20534204600F01BFF651E83
:20036000284600F017FFE61E304600F013FF384600F032FF204600F00DFF284600F00AFF25
:20038000304600F007FFBDE8F04100F011BF00002DE9F04715460F46064600F061FF00249E
:2003A00040F205384FF4417940F2023A19E000BF55F8241006EB840000F06EFF55F82400E7
:2003C00056F82410884202D00020BDE8F087404600F0E0FE484600F0DDFE504600F0DAFEB8
:2003E000641CBC42E4D300F0E3FE0120EDE7000010B5002305E000BF50F8234042F823402E
:200400005B1C8B42F8D310BD0148807970470000B001002001490120C8717047B00100200A
:200420002DE9F04140F2026001F018F940F2036001F014F940F2046001F010F940F2056025
:2004400001F00CF92E4E4FF4005301221421304600F098FF4FF4804301221421304600F07B
:2004600091FF4FF40044234601221421304600F089FF244F01231A461021384600F082FF9F
:20048000022301221021384600F07CFF102301221946304600F076FF8023012210213046FD
:2004A00000F070FFE5112B4601221021304600F069FF234601221021384600F063FF2B4656
:2004C00001221021384600F05DFF01228021304600F052FF01222946304600F04DFF01221C
:2004E0000221384600F048FF01221021304600F043FF21463846BDE8F041012200F03CBF5F
:20050000001001400008014004490A68431C00D0401C0B689B1A8342FBD37047AC020020B7
:200520002DE9F0411C480168491C01601B4E002505EB450706EB870461684868C0B10A782F
:20054000D20723D06288012A16D1401E486061680ED1087820F0F80008300870616882079B
:2005600002D420F001000870A16809B16068884760680078C00709D0608838B936F82700B4
:20058000082803D1A16809B1606888476D1CEDB2152DCDD3BDE8F081AC020020F0180008FF
:2005A000FEE70020401CC0B23228FBD3704770B51D4614460E4600F069F8A8B1300A00F07F
:2005C00017F888B1F0B200F013F868B106E015F8010B00F00DF838B1641EA4B2002CF6D175
:2005E00000F08AF8012070BD00F086F8002070BD2DE9F041244E074680244FF47A753C4226
:2006000001D0012200E000228021304600F0B4FEFFF7C7FFFFF7C5FF01224021304600F0CB
:20062000ABFEFFF7BEFF00224021304600F0A4FEFFF7B7FF6408E2D1012280213446304654
:2006400000F09AFEFFF7ADFF01224021204600F093FEFFF7A6FF8021204600F0DEFE18B1CE
:200660006D1E2D042D0CF6D1FFF79BFF00224021204600F081FEFFF794FF15B10120BDE8C1
:20068000F0810020FBE70000000C014070B5194D06464FF47A7401228021284600F06CFE06
:2006A000FFF77FFF01224021284600F065FEFFF778FF4021284600F0B0FE18B9641E24042C
:2006C000240CF6D1FFF76DFF94B100228021284600F052FEFFF765FF00224021284600F0D0
:2006E0004BFEFFF75EFF3046BDE87040FFF780BF002070BD000C014010B50C4C00228021E4
:20070000204600F039FEFFF74CFF01224021204600F032FEFFF745FF01228021204600F0AD
:200720002BFEBDE81040FFF73CBF0000000C01400248C079002800D001207047BC0100202D
:200740000149887170470000BC010020FEE700000249CA7860F34102CA707047CA010020DE
:200760000248C078C0F3400070470000CA0100200149012008707047C8010020054AD17847
:2007800060F3000121F0FC00D0700120911E087070470000CA010020094906230122C878F0
:2007A000B3EB900F04D902EB900363F3870001E020F0FC00C8700248801E0270704700008C
:2007C000CA0100200149887070470000B001002070470907090E002806DA00F00F0000F18E
:2007E000E02080F8141D704700F1E02080F8001470470000004870474C0600200149012089
:2008000048707047D001002070470000014902200870704750020020704710B500F070FCDC
:20082000BDE81040FFF77CBE214808B5016841F00101016001688907FCD5416841F080014B
:20084000416000210091009A521C0092502AFAD3426842F0900242600091491C0091502954
:20086000FBD3416821F003014160026811490A4002604268104B1A40426002680A400260C4
:20088000026822F48022026042680C4B1A40426002680A4002604FF41F01816000F008FF86
:2008A000BDE8084000214FF0006000F061BE000000100240FFFFF6FE0C00FFE8FFFF00F750
:2008C00010B50178002221F0010101700121074800F052FD0120FFF751FF05484FF4FA6231
:2008E0000178426041F00301017010BD000C0140E80200207047000010B50020FFF720FF62
:2009000001490020087010BD4C02002010B50446FFF7C0FC6060FFF777FD002808D0FFF7D9
:20092000B3FC002804D0BDE810400520FFF74ABF10BD4FF4FA614160FFF72EBF10B54FF4FC
:20094000C8714160FFF70CFF30B10020FFF700FFBDE81040FFF70CBF0120F7E74FF47A71E3
:200960004160FFF771BC64214160FFF775BC10B50446FFF799FC6060FFF748FFFFF74AFD92
:20098000BDE810404FF4FA60AFF3008004494860087820F0F80040F00100087070470000C6
:2009A000F802002070B54D4C207840F003002070FFF77AFC60602078002220F0F800207086
:2009C00004F1400064250178426021F0FB01017030384FF47A720178456021F0F80141F0D0
:2009E00003010170083004F1180100784D6020F0F80040F00300087001F1080008310078B9
:200A00004D6020F0F80040F00300087001F1080058340178426021F0F80141F00301017025
:200A2000207820F0020040F001002070FFF722FC60602078002220F0F8002070A4F1280068
:200A400038340178426021F0FB01017008300178426021F0FB01017018300178426021F04C
:200A6000FB010170103047F230520178456021F0F80141F00301017008300178426021F0DC
:200A8000FB010170083042F210720178426021F0FB01017008300178426021F0FB01017091
:200AA00008300F4A0178426021F0FB010170083043F698220178426021F0FA0141F0010187
:200AC0000170207840F003002070FFF7E3FB6060207820F0F800207070BD0000B002002087
:200AE000A0BB0D0010B504460078C0070AD0FFF71FFE002806D060684FF6FF71884201D23B
:200B0000401C606010BD4FF47A714160FFF776BE10B504464FF47A706060FFF7A3FBFFF76D
:200B200085FB4FF496706060BDE81040FFF786BB70B5104D0E49284600F09FFE88B10E4C99
:200B4000206870B1284600F03DFEE18822680A44491CE1801070E088A188884201D300207D
:200B6000E0802846BDE87040044900F086BE000005030500004C00402800002007030700DF
:200B800070B5104D0E49284600F077FE88B10E4C206870B1284600F015FEE18822680A44BB
:200BA000491CE1801070E088A188884201D30020E0802846BDE87040044900F05EBE000024
:200BC0000503050000500040300000200703070070B5104D0E49284600F04FFE88B10E4C00
:200BE000206870B1284600F0EDFDE18822680A44491CE1801070E088A188884201D300202E
:200C0000E0802846BDE87040044900F036BE000005030500003801401000002007030700B9
:200C200070B5104D0E49284600F027FE88B10E4C206870B1284600F0C5FDE18822680A44BB
:200C4000491CE1801070E088A188884201D30020E0802846BDE87040044900F00EBE0000D3
:200C60000503050000440040180000200703070070B5104D0E49284600F0FFFD88B10E4CD4
:200C8000206870B1284600F09DFDE18822680A44491CE1801070E088A188884201D30020DD
:200CA000E0802846BDE87040044900F0E6BD0000050305000048004020000020070307004B
:200CC00010B500221146272000F004FC40F2036000F0C4FC40F2127000F0C0FC0A4C4FF461
:200CE000806303221821204600F04CFBE31403220421204600F046FBBDE810404FF416519F
:200D0000024800F01FB80000000C0140004800402DE9F0410E4607460024094D0BE0395D0A
:200D2000284600F053FD0721284600F084FD0028F9D0641CA4B2B442F1D3BDE8F081000067
:200D40000048004070B50C46054600F043FD2146284600F00BFD0021284600F0C1FD0021EE
:200D6000284600F0AFFD0021284600F09DFD0021284600F071FD0021284600F067FD04215B
:200D8000284600F099FD0821284600F0A3FD284600F04CFD2846BDE87040014900F062BD75
:200DA00005030500FEE7000070B5074800254FF40074057021460548FFF7EFF90448C58059
:200DC00084800249016070BD58030020B4060020200000202DE9F04F864F002585B0F8889D
:200DE0002E46854C4FF4007A4FF0020B2070DFF80C92A8464FE000BF19F805205A2A48D1F1
:200E000009EB050002904078012842D102984079FA28A1EB050020D00A283AD3029804215F
:200E2000001D00F0FFFA0299754A0B6813604B6853600989118181422BD1554651466F483A
:200E4000FFF7ABF984F8008084F801B00126A7F80680BD80C7F8009020E0942819D30298B5
:200E60000421001D00F0DEFA019002988021103000F0D8FA0490942261480299FFF774F9A9
:200E80005F4901980A89824203D1B1F892100498D1E76D1CEDB221788D42ADD36078032834
:200EA00066D2DFE800F065650200002E60D05248534D1430017821F00101017028790028D5
:200EC00056D0012854D0022852D1687948F20117F72816D006DC05284AD2DFE800F04949A6
:200EE00049490C00474EF838052841D2DFE800F01014264354000520FFF706FB4FF4004216
:200F000003E00520FFF700FB3A460121F72057E001213A46F82053E05FF0000506EB852011
:200F2000FFF713FAAD1CEDB2642DF7D305206660FFF7EAFA01221146F92041E06889304A07
:200F4000810810326068FFF723FA48B101221146FA2000F061F8688961680844606004E06B
:200F600000220121FA2000F057F8E868C4E9020805B0BDE8F08FE068234A20213044FFF794
:200F800037FA21498020103901224881E06811468030E060FB2013E04FF01A30164A1B4DF3
:200FA0002061103204212846FFF7F2F90A20FFF7ABFA28682169884207D000220121FC201A
:200FC00005B0BDE8F04F00F027B801221146FC2000F022F80A20FFF797FA71B6BFF34F8FA1
:200FE0000B4801680B4A01F4E06111430160BFF34F8FFEE72000002058030020B4060020EB
:20100000B40A002000200008C4080020C0FC03080CED00E00400FA0570B505462048224CF5
:20102000032985701F4822D00168216041686160008920816571E2800421201D00F0F2F943
:2010400020810520FFF760FAFB2D20D00A211648FFF75EFE4FF4007421461448FFF79DF882
:2010600013480021C18084801049016070BD50F80A1F216041686160008920810820E072C8
:2010800065710221201D00F0CDF9E080D9E706488021103000F0C6F9A4F892009421D6E7C6
:2010A00058030020EC190008B4080020B40600202000002002E008C8121F08C1002AFAD111
:2010C00070477047002001E001C1121F002AFBD17047000070B54FF6FF75074E08E0040AD8
:2010E00005EA002311F8010B604036F810005840521E92B2F3D270BD001A000870470000D4
:2011000003480168002902D00168491E016070473800002000B5034600F008F85B1E012850
:2011200002D1002BF8D1042000BD000008490020CA68D20701D001207047CA68D20601D502
:2011400003207047C9684907FBD50220704700000020024000B5034600F008F85B1E012899
:2011600002D1002BF8D1042000BD000008490020CA6CD20701D001207047CA6CD20601D5BA
:2011800003207047C96C4907FBD502207047000000200240054901EB90110A6800F01F0386
:2011A0000120984002430A6070470000002002400748016941F08001016106490988B1F51B
:2011C000007F03D9016D41F0800101657047000000200240E0F7FF1F70B505461D481E4CE1
:2011E0004FF470260088B0F5007F02D91B48854215D23046FFF78EFF00280FD1206940F0C4
:20120000020020616561206940F0400020613046FFF780FF216921F00201216170BD30465D
:20122000FFF798FF0028F9D1206D40F0020020656565E069800700D56561206D40F04000B9
:2012400020653046FFF786FF216D21F00201216570BD0000E0F7FF1F00200240FFFF07085F
:2012600009480169094A0B06094901D542604160084B1B88B3F5007F04D9036D1B0601D583
:2012800042644164704700000020024023016745AB89EFCDE0F7FF1FF0B505461748184C82
:2012A0000E4600884FF47027B0F5007F02D91548854211D23846FFF72DFF00280BD1206945
:2012C00040F0010020612E603846FFF723FF216921F001012161F0BD3846FFF73BFF002896
:2012E000F9D1206D40F0010020652E603846FFF731FF216D21F001012165F0BDE0F7FF1FE6
:2013000000200240FFFF070830B5124A104B45F255551C461560D568641E05F0010502D07E
:20132000002DF8D100E04DB95160D1685B1E01F0020102D00029F8D102E009B1002030BD0D
:20134000C0F30B0090604AF6AA201060012030BDFFFF0F000030004002494AF6AA2008601D
:20136000704700000030004002494CF6CC40086070470000003000400AB1016170474161A8
:20138000704700002DE9F04301F00F04CD0600D5144300254FF00F095FF0010202FA05F685
:2013A0001E4014D007684FEA850C09FA0CF827EA080704FA0CF848EA0708282902D04829B4
:2013C00002D002E0466100E00661C0F800806D1CADB2082DE2D3082502FA05F61E4016D0F9
:2013E00047684FEA8508A8F1200809FA08FC27EA0C0704FA08FC4CEA070C282902D04829AD
:2014000002D002E0466100E00661C0F804C06D1CADB2102DE0D3BDE8F0838068084000D0BE
:20142000012070470A4601460020FFF753BE00001D4801681D48C160C168B1F11A3F0ED1BF
:201440001B490A681B4B1A40B2F1005F07D14A68826082684260086880F308889047FEF7BD
:20146000DFFFFFF72DFC062140F6B830FFF74CFFFFF77AFFFFF796FA00F058F9FEF7DCFEE4
:2014800000220DA110A0FFF739FE002201211048FFF772FFFFF788FCFFF75EFFFFF79AFC43
:2014A000FEF710FFF8E70000C0FC030800000020002000080000FE2F73797374656D2072D6
:2014C00065736574000000006D61696E000000000008014070B505461F4800240E460068B6
:2014E000234600F4E0614FF4A06081420FD006DCB1F5407F16D0B1F5806F06D10FE0B1F53B
:20150000C06F09D0B1F5E06F04D000F027F80224234608E0042306E00124032303E0032412
:20152000012300E00424C4F104008640C3F104010F20C8401040304305F1E021000181F8DC
:20154000000405F01F01012088406909890001F1E021C1F8000170BD0CED00E00249084345
:2015600002490860704700000000FA050CED00E0034A1140014303480160BFF34F8F704754
:2015800080FFFF1F08ED00E070B52EA588B02ECD8DE82E002CA22F4BD2E90012CDE904122A
:2015A00029A20446D2E90012CDE9061259680020C1F381022849FAB1012A1DD0022A1BD117
:2015C0005A6802F480354A10B5F5803F05D15D6805F40035B5F5003F00D111465A685D687A
:2015E000C2F383422D0101D542F010020F2A01D2921C00E0521C51435A68C2F303121DF8EC
:20160000025021FA05F25D6804AEC5F302255B68755D22FA05F5C3F3C22306AEF35C22FAAB
:2016200003F344B1012C08D0022C08D0032C00D1184608B070BD0846FBE71046F9E728469D
:20164000F7E70000000000000000000001020304060708090010024000127A00054901EB6C
:2016600090110A6800F01F030120984002430A607047000000100240054901EB90110A6847
:2016800000F01F030120984082430A607047000000100240054901EB90110A6800F01F03A8
:2016A0000120984002430A6070470000001002401B480021026842F0010202604FF4A063AE
:2016C0000268491C12F0020F01D19942F8D10168890700D4FEE741684160416841604168C3
:2016E00041F48061416041680E4A1140416041680D4A11434160016841F0807101600168F6
:201700008901FCD5416821F003014160416841F0020141604168C1F381010229FAD1704705
:2017200000100240FFFFC3F70000040870B50E484FF47A710068B0FBF1F0401EB0F1807FF8
:2017400011D24FF0E024606165170F212846FFF740F80020A061072020612846BDE87040CE
:201760000021FFF736B8FEE77003002070B5134B04460D460020E11A1A159C421BD005DCD8
:201780000F49611817D0914208D114E0914212D0B1F56C4F02D10320FFF7F6FE00EB5500BB
:2017A000B0FBF5F14FF6F07201EA020001F00F010843A06070BD0220EEE70000004C004008
:2017C00000BCFFBF4068C0F308007047C1F3080141607047134B10B5C21A1915984213D076
:2017E00007DC114A80180CD088421AD140F212440FE08A420BD0B2F56C4F12D140F20E34AB
:2018000007E040F2114404E040F2134401E040F214442046FFF73EFF2046BDE81040FFF798
:201820002BBF10BD004C004000BCFFBFC16841F40051C160704700EB9110006801F01F025E
:2018400001219140084000D001207047426922F400720A4342617047426922F480720A43CB
:201860004261704710B5C1F38912835801F01F040121A1400B43835010BD10B5C1F3891206
:20188000835800EB915001F01F04012202FA04F400682340C1F304418A40104202D00BB108
:2018A000012010BD002010BDC26822F4C062C260C2680A43C2607047C26822F004020A43EA
:2018C000C2607047026922F44052026102690A4302617047C26822F008020A43C26070477B
:2018E000C26822F48052C260C2680A43C260704700000100B00200206F090008010001000F
:20190000C00200206709000802000100C8020020110B000803000100D0020020070B00084C
:2019200004000100D80200205D09000805000100F00200200000000006000100B802002041
:201940000000000007000100F8020020000000000800000048030020E50A000809000100F1
:2019600008030020000000000A000100E0020020C10800080B000100E80200203309000804
:201980000C00010000030020F90800080D000100100300203D0900080E0001001803002035
:2019A000F50800080F00010020030020000000001000010028030020000000001100010061
:2019C0005003002000000000120001003003002000000000130001003803002000000000BF
:2019E00014000100400300200D0900085A0004000101000000005A00020003010000000091
:201A000000002110422063308440A550C660E770088129914AA16BB18CC1ADD1CEE1EFF1C6
:201A20003112100273325222B5529442F772D662399318837BB35AA3BDD39CC3FFF3DEE386
:201A40006224433420040114E664C774A44485546AA54BB528850995EEE5CFF5ACC58DD546
:201A60005336722611163006D776F6669556B4465BB77AA719973887DFF7FEE79DD7BCC706
:201A8000C448E5588668A7784008611802282338CCC9EDD98EE9AFF9488969990AA92BB9C6
:201AA000F55AD44AB77A966A711A500A333A122AFDDBDCCBBFFB9EEB799B588B3BBB1AAB86
:201AC000A66C877CE44CC55C222C033C600C411CAEED8FFDECCDCDDD2AAD0BBD688D499D46
:201AE000977EB66ED55EF44E133E322E511E700E9FFFBEEFDDDFFCCF1BBF3AAF599F788F06
:201B00008891A981CAB1EBA10CD12DC14EF16FE18010A100C230E3200450254046706760C5
:201B2000B9839893FBA3DAB33DC31CD37FE35EF3B1029012F322D232354214527762567285
:201B4000EAB5CBA5A89589856EF54FE52CD50DC5E234C324A0148104667447642454054445
:201B6000DBA7FAB79987B8975FE77EF71DC73CD7D326F2369106B016576676761546345605
:201B80004CD96DC90EF92FE9C899E9898AB9ABA94458654806782768C018E1088238A328C5
:201BA0007DCB5CDB3FEB1EFBF98BD89BBBAB9ABB754A545A376A167AF10AD01AB32A923A85
:201BC0002EFD0FED6CDD4DCDAABD8BADE89DC98D267C076C645C454CA23C832CE01CC10C45
:201BE0001FEF3EFF5DCF7CDF9BAFBABFD98FF89F176E367E554E745E932EB23ED10EF01E05
:201C0000201C00080000002074030000D4010008C81D00087403002044190000C41000084F
:201C2000014243E02E723E02100100FF005EBCE2613FDD83C29C7E20A3FD1F419DC3217F56
:201C4000FCA2401E5F01E3BD3E6082DC237D9FC1421CFEA0E1BF5D0380DE3C62BEE0025C98
:201C6000DF81633D7C22C09E1D43A1FF4618FAA427799BC584DA3866E5BB5907DB85673970
:201C8000BAE406581947A5FB7826C49A653BD987045AB8E6A7F91B45C6987A24F8A6441A58
:201CA00099C7257B3A6486D85B05E7B98CD2306EEDB3510F4E10F2AC2F7193CD114FADF330
:201CC000702ECC92D38D6F31B2EC0E50AFF1134DCE90722C6D33D18F0C52B0EE326C8ED018
:201CE000530DEFB1F0AE4C1291CF2D73CA947628ABF517490856B4EA6937D58B5709EBB5F0
:201D000036688AD495CB2977F4AA4816E9B7550B88D6346A2B7597C94A14F6A8742AC896D7
:201D2000154BA9F7B6E80A54D7896B021C35130106220C3549C90104160FB00E01101201EE
:201D40001A020D1DBB8041330D12031F01020960A01B0B1A040B5D076CA5C939B94601215A
:201D6000023F80880FC56A290EFBBE5D72C3B9B881FBDD1415FACEB3985D12ACCD5F1439C0
:201D80008E998F150103F70D1F0127BD0103F8DA1EB4AF010620153B43CA083C05420908F5
:201DA0001E07C3C80106201117B96F010310011F07510801033028178B0A0106F00204CD96
:201DC000029ACB0400A24A04FFFFFFFFFFFFFFFFFFFFFFFFFFFFFFFFFFFFFFFFFFFFFFFFC0
:201DE000FFFFFFFFFFFFFFFFFFFFFFFFFFFFFFFFFFFFFFFFFFFFFFFFFFFFFFFFFFFFFFFF03
:201E0000FFFFFFFFFFFFFFFFFFFFFFFFFFFFFFFFFFFFFFFFFFFFFFFFFFFFFFFFFFFFFFFFE2
:201E2000FFFFFFFFFFFFFFFFFFFFFFFFFFFFFFFFFFFFFFFFFFFFFFFFFFFFFFFFFFFFFFFFC2
:201E4000FFFFFFFFFFFFFFFFFFFFFFFFFFFFFFFFFFFFFFFFFFFFFFFFFFFFFFFFFFFFFFFFA2
:201E6000FFFFFFFFFFFFFFFFFFFFFFFFFFFFFFFFFFFFFFFFFFFFFFFFFFFFFFFFFFFFFFFF82
:201E8000FFFFFFFFFFFFFFFFFFFFFFFFFFFFFFFFFFFFFFFFFFFFFFFFFFFFFFFFFFFFFFFF62
:201EA000FFFFFFFFFFFFFFFFFFFFFFFFFFFFFFFFFFFFFFFFFFFFFFFFFFFFFFFFFFFFFFFF42
:201EC000FFFFFFFFFFFFFFFFFFFFFFFFFFFFFFFFFFFFFFFFFFFFFFFFFFFFFFFFFFFFFFFF22
:201EE000FFFFFFFFFFFFFFFFFFFFFFFFFFFFFFFFFFFFFFFFFFFFFFFFFFFFFFFFFFFFFFFF02
:201F0000FFFFFFFFFFFFFFFFFFFFFFFFFFFFFFFFFFFFFFFFFFFFFFFFFFFFFFFFFFFFFFFFE1
:201F2000FFFFFFFFFFFFFFFFFFFFFFFFFFFFFFFFFFFFFFFFFFFFFFFFFFFFFFFFFFFFFFFFC1
:201F4000FFFFFFFFFFFFFFFFFFFFFFFFFFFFFFFFFFFFFFFFFFFFFFFFFFFFFFFFFFFFFFFFA1
:201F6000FFFFFFFFFFFFFFFFFFFFFFFFFFFFFFFFFFFFFFFFFFFFFFFFFFFFFFFFFFFFFFFF81
:201F8000FFFFFFFFFFFFFFFFFFFFFFFFFFFFFFFFFFFFFFFFFFFFFFFFFFFFFFFFFFFFFFFF61
:201FA000FFFFFFFFFFFFFFFFFFFFFFFFFFFFFFFFFFFFFFFFFFFFFFFFFFFFFFFFFFFFFFFF41
:201FC000FFFFFFFFFFFFFFFFFFFFFFFFFFFFFFFFFFFFFFFFFFFFFFFFFFFFFFFFFFFFFFFF21
:201FE000FFFFFFFFFFFFFFFFFFFFFFFFFFFFFFFFFFFFFFFFFFFFFFFFFFFFFFFFFFFFFFFF01
:20200000A08700204521000861AC0008B59D00088DA50008216E0008D1D80008000000001A
:2020200000000000000000000000000051C90008997C0008000000006DBD000849CC000812
:202040005F2100085F2100085F2100085F2100085F2100085F210008F57F00085F2100084C
:202060005F2100085F2100085F2100085F2100085F2100085F2100085F2100085F21000820
:202080005F2100085F2100085F2100085F2100088DD500085F2100085F2100085F2100081E
:2020A0005F2100085F2100085F2100085F21000829CD00085F2100085F2100085F2100086A
:2020C0005F2100085F2100085F2100085F2100085F21000875D40008CDD400082DD5000854
:2020E0005F2100085F2100085F2100085F2100085F2100085F2100085F2100085F210008A0
:202100005F2100085F2100085F2100085F210008B5D3000815D400085F2100085F2100080E
:202120005F2100085F2100085F2100085F210008DFF80CD000F04CFC0048004719F00008F4
:20214000A08700200648804706480047FEE7FEE7FEE7FEE7FEE7FEE7FEE7FEE7FEE7FEE79C
:2021600055CC00083121000840EA01039B0703D009E008C9121F08C0042AFAD203E011F8A0
:20218000013B00F8013B521EF9D27047D2B201E000F8012B491EFBD270470022F6E710B5A5
:2021A00013460A4604461946FFF7F0FF204610BD30B505462A460B4612F8010B13F8014B57
:2021C00008B1A042F8D01CB1002802D06D1CF1E7284630BD421C10F8011B0029FBD1801A08
:2021E000704710B5002200E0521C835C8C5CA34201D1002BF8D1D8B2E1B2401A10BD70B518
:2022000006460BF08BFB046805460A220021304600F0E2FA2C6070BD70B506460BF07EFB0D
:20222000046805460A220021304600F0D5FA2C6070BD2DE9FE4F804681EA0300C00F0C46F4
:20224000009021F0004123F00045B8EB0200A94105D24046214690461C460B46024623F00D
:202260000040104347D0270DC7F30A00C3F30A510290401A019040286BDAC3F3130040F484
:20228000801B0098924620B10023D2EB030A63EB0B0B01985946C0F14002504600F01DFA49
:2022A00006460D4650465946019A00F035FA10EB08006141002487EA115284EAE7731A43CE
:2022C00040D0009A62B3019A012A4FEA075215DC001B61EB02014FF0004202EA0752CDE910
:2022E0000042001C41F5801132462B4600F0F2FA03B0BDE8F08F40462146F9E7001B61EBE9
:202300000201001C41F5801300185B412018A2F5001747EB030140EAD570B6196D4111E028
:202320006D084FEA360645EAC0754FEA0752001B61EB0201001C41F5801149084FEA3000B6
:202340000019514132462B4603B0BDE8F04F00F0B2BA0098012240000023D0EB020263EBCB
:20236000E073009821464FEAE074B8EB000061EB0401E9E783F000435BE781F0004158E7D1
:202380002DE9FE4F81EA030404F0004421F0004100944FF0000B23F0004350EA01045ED03D
:2023A00052EA03045BD0C3F30A54C1F30A552C44A4F2F3340194A0FB0254C1F3130141F4D8
:2023C0008011C3F3130343F4801301FB024400FB034E840A970A44EA815447EA8357A4FB6C
:2023E000076802958D0A05FB07854FEA932C04FB0C542705029D4FEA065847EA1637B5EBDD
:2024000008056EEB070C870E920E47EA811742EA8312A7FB0201B6EB0B0164EB00042B0DA7
:2024200043EA0C335E1844EB1C50DA465146E7FB0201C5F313044FEA0B3343EA14534FEA70
:202440000432019C43EA0603A4F10C040294009CCDE900B400F03EFA03B0BDE8F08F002013
:202460000146F9E72DE9F04D81EA030404F0004B21F0004514464FF0000A23F0004150EAAA
:20248000050220D054EA01021DD0C5F30A570246C5F31303C1F31300C1F30A5640F4801544
:2024A00043F48013A7EB0608101BD64608F2FD3873EB050002D308F1010801E092185B41DB
:2024C000B8F1000F03DA00200146BDE8F08D00204FF48011064684460EE0171B73EB05074A
:2024E00005D3121B63EB050306434CEA010C49084FEA300092185B4150EA0107EDD152EAB9
:20250000030012D082EA040083EA0501084305D0101BAB4106D20122002306E000224FF057
:20252000004302E06FF0010253101AEB06004CEB085110EB0A0041EB0B01BDE8F04D00F007
:20254000BAB90EB5C10F80EAE0700844CA07002140F233438DE80E000A460B4600F0BAF90E
:2025600003B000BD0EB540F2334102910021CDE900110A460B4600F0ADF903B000BD70B53B
:20258000C1F30A5201F000450024C1F3130140F2FF3341F480119A4201DA002070BD40F2A9
:2025A00033439A42A2F2334203DC524200F0A4F800E090402C43F1D0404270BDC1F30A5222
:2025C00010B5C1F3130140F2FF3341F480119A4201DA002010BD40F233439A42A2F2334213
:2025E00003DC524200F088F810BD904010BD00F0004230F000400AD0C10D01F56071C0F3DA
:20260000160042EA0151C20840071143704700200146704701F0004330B421F0004150EA48
:20262000010206D00A0DA2F56072C1F31301002A02DC30BC00207047440F44EAC104C100A7
:20264000E01830BC00EBC25000F0FEB830B50B46014600202022012409E021FA02F59D4215
:2026600005D303FA02F5491B04FA02F52844151EA2F10102F1DC30BD2DE9F05F0546002076
:2026800092469B4688460646814640241BE0284641464746224600F02FF853465A46C01A2D
:2026A000914110D311461846224600F016F82D1A67EB01084F4622460120002100F00DF874
:2026C00017EB00094E41201EA4F10104DFDC484631462A464346BDE8F09F202A04DB203A18
:2026E00000FA02F1002070479140C2F1200320FA03F3194390407047202A04DB203A21FADE
:2027000002F00021704721FA02F3D040C2F120029140084319467047202A06DBCB17203A61
:2027200041FA02F043EAE07306E041FA02F3D040C2F1200291400843194670470FB40023D9
:2027400000B589B00CA900910B996FF00042CB601E4B06931E4B07930423CDE901321D4A59
:20276000089202466B46002000F0D2F909B05DF814FB70B586B006464FF0FF300091CDE972
:202780000101002015460C4604903246694604A8FFF7D4FF03460498211825B108B10A463D
:2027A00000E022462A6000280DD0002B02DD0098884208D0081B0094CDE901043246694665
:2027C00004A8FFF7BBFF06B070BD0000492D0008672D0008FD2900082DE9F04791460F46F9
:2027E00080460446002614F8015B2DB100F002F90068405DC007F6D12B2D02D02D2D18D073
:20280000641E4A463946204600F0BEFA27B13968A14201D1C7F8008071054FF002040BD511
:202820004042002803DD0BF079F80460A007BDE8F08746F48066E4E70028F8DA0BF06EF835
:2028400004606FF00040F2E70029A8BF7047401C490008BF20F00100704710B4B0FA80FC37
:2028600000FA0CF050EA010404BF10BC704749B1CCF1200421FA04F411FA0CF118BF0121EE
:2028800021430843A3EB0C01CB1D4FEA00614FEA102042BF002010BC704700EBC35010440D
:2028A0000029A4BF10BC7047401C490008BF20F0010010BC704710B5141E73F1000408DAC8
:2028C000401C41F1000192185B411A4301D120F0010010BD2DE9F04D92469B4611B1B1FA9D
:2028E00081F202E0B0FA80F220329046FFF7F5FE04460F4640EA0A0041EA0B0153465A4613
:20290000084313D0114653EA010019D0C8F140025046FFF7F1FE05460E4650465946424639
:20292000FFF7DBFE084305D0012004E020463946BDE8F08D0020054346EAE0762C433743C5
:202940000A986305E40AA0EB08000022FD0A44EA47540A3002D500200146E9E70105101983
:202960006941DDE9084500196941BDE8F04DA2E7C1F30A52C1F3130140F2FF3341F480116A
:202980009A4202DA00200146704740F233439A42A2F2334202DC5242FFF7AEBEFFF79DBEAF
:2029A00030B5041E71F1000404DB4FF00044404264EB0101141E73F1000405DB1C464FF05A
:2029C0000043524263EB0403994208BF904230BD064C074D06E0E06840F0010394E80700DF
:2029E00098471034AC42F6D3FFF7A6FBC0440108E044010800487047E033010810B5044602
:202A0000FFF7F8FF0068005D00F0010010BD00002DE9FF4F087881B09946FF2805D0491CF1
:202A20002D2804D00024002308E000230BE00124F9E703EB830300EB4303491C0878FF287A
:202A4000F7D104B15B4200200090147801462D2C01D02B2C04D1521C2D2C12D00024009422
:202A600000251678FF2E0ED00A24A0FB04C801FB0481002700FB0711521C16EB0C00694123
:202A8000EFE70124EBE7994450EA01020ED00024AA4D2646DFF8A88200F0D3F982468B4694
:202AA000B9F1000009DAC9F100071BE001980021C0E9001105B0BDE8F08F074612E0F80742
:202AC00007D022462B4630464146FFF759FC0646884622462B4610461946FFF751FC0446C9
:202AE0000D467F10002FEAD1B9F1000F324643465046594602DAFFF7B5FC01E0FFF740FC85
:202B0000009A0AB181F00041019AC2E90001D1E72DE9FF4F1F468DB0D7E901464FF0FF382C
:202B20002E2045464FF000090B90B9696D1C0E988847396A824688470028F6D1BAF1FF3FA7
:202B40000AD024F4D064002E11DDBAF12B0F08D0BAF12D0F0BD102E0404611B0ABE744F4C0
:202B60008064B9696D1C0E9888478246761E6946600501D52D2000E02B208DF8000001F11C
:202B8000010B0DF1200809E0B9696D1C0E98884782460F9844F40074761E0560002E02DDD9
:202BA000BAF1300FF0D00B998A453ED144F0800406E00F99681CA9F1010944F40074086067
:202BC000B9696D1C761E0E98884782463028F0D02BE00B998A4505D1200603D444F0800458
:202BE000761E18E050460AF06BFF08B30DF11301761E44F400748B4508D2AAF130000BF8CA
:202C0000010B200607D5A9F1010003E0200602D409F101008146A00502D50F99681C08605A
:202C2000B9696D1C0E9888478246002ED1DC53E0002E51DDBAF1650F02D0BAF1450F4BD136
:202C4000A00549D5B9696D1C24F44074761E0E9888478246002E0CDD2B2804D0BAF12D0F44
:202C600007D144F48074B9696D1C0E9888478246761EE00501D52D2100E02B2108F8011B83
:202C8000CDF82C8021E00DF12901761E44F4007488450CD2AAF1300010F0FF0088F8000065
:202CA00002D10B99884509D908F1010806E0E00501D5244801E042F20F708146B9696D1CD9
:202CC0000E98884782460F980560002E04DD50460AF0F6FE0028D6D1F9690E988847FF2053
:202CE0008BF8000088F800000020069007904B466A4608A906A8FFF78BFEA00502D46FF08B
:202D000001002AE714F0240F0AD0E00714D1DDE906123868031D3B600068C0E900120BE07D
:202D2000DDE90601FFF776FC0146E00704D13868021D3A600068016028460EE70000244072
:202D40000000F03FF1D8FFFF426842B1016811F8013B23B1521EC0E90012184670470121FC
:202D6000C160881E704742685AB1C368016843B983688B4205D0491E521CC0E90012002053
:202D800070474FF0FF3070472DE9F05F82460078002715468B460AF10104B946302801D037
:202DA0009DB113E014F8010B0127782803D0582801D045B10AE00DB1102D07D100271025BF
:202DC00014F8010B02E0082500E00A250026B0460EE005FB080005FB06F1012701EB10464A
:202DE0001FFA80F8B6F5803F00D3B94614F8010B294600F018F80028EBDABBF1000F05D002
:202E00000FB1641E00E05446CBF80040B9F1000F06D00AF083FD02210160C81EBDE8F09F4C
:202E200048EA0640FAE73A2800D2303820F02002412A01D3A2F13700884201D34FF0FF3056
:202E400070470EB540F2334202920022CDE900221346FFF73FFD03B000BD70B58C1810F8F7
:202E6000015B15F0070301D110F8013B2A1106D110F8012B03E010F8016B01F8016B5B1E56
:202E8000F9D12B0705D40023521E0DD401F8013BFAE710F8013BCB1A921C03E013F8015BB2
:202EA00001F8015B521EF9D5A142D8D3002070BD10B5002400BF20E0C4EBC40101EB442137
:202EC000144A02EB810040F61C01FFF766F9C4EBC40101EB44210F4B03EB810204EB4401BA
:202EE0004FF4806303EB812040F61C0105F034F8052006F08BFE601CC4B2082CDCDB0548DB
:202F00000068401C20B944F2E0010248FFF745F910BD0000D41500202DE9F0438BB00026FF
:202F200000200A900990152009F0E8FF002873D0152009F0BFFFF948D0F86C02002862D001
:202F4000F7480088401CF649088008460088B0F5616F58DB202101A8FFF71FF9F148008850
:202F6000C0EBC00101EB4020EF4901EB8007202101A8FFF712F9EB49098801EB41014FF4CD
:202F8000806202EB8121E94A1288881801AA202104F0E2FFE5480088074400240FE001A8D6
:202FA000005D395D884208D0022006F02FFE3A462021480104F0F6FF03E0601C84B2202C63
:202FC000EDD300BFD94800882030D84908800846008840F61C01884214D30020D349088032
:202FE000D0480088401CCF490880CC48D0F86C020988884206D80020CC490880C94908805B
:20300000C749088000BF00241FE202274FF000084FF0000900BF3DE01FE24FF000082EE04A
:2030200000200790089007AA4146384605F082FC08B304EB4402BE4901EB420007A9FFF74D
:20304000B7F8C0B100200A900990032F08D1B8F1040F05D10AAA4146384605F0EDFB07E0E3
:2030600009AA4146384605F0E7FBBDF824000A904FF0010907E008F1010000F0FF08AD4838
:20308000C05D4045CCDC00BFB9F1000F00D003E0781CC7B2052FC0DB00BFA74800EB041032
:2030A00000683C2814D3C4EBC40101EB44219E4A02EB81003B2109F01BFCC4EBC40101EB76
:2030C0004421994A02EB81010A98C1F8EC0012E0994800EB041000683C21B0FBF1F201FBD1
:2030E0001200C4EBC40101EB44218F4A02EB81010A9A41F82020904800EB04100068401CF9
:203100008D4901EB041108608B4800EB0410006800287DD0884800EB041000683C21B0FB82
:20312000F1F201FB1200002872D1002600250BE0C4EBC40000EB44207B4901EB800050F8C3
:2031400025000644681C85B23C2DF1DB7A4800EB041040683C2818D3C4EBC40101EB442193
:20316000714A02EB810101F1F0003B2109F0C0FB3C20B6FBF0F1C4EBC40000EB44206A4ACF
:2031800002EB8000C0F8DC1115E03C20B6FBF0F1694800EB041040683C22B0FBF2F302FBF7
:2031A0001302C4EBC40000EB44205F4B03EB8000F03040F82210604800EB04104068401CEB
:2031C0005D4901EB041148605B4800EB0410406800289ED0584800EB041040683C21B0FB71
:2031E000F1F201FB120000289ED1002600250CE0C4EBC40000EB44204B4901EB8000F0302E
:2032000050F825000644681C85B23C2DF0DB00E0C2E0494800EB04108068182818D3C4EB34
:20322000C40101EB4421404A02EB810101F5F070172109F05DFB3C20B6FBF0F1C4EBC4003F
:2032400000EB4420384A02EB8000C0F83C1216E03C20B6FBF0F1384800EB041080681822A5
:20326000B0FBF2F302FB1302C4EBC40000EB44202D4B03EB800000F5F07040F822102E48CF
:2032800000EB04108068401C2B4901EB04118860294800EB0410806800287DD0264800EB68
:2032A000041080681821B0FBF1F201FB1200002872D1002600250DE0C4EBC40000EB4420D8
:2032C000194901EB800000F5F07050F825000644681C85B2182DEFDB174800EB04108089E3
:2032E000B0F5B67F2ADDC4EBC40101EB44210E4A02EB810101F510704FF4B67109F0F8FA96
:203300001820B6FBF0F1C4EBC40000EB4420064A02EB8000C0F8F01728E00000AC120020BF
:203320005A0200205E020020D41500205C0200201C150020E41D0108541500201820B6FB3D
:20334000F0F1474800EB0410808940F26D1290FBF2F302FB1302C4EBC40000EB4420414B74
:2033600003EB800000F5107040F822103C4800EB04108089401C3A4901EB0411888138480B
:2033800000EB0410808900285DDD354800EB0410808940F26D1100E038E090FBF1F201FB2C
:2033A000120098BB002600250DE0C4EBC40000EB44202C4901EB800000F5107050F82500EB
:2033C0000644681C85B2B5F5B67FEEDD244800EB0410C0890A281ADBC4EBC40101EB44219E
:2033E000204A02EB810101F2F470092109F080FA40F26D10B6FBF0F1C4EBC40000EB4420FD
:20340000184A02EB8000C0F8181813E01BE040F26D10B6FBF0F1C4EBC40000EB4420114AA9
:2034200002EB800000F2F4700D4A02EB0412D28940F822100A4800EB0410C089401C084963
:2034400001EB0411C881601C84B2082C05DA0648D0F86C02A0423FF6D8AD0BB0BDE8F0836A
:2034600054150020D4150020AC12002001200149087070474700002010B502460B4606482F
:203480000088504300EB4004C4EB8010000B0A24B0FBF4F188B210BD3000002002460B46EA
:2034A0004FF49600B0FBF2F000F12D0188B27047704700002DE9F043002500260027A84636
:2034C000A94600240AE0104830F8240005440E4800EB840040880644601CC4B21E2CF2DB22
:2034E0001E20B5FBF0F5B6FBF0F61E213046FFF7D5FF064908801E212846FFF7BDFF044960
:203500000880BDE8F0830000D806002030000020320000202DE9F04704460D462846FEF71E
:2035200059FEC6B2A019222100F056FBC7B2202F00DB202720211448FEF72FFEA1193A469C
:203540001148FEF711FE1148FEF744FE80462846FEF740FEC0F180090B48FEF73BFEA9EBC8
:203560000000801E80450BD20848FEF733FE074900EB0108044B2A4605A140460AF0BAF9B9
:2035800004F00AFDBDE8F087141300205E0B002025732573222C00002DE9F04704460D46DC
:2035A0002846FEF717FEC6B2A019222100F014FBC7B2102F00DB10271648002101634163CF
:2035C0008163C163A1193A463030FEF7CDFD1248FEF700FE80462846FEF7FCFDC0F18009E1
:2035E0000C483030FEF7F6FDA9EB0000801E80450CD20948FEF7EEFD074900EB0108054B95
:2036000030332A4605A140460AF074F904F0C4FCBDE8F087141300205E0B00202573257374
:20362000222C00002DE9F04704460D462846FEF7D1FDC6B2A019222100F0CEFAC7B2102F3D
:2036400000DB102716480021016241628162C162A1193A462030FEF787FD1248FEF7BAFDC4
:2036600080462846FEF7B6FDC0F180090C482030FEF7B0FDA9EB0000801E80450CD20948C8
:20368000FEF7A8FD074900EB0108054B20332A4605A140460AF02EF904F07EFCBDE8F08762
:2036A000141300205E0B002025732573222C00002DE9F04704460D462846FEF78BFDC6B26F
:2036C000A019222100F088FAC7B2402F00DB402740211448FEF761FDA1193A461148FEF7BA
:2036E00043FD1148FEF776FD80462846FEF772FDC0F180090B48FEF76DFDA9EB0000801E13
:2037000080450BD20848FEF765FD074900EB0108044B2A4605A140460AF0ECF804F03CFC27
:20372000BDE8F087541300205E0B002025732573222C000010B590B0044640216846FEF78C
:203740002CFD40216846FEF728FD012204A168460AF0D0F8684602F0EDFA10B010BD0000CB
:2037600041542B43474143543D312C25640D0A0010B590B0044640216846FEF70EFD40212E
:203780006846FEF70AFD054A05A168460AF0B2F8684602F0CFFA10B010BD000014130020FB
:2037A00041542B434744434F4E543D312C224950222C222573220D0A00000000F0B585B0D7
:2037C00005462846FEF706FD86B2002004901A2003900120029006F035FF401E132804D035
:2037E00014280BD0162808D146E02E215D4800F043FA012103A800F03FFAB0E002F024FCBC
:2038000082200490012104A800F036FA5648FEF7E1FCC0B201909DF80400401D0090012169
:20382000684600F029FA00200490012104A800F023FA01200490012104A800F01DFA00208E
:203840000490012104A800F017FA012101A800F013FA9DF80410444800F00EFA002004905C
:20386000012104A800F008FA0A2006F0CFF9012103A800F001FA72E006F0DEFE0A2818D2A8
:20388000DFE800F005080B0C0D0E1114151604F08BFD0EE004F088FD0BE00AE009E008E059
:2038A00005F0D4F805E004F053FC02E001E000E000BF00BF05F010F80746302004900121AE
:2038C00004A800F0D9F92948FEF784FCC0B201903846FEF77FFC84B29DF804002044801CD4
:2038E00080B20090BDF800007F2819DDBDF80000C11700EB5161C1F3C71102919DF80800CE
:20390000401EBDF80010A1EBC01080B200900121684600F0B1F9012102A800F0ADF903E0B7
:203920000121684600F0A8F900200490012104A800F0A2F9012101A800F09EF99DF804101E
:203940000A4800F099F90A2006F060F92146384600F092F9012103A800F08EF900BF00BFF8
:2039600005B0F0BD75000020860C0020460C00200121034A11700021024A11707047000097
:20398000550000205400002010B5A2B004461648FEF720FC082821D913484630FEF71AFC68
:2039A00088B111485630FEF715FC60B10E495631A1F11000831F0C4ACDE900010BA102A853
:2039C00009F098FF06E0084B4033074A11A102A809F090FF02A802F0ADF903E0154800688C
:2039E00002F0A8F922B010BD5413002041542B43495053544152543D22544350222C222509
:203A000073222C222573222C222573222C222573220D0A0041542B43495053544152543D7B
:203A200022544350222C222573222C222573220D0A0000007000002010B590B004464021F4
:203A40006846FEF7AAFB054A05A1684609F052FF684602F06FF910B010BD0000500B002021
:203A600041542B434D47523D25730D0A0000000070B505461A48FEF7ADFB07280AD8184891
:203A8000FEF7A8FB16490844441E16A1204609F031FF0EE01248FEF79DFB7D2809D210488E
:203AA000FEF798FB0E490844441E11A1204609F021FF0B4802F03EF9022006F0A7F80121F3
:203AC0000C4800F0D9F880210548FEF766FB044909A002680A6082888A808079887170BD90
:203AE0005E0B00206572726F727D0D0A000000007D0D0A00650000207265706C793A7B0085
:203B000010B5044606A002F015F9084802F012F907A002F00FF914210448FEF73EFB10BD86
:203B200041542B434D47533D22000000DE0B0020220D0A0070B5054600240A2006F066F8E8
:203B400070BD000010B5A2B004461448FEF742FBE8B112482030FEF73DFB78B10F483030F9
:203B6000FEF738FB50B10D483030A0F110030B4A0BA1009002A809F0BDFE04E0074A0FA1EF
:203B800002A809F0B7FE02A802F0D4F803E01148006802F0CFF822B010BD00001413002022
:203BA00041542B435354543D222573222C222573222C222573220D0A0000000041542B43C4
:203BC0005354543D222573222C22222C22220D0A000000006C00002010B502460B460020D0
:203BE000002100BF03E0441CA0B24C1CA1B2545C9C4202D0545C002CF5D110BD10B50020E1
:203C000013490870134908704FF480611248FEF7C4FA00201149086011490860802111482D
:203C2000FEF7BBFA0F4810A10A6802608A8882808979817114210E48FEF7AFFA06480D4929
:203C400008600020C8804FF48060888010BD000054000020550000205007002060000020BC
:203C60005C0000205E0B00207265706C793A7B00DE0B00200800002070B504460D462946FC
:203C8000204609F05BFD04A009F024FE214604A009F020FE70BD00004D43553A0000000040
:203CA000257300002DE9F04704460D462846FEF791FAC6B2A0192221FFF78EFFC7B2082FED
:203CC00000DB082716480021C0F80E11C0F81211A1193A4600F58770FEF746FA1148FEF700
:203CE00079FA80462846FEF775FAC0F180090E48FEF770FAA9EB0000801E80450BD20948A5
:203D0000FEF768FA074900EB0108074B2A4607A1404609F0EFFD04F03FF9BDE8F0870000EB
:203D2000AC1200205E0B0020BA13002025732573222C000070B5044604EB8400144901EB86
:203D40008005144804700020134908701148007800B970BD4FF480611048FEF71EFA0020BA
:203D60000F49C8804FF4806088800C48086000200C4908600C490860E86830B1286820B190
:203D8000332C02DAE9686868884700BFE1E700005817010854000020550000205007002099
:203DA00008000020600000205C00002010B590B0044640216846FEF7F0F940216846FEF79F
:203DC000ECF90B480078012806DB0AA301220CA1684609F08FFD05E00FA3002208A1684669
:203DE00009F088FD684601F0A5FF10B010BD0000A4000020746573746D71747432000000F9
:203E000041542B434D515454414343513D25642C222573220D0A0000746573746D717474D6
:203E20003100000010B5A4B00446802104A8FEF7B4F9802104A8FEF7B0F923480078012808
:203E40001DDB2248FEF7C6F950B92048801FA0F1400301221EA1009004A809F04BFD2DE0FC
:203E60001A491031194A901FA0F14003CDE901210090012221A104A809F03CFD1EE0134834
:203E8000B630FEF7A7F950B91048B030A0F1400300220FA1009004A809F02CFD0EE00B4920
:203EA000C631A1F11002901FA0F14003CDE901210090002211A104A809F01CFD04A801F04D
:203EC00039FF24B010BD0000A40000209A13002041542B434D515454434F4E4E4543543DE8
:203EE00025642C227463703A2F2F25733A2573222C373230302C312C2C0D0A0041542B43BC
:203F00004D515454434F4E4E4543543D25642C227463703A2F2F25733A2573222C3732300D
:203F2000302C312C222573222C222573220D0A0070B5054604F0D0FC0446204601F0FAFE04
:203F400001A001F0F7FE70BD0D0A000070B5A0B0064680216846FEF720F904F0BDFC044681
:203F600080216846FEF719F91048007801280ADB2046FEF72FF905462B4601220CA1684650
:203F800009F0B8FC09E02046FEF724F905462B46002207A1684609F0ADFC684601F0CAFED6
:203FA0004FF47A7005F032FE20B070BDA400002041542B434D5154545041594C4F41443D5E
:203FC00025642C25640D0A002DE9F04704460D462846FEF7FFF8C6B2A0192221FFF7FCFDE5
:203FE000C7B2102F00DB102710211448FEF7D5F8A1193A461148FEF7B7F81148FEF7EAF841
:2040000080462846FEF7E6F8C0F180090B48FEF7E1F8A9EB0000801E80450BD20848FEF725
:20402000D9F8074900EB0108044B2A4605A1404609F060FC03F0B0FFBDE8F087AA13002090
:204040005E0B002025732573222C000030B5A1B00546802101A8FEF7A0F8802101A8FEF7C2
:204060009CF804F039FC044609480078012805DB502208A101A809F03DFC04E050220BA16F
:2040800001A809F037FC01A801F054FE21B030BDA400002041542B434D5154545055423D70
:2040A000312C312C25640D0A0000000041542B434D5154545055423D302C312C25640D0AE0
:2040C0000000000010B50446034801F033FE03A001F030FE10BD0000860C00200D0A00000C
:2040E00030B5A1B00546802101A8FEF756F8802101A8FEF752F80F48007801280ADB0E48F6
:20410000FEF768F80446234601220CA101A809F0F1FB09E00848FEF75DF8044623460022E1
:2041200006A101A809F0E6FB01A801F003FE21B030BD0000A4000020860C002041542B4383
:204140004D5154545355423D25642C25642C310D0A00000010B50446034801F0EBFD03A06A
:2041600001F0E8FD10BD0000860C00200D0A000030B5A1B00546802101A8FEF70EF880216C
:2041800001A8FEF70AF80F48007801280ADB0E48FEF720F80446234601220CA101A809F01A
:2041A000A9FB09E00848FEF715F804462346002206A101A809F09EFB01A801F0BBFD21B046
:2041C00030BD0000A4000020860C002041542B434D515454535542544F5049433D25642CD8
:2041E00025642C310D0A000010B50446034801F0A1FD03A001F09EFD10BD0000460C00206B
:204200000D0A000030B5A1B00546802101A8FDF7C4FF802101A8FDF7C0FF0F480078012810
:204220000ADB0E48FDF7D6FF0446234601220CA101A809F05FFB09E00848FDF7CBFF0446BA
:204240002346002206A101A809F054FB01A801F071FD21B030BD0000A4000020460C00203F
:2042600041542B434D515454544F5049433D25642C25640D0A00000010B50446034801F099
:2042800059FD03A001F056FD10BD0000860C00200D0A000030B5A1B00546802101A8FDF78C
:2042A0007CFF802101A8FDF778FF0F48007801280ADB0E48FDF78EFF0446234601220CA197
:2042C00001A809F017FB09E00848FDF783FF04462346002206A101A809F00CFB01A801F0BC
:2042E00029FD21B030BD0000A4000020860C002041542B434D515454554E5355423D2564C8
:204300002C25642C300D0A002DE9F04704460D462846FDF75FFFC6B2A0192221FFF75CFC09
:20432000C7B2102F00DB102710211448FDF735FFA1193A461148FDF717FF1148FDF74AFFCB
:2043400080462846FDF746FFC0F180090B48FDF741FFA9EB0000801E80450BD20848FDF717
:2043600039FF074900EB0108044B2A4605A1404609F0C0FA03F010FEBDE8F0879A13002039
:204380005E0B002025732573222C00002DE9F34FB7B000203690804635900024349033903B
:2043A000002537981290A146A246002011903898332805DA389800EB8000FB4901EB8009D9
:2043C000FAA11298FDF7F4FE48B3FA48007801280BDB0220FFF7AEFC012141F2883008F027
:2043E0001BFD1820F449087004E0F4480078401CF2490870EF48007888B9F0480078062843
:204400000DDD00220121EE480AF01EFD4FF47A7005F0FCFB06F01CF90020E8490870E9A1AC
:204420001298FDF7C5FEB8B1EAA009F053FAF5A11298FDF7BDFE78B10120DE490870F349CE
:2044400008700220FFF776FC2820DB49087001214FF4FA6008F0E0FCEDA11298FDF7A8FE11
:2044600050B10220FFF766FC0620D349087001214FF4FA6008F0D0FCE8A11298FDF798FEC7
:2044800050B10220FFF756FC1D20CB490870012141F2883008F0C0FCE6A11298FDF788FE7C
:2044A00020B1E4A11298FDF783FE0446E3A11298FDF77EFE002830D0E2A11298FDF778FEE0
:2044C00010B93320BC490870E1A11298FDF770FEDAA11298FDF76CFE0446A41D002609E018
:2044E0002C212046FFF778FB804608F101000444701CC6B2052EF3DB2C212046FFF76CFB83
:204500008046B8F1180F08DA1821D348FDF745FE42462146D048FDF727FED0A11298FDF769
:2045200047FE58B1CFA11298FDF742FE18B1012005F05EF802E0002005F05AF8CBA112984B
:20454000FDF736FE28B11120CA4908700120CA490870C2A11298FDF72BFE20B993A1129811
:20456000FDF726FE78B1C348007807280BD1BDA11298FDF71DFE18B1012005F039F802E063
:20458000002005F035F8002617E006EB4600BB4901EB800ADAF8040068B1DAF8080050B141
:2045A000DAF80410129801F0C7FD04461CB12046DAE901129047701CC6B20C2EE5D3B0A145
:2045C0001298FDF7F5FD90B1ADA11298FDF7F0FD04460E21AC48FDF7E0FD2C21E01DFFF7B3
:2045E000FBFA80464246E11DA748FDF7BDFDA7A11298FDF7DDFDA7A11298FDF7D9FDA7A119
:204600001298FDF7D5FD50B12C21E01DFFF7E4FA80460020A349087001207C490870A2A120
:204620001298FDF7C5FD0446002C5BD04FF0000B2C212046FFF7D0FA804608F101000444B4
:204640002C212046FFF7C8FA804600200D900E900F901090B8F1100F19DC204609F0D4FDA2
:20466000CDE90A01FDF7D6FF83465846FDF7BFFF02460B46CDE90A018DA10DA809F03AF92E
:204680000DA804F061FC0DA98AA009F023F908F1010004442C212046FFF79EFA80460020B6
:2046A0000D900E900F901090B8F1100F19DC204609F0AAFDCDE90A01FDF7ACFF83465846F6
:2046C000FDF795FF02460B46CDE90A0178A10DA809F010F90DA804F04FFC0DA978A009F06D
:2046E000F9F800BF79A11298FDF762FD0446D4B100200F9010902C21A01DFFF76DFA804698
:20470000B8F1080F01DD4FF008084246A11D0FA8FDF72AFD0FA8FDF772FD1FFA80FB584648
:2047200004F0F6FB00BF6BA11298FDF741FD04467CB1202109A8FDF730FD142204F108012F
:2047400009A8FDF711FD09AA0321002004F00AFB00BF6249129801F0EFFC3490349800280E
:2047600021D05F493498FDF723FD0028F8D05DA13498FDF71DFD18B100200E49087002E05E
:2047800001200C4908705CA13498FDF711FD044644B10A2005F03AFA204606F0C7FA07208A
:2047A00006F058FAACE0F5E3581701084552524F52000000A400002098020020A500002008
:2047C000000801402B434D515454434F4E4E4C4F535400002D2D2D2D2D2D2D2D2D2D2D2D50
:2047E0002D2D2D4D515454204C4F53542D2D2D2D2D2D2D2D2D2D2D2D2D2D2D2D2D200D0A56
:20480000000000004C4F53543A203100A00200202A415452454144593A2031004E4F20533A
:204820004552564943452C466C69676874204D6F646500002B435245473A00002B435053F4
:20484000493A00004E4F205345525649434500004F6E6C696E650000F20B00202B4350497E
:204860004E3A000052454144590000002B434D5449000000990200209C020020541B0108F2
:2048800022534D5F50220000500B00202B43504D530000002B49504400000000434C4F5373
:2048A000454400009E0200202B434C42533A0000256600006C6174203A25730D0A00000051
:2048C0006C6F6E203A25730D0A0000002B4353513A2000002B49434349443A0041170108F8
:2048E0000A0C00202B434D51545452585041594C4F41443A203000006F7461223A000000F0
:20490000F7A13498FDF754FC0446002C76D0142005F07CF90024F6A13498FDF749FC04468B
:20492000002C78D0AFF244013498FDF741FC18B10020F049087002E00120EE490870E41CD4
:204940002C212046FFF748F9C5B2402D00DB40254021E948FDF721FC2A462146E648FDF7AD
:2049600003FC6019441C2C212046FFF735F9C5B2062D00DB0625E0484030002101608180BD
:204980002A462146FDF7F0FB6019441C2C212046FFF722F9C5B2102D00DB10251021D648B1
:2049A0004630FDF7FAFB2A462146D3484630FDF7DBFB6019441C22212046FFF70DF9C5B271
:2049C000102D00DB10251021CB485630FDF7E5FB2A462146C8485630FDF7C6FB002001F0B9
:2049E0006BFB802113A8FDF7D8FBC3495631A1F11000831FC04ACDE9000100E00BE0BFA16B
:204A000013A808F077FF13A804F078F9042006F021F903F0C1FABFA13498FDF7C9FB04463D
:204A2000002C59D00B342C212046FFF7D5F8C5B2202D00DB20252021AF484038FDF7ADFB3C
:204A40002A462146AC484038FDF78EFB6019441C2C212046FFF7C0F8C5B2102D00DB102598
:204A6000A54840380021016241628162C1622A4621462030FDF778FB6019441C2221204694
:204A8000FFF7AAF8C5B2102D00DB10259A4840380021016341638163C1632A4621463030F8
:204AA000FDF762FB002001F007FB802113A8FDF774FB91481038A0F11003A0F1300298A112
:204AC000009013A808F016FF13A804F017F9042006F0C0F803F060FA96A13498FDF768FB46
:204AE00004465CB304F10A00FDF789FB8249A839C1F8C801002001F0DFFA7F48A838D0F85F
:204B0000C801B0F5347F05D94FF434707A49A839C1F8C801802113A8FDF73FFB7648A83861
:204B200087A1D0F8C82113A808F0E4FE13A804F0E5F8042006F08EF803F02EFA83A13498D0
:204B4000FDF736FB0446F4B1002001F0B5FA04F10A00FDF754FB6849A839C1F8CC01802186
:204B600013A8FDF71AFB6448A8387BA1D0F8CC2113A808F0BFFE13A804F0C0F8042006F023
:204B800069F803F009FA77A13498FDF711FB04464CB377A001F090FA78A1204601F0E2F8B5
:204BA000802113A8FDF7F9FA7848007830B904F10A0277A113A808F09DFE0EE07348007809
:204BC000012805D175A279A113A808F093FE04E079A276A113A808F08DFE13A804F08EF8D8
:204BE000042006F037F878A13498FDF7E1FA04464CB378A001F060FA0A342046FDF7EAFA90
:204C0000C5B2082D00DB08253B48A8380021C0F80E11C0F812112A46214600F58770FDF7F3
:204C2000A3FA802113A8FDF7B8FA334A66326CA113A808F05FFE13A804F060F8042006F082
:204C400009F803F0A9F969A13498FDF7B1FA044634B3002001F030FA0A342046FDF7BAFA91
:204C6000C5B2082D00DB08252348663000218160C1602A4621460830FDF776FA042005F0D0
:204C8000E9FF802113A8FDF788FA1B4A6E325AA113A808F02FFE13A804F030F803F07CF93B
:204CA00058A13498FDF784FA0446B4B1002001F003FA802113A8FDF770FA55A12046FDF7F6
:204CC00077FA58B101200C49A83981F8C40152A253A113A808F00EFEBEE0C5E0A6E0000055
:204CE0002F636D642F6E62726F6B65722F0000000D0A2200A400002054130020226E627218
:204D00006F6B6572223A2225732C25732C25732C257322002F636D642F6E61706E2F0000F0
:204D2000226E61706E223A2225732C25732C2573220000002F636D642F677374772F00005E
:204D40002267737477223A22256422002F636D642F676374772F00002267637477223A2278
:204D6000256422002F636D642F636F64652F00002F636D642F636F64650000002F636D649C
:204D80002F636F64652F222A300000007403002022636F6465223A2573000000706173739F
:204DA000776F7264207573650000000022636F6465223A222573220070617373776F726462
:204DC000206572726F7200002F636D642F6D6672712F00002F636D642F6D667271000000CA
:204DE000226D667271223A22257322002F636D642F746672712F00002274667271223A22C8
:204E0000257322002F636D642F757064742F0000226175746F2200006175746F00000000A4
:204E20002275706474223A2225732200FEA12046FDF7BEF950B10020FD4981F8C401FDA267
:204E4000AFF2240113A808F055FD05E0FBA2AFF2300113A808F04EFD13A803F04FFF042015
:204E600005F0F8FE03F098F8F7A13498FDF7A0F9044694B3002001F01FF9802113A8FDF7C9
:204E80008CF9AFF2FC012046FDF792F948B10120E74981F8C4010022EEA113A808F02AFDF7
:204EA00013E0EFA12046FDF783F948B10020E04981F8C4010122E7A113A808F01BFD04E0BF
:204EC000E8A2EAA113A808F015FD13A803F016FF042005F0BFFE03F05FF8E7A13498FDF7CD
:204EE00067F90446E4B104F10A00FDF788F9D049C1F8D401002001F0DFF8802113A8FDF720
:204F00004CF9CB48DFA1D0F8D42113A808F0F2FC13A803F0F3FE042005F09CFE03F03CF8E2
:204F2000DBA13498FDF744F90446C4B1DAA13498FDF73EF908B101203390022005F08AFE8B
:204F4000204604F00FF98346FDF744F918B1032005F080FE03E00020339903F01DFBD1A14A
:204F60003498FDF725F90446CCB1D0A13498FDF71FF908B101203390022005F06BFE2046C0
:204F800004F0F0F88346FDF725F920B1032005F061FE04E038E00220339903F0FDFAC6A1D7
:204FA0003498FDF705F90446C4B1C5A13498FDF7FFF808B101203390022005F04BFE2046F4
:204FC00004F0D0F88346FDF705F918B1032005F041FE03E00320339903F0DEFABBA1349875
:204FE000FDF7E6F80446002C0ED0ACA13498FDF7DFF808B101203390B6A13498FDF7D8F823
:2050000018B1012005F026FE9EE0B5A13498FDF7CFF890B1022005F01DFE204604F0A2F8CB
:205020008346FDF7D7F818B1032005F013FE8BE00020339903F0B0FA86E0ABA13498FDF78C
:20504000B7F890B1022005F005FE204604F08AF88346FDF7BFF818B1032005F0FBFD73E0CA
:205060000120339903F098FA6EE0A1A13498FDF79FF890B1022005F0EDFD204604F072F8D1
:205080008346FDF7A7F818B1032005F0E3FD5BE00220339903F080FA56E097A13498FDF72F
:2050A00087F890B1022005F0D5FD204604F05AF88346FDF78FF818B1032005F0CBFD43E08B
:2050C0000320339903F068FA3EE08DA13498FDF76FF890B1022005F0BDFD204604F042F873
:2050E0008346FDF777F818B1032005F0B3FD2BE00420339903F050FA26E083A13498FDF7D1
:2051000057F808B300260EE006EB4602804800EB42013498FDF74CF818B1304603F03EF9D5
:2051200006E0701CC6B24248D0F86C02B042EBD800BF3F48D0F86C02B04202D8FF2003F0B6
:205140002DF9062005F086FD72A13498FDF730F80446002C66D071A13498FDF729F80446A7
:20516000002C60D0142004F051FDAFF688013498FDF71EF818B100206A49087002E0012042
:2051800068490870E41D2C212046FEF725FDC5B2402D00DB402540212548A830FCF7FDFF62
:2051A0002A4621462248A830FCF7DEFF6019441C2C212046FEF710FDC5B2062D00DB0625C8
:2051C0001B48E8300021016081802A462146FCF7CBFF6019441C2C212046FEF7FDFCC5B24C
:2051E000102D00DB102510211148EE30FCF7D5FF2A4621460E48EE30FCF7B6FF6019441C27
:2052000022212046FEF7E8FCC5B2102D00DB102510210748FE30FCF7C0FF2A4621460448C5
:20522000FE3081E0F7E39CE0226D616E75220000AC1200206D616E75000000006572726F4D
:205240007220636D640000002F636D642F7270746D2F0000227270746D223A2225642200F6
:20526000310000006572726F72000000227270746D223A22257322002F636D642F686266F4
:20528000712F00002268627271223A22256422002F617474000000002F6174742F6D657411
:2052A000610000002F737473000000002F7374732F6D6574610000002F737461000000002E
:2052C0002F7374612F6D65746100000022676574223A000066756C6C646174610000000076
:2052E000226174740000000022636D64000000002273747300000000226474610000000016
:20530000226469610000000022616261630000001C15002022736574223A000062726F6BCB
:20532000223A0000A4000020FCF71EFF002000F0C3FE802113A8FCF730FFFE49A1F1100005
:20534000831FA0F14602CDE90001FBA113A808F0D1FA13A803F0D2FC042005F07BFC02F003
:205360001BFEFBA13498FCF723FF0446002C77D0F9A13498FCF71CFF0446B4B1802113A85B
:20538000FCF70BFF0922F7A113A8FCF7EDFE13A803F0B4FC0020E749FE39C1F8F0015021B4
:2053A000E448F630FCF7F9FE8EE04FF0000B00201090E049FE39C1F8F0015021DD48F63073
:2053C000FCF7EBFE00BF39E0002010902CE000200E900F900EAA5846109903F0ABFAF8B1B0
:2053E0000EA93498C01DFCF7E3FE0446C4B10EA9D048F630FCF7DCFE90B9CE48FE38D0F89B
:20540000F011D0F8F001401CCA4AFE3A01EB4101C2F8F00102F5FA7000EB41000E990160BC
:205420001098401CC0B21090D14810F80B1010988142CCDC0BF1010000F0FF0BBBF1050F50
:20544000C2DB802113A8FCF7A8FECAA103C9CDE91301B848FE38D0F8F00148B300261AE0AF
:2054600037E013A8FCF7B6FE13A9084406EB46010D90B048F63000EB4102C1A10D9808F08B
:2054800039FA13A8FCF7A6FE13A90844BEA109780170701CC6B2A748FE38D0F8F001B0425A
:2054A000DFD813A8FCF796FE401E13A900220A5413A8FCF78FFE13A90844ACA109780170D7
:2054C00013A803F01BFC00BF042005F0C3FB02F063FDAEA13498FCF76BFE044604B3A01DEA
:2054E000FCF78DFE07B2012F06DBB7F5347F03DA9048FE38C0F8EC71802113A8FCF74DFE6B
:205500008C48FE38A3A1D0F8EC2113A808F0F2F913A803F0F3FB042005F09CFB02F03CFD53
:205520009FA13498FCF744FE0446002C73D09EA13498FCF73DFE0446ACB1802113A8FCF742
:205540002CFE09229BA113A8FCF70EFE13A803F0D5FB00207749FE39C1F86C023021984813
:20556000FCF71BFE82E04FF0000B002010907149FE39C1F86C0230219148FCF70EFE00BFB3
:2055800037E0002010902AE000200E900F900EAA5846109903F0CEF9E8B10EA93498C01D1B
:2055A000FCF706FE0446B4B10EA98548FCF700FE88B96048FE38D0F86C12D0F86C02401CD9
:2055C0005C4AFE3A01EB4101C2F86C027C4800EB41000E9901601098401CC0B210906448DD
:2055E00010F80B1010988142CEDC0BF1010000F0FF0BBBF1050FC4DB802113A8FCF7CDFD04
:2056000070A103C9CDE913014A48FE38D0F86C0240B3002619E02EE013A8FCF7DBFD13A983
:20562000084406EB46010D90654800EB410254A10D9808F05FF913A8FCF7CCFD13A9084405
:2056400051A109780170701CC6B23A48FE38D0F86C02B042E0D813A8FCF7BCFD401E13A949
:2056600000220A5413A803F049FB00BF042005F0F1FA02F091FC55A13498FCF799FD0446E1
:2056800094B34FF0000B53A1204600F06BFB402101A8FCF782FD802113A8FCF77EFD5048EB
:2056A0000078B0B92321E01DFEF796FA401C00F0FF0B5A46E11D01A8FCF756FD01AA49A1CB
:2056C00013A808F017F913A8FCF784FD00F0FF0B11E043480078012807D1AFF6401241A110
:2056E00013A808F007F906E00CE0AFF634123DA113A808F0FFF813A803F000FB042005F0F0
:20570000A9FA00BF3AA13498FCF752FD04467CB1A01DFCF774FD07B2002F06DDB7F5347F7C
:2057200003DA0448FE38C0F8C871802113A863E073E00000AA1300202262726F6B223A22FC
:2057400025732C25732C25732C2573220000000072616D6C223A000072616D6C223A5B5D7B
:20576000000000002272616D6C223A5B5D000000E41D01082272616D6C223A5B00000000B8
:2057800022257322000000002C00000072616D74223A00002272616D74223A256400000036
:2057A00061626163223A000061626163223A5B5D000000002261626163223A5B5D000000AE
:2057C0001C1500202261626163223A007075626B223A22007075626B223A222A30000000B9
:2057E00074030020227075626B223A222573220067737477223A0000FCF7CFFCAE48AFA1E1
:20580000D0F8C82113A808F075F813A803F076FA042005F01FFA02F0BFFBABA13498FCF7B0
:20582000C7FC044604B3A01DFCF7E9FC07B2002F07DDA148D0F8C801B84202D99E48C0F856
:20584000CC71802113A8FCF7A8FC9B48A0A1D0F8CC2113A808F04EF813A803F04FFA04202B
:2058600005F0F8F902F098FB9CA13498FCF7A0FC0446ECB3E41D2C212046FEF7ADF9C5B276
:20588000202D00DB202520218B486830FCF785FC2A46214688486830FCF766FC6019441C0E
:2058A0002C212046FEF798F9C5B2102D00DB1025814868300021016241628162C1622A46ED
:2058C00021462030FCF750FC6019441C22212046FEF782F9C5B2102D00DB102576486830C6
:2058E0000021016341638163C1632A46214600E01AE03030FCF738FC802113A8FCF74DFCA7
:205900006D489830A0F11003A0F13002AFF6F031009013A807F0EEFF13A803F0EFF90420F4
:2059200005F098F902F038FB6EA13498FCF740FC04466CB3802113A8FCF72FFC6BA120465D
:20594000FCF736FC68B16BA113A807F0D3FF072006F006FF322004F059F9082006F000FFA2
:2059600010E067A12046FCF723FC38B166A113A807F0C0FF092006F0F3FE03E066A113A8A1
:2059800007F0B8FF13A803F0C1FB042005F062F965A13498FCF70CFC0446A4B1802113A8B3
:2059A000FCF7FBFB2046FCF715FC83465A46214613A8FCF7D9FB13A803F0A0F9042005F0E2
:2059C00049F902F0E9FA5AA13498FCF7F1FB04468CB3802113A8FCF7E0FB57A12046FCF706
:2059E000E7FB48B10120344981F8C401002253A113A807F07FFF16E053A12046FCF7D8FB94
:205A000050B100202C4981F8C40101224BA113A807F070FF07E02DE0AFF2B872AFF2B471FD
:205A200013A807F067FF13A803F068F9042005F011F902F0B1FA45A13498FCF7B9FB0446DC
:205A4000C4B1A01DFCF7DBFB1B49C1F8D401802113A8FCF7A2FB18483EA1D0F8D42113A8B6
:205A600007F048FF13A803F049F9042005F0F2F802F092FAB9F1000F1BD0D9F80810129840
:205A8000FCF796FB0446A4B1D9F80000162803D117203349087005E00120324908700020BC
:205AA0002F490870D9F8100018B1D9F810101298884739B0BDE8F08FAC1200202267737487
:205AC00077223A256400000067637477223A00002267637477223A25640000006E61706EF0
:205AE000223A220073776368223A2200226F6E22000000002273776368223A226F6E220080
:205B0000226F6666220000002273776368223A226F666622000000002273776368223A22FF
:205B20006572726F7222000072656164223A22007270746D223A00003A30000022727074FE
:205B40006D223A25640000003A31000068626671223A00002268626671223A2564000000E3
:205B600054000020550000202DE9F04107460D462846FCF72FFB00F0FF0809A1384600F0BB
:205B8000DBFA044654B1641C22212046FEF724F8C6B2324621460348FCF7E6FABDE8F0811C
:205BA000222B0000DE0B00202DE9F04704460D462846FCF70FFBC6B2A0192221FEF70CF8CD
:205BC000C7B2062F00DB06271448002101608180A1193A46FCF7C8FA1148FCF7FBFA80463A
:205BE0002846FCF7F7FAC0F180090C48FCF7F2FAA9EB0000801E80450BD20948FCF7EAFAEA
:205C0000074900EB0108054B2A4606A1404607F071FE02F0C1F9BDE8F0870000941300205E
:205C20005E0B002025732573222C000010B536480078C008B0B13448007820F0F800324902
:205C4000087008464078401C487008464078062808DA2E480078FEF76DF8002141F2883048
:205C600007F0DAF82A48C0882A4908602A48046844E0601E2949085C0D2804D10846005DBB
:205C80000A2800D1DCB92548005D3E2817D02348005D7D2813D0A01E2049085C2049097890
:205CA00088422AD1601E1D49085C1D494978884223D11A48005D1A49897888421DD10A20ED
:205CC00003F0A4FF601C14490968401A1549086015A007F0FFFD11480F4A1268811814A0A3
:205CE00007F0F8FD0D490C4A1268881807490978FEF74CFB601C08490860641C054800687B
:205D00008442B6D310BD0000940400205400002008000020580000206000002050070020A4
:205D20000A0C00205C00002047534D3A000000002573000070B504462046FCF74BFA85B2B4
:205D40002946204607F0FAFC03A007F0C3FD214603A007F0BFFD70BD4D43553A000000001E
:205D6000257300002DE9F04F93B0804689460020049003900290019000907EA14046FCF7CC
:205D800017FA08B1012002904846FCF723FAC0B21290129908EB01002321FDF71DFFC0B26F
:205DA0001190202105A8FCF7F8F9129808EB000405A8109000270EE0E05D202809D0E15DD1
:205DC000109801701098401C10900198401CC0B20190781C87B211988742EDDB6848FCF764
:205DE000F9F982464846FCF7F5F9C0F1800B05A8FCF7F0F9ABEB0000801E82450DD2029841
:205E000058B95F48FCF7E6F95D4900EB010A05AB4A465CA1504607F06DFD019814280FDA6A
:205E2000029868B95648FCF7D5F955490844A0F1010A56A1504607F05DFD13B0BDE8F08FFD
:205E40000198142806DA5748407820F00200801C544948700DF11E0000F09AF90646002028
:205E60008DF81E0005A800F093F90546202105A8FCF793F9C5208DF821006A208DF82200E2
:205E800029208DF823000E208DF82400FA208DF82500300E8DF82900300C8DF82800300A67
:205EA0008DF82700F0B28DF82600280E8DF82D00280C8DF82C00280A8DF82B00E8B28DF81B
:205EC0002A000DF12104207B8DF83700E07A8DF83600A07A8DF83500607A8DF83400207A08
:205EE0008DF83B00E0798DF83A00A0798DF8390060798DF838002C48DDE90D12C0E9141235
:205F000005F034FD29480078012810D11C48FCF761F97A2821D21A48FCF75CF918490844CB
:205F200023A10A6840F8012C0979C17015E01F480078022811D11248FCF74CF97A280CD221
:205F40000F48FCF747F90E4908441BA10A6840F8012D8A8882808979817114480078009014
:205F60006A460C21022002F0FDFE02F015F800BF63E700002F636D642F636F646500000000
:205F80005E0B002025732573222C00006973206E6F7420636F727265637420666F726D6166
:205FA000742E20003A020020D8740020740300202075736522000000206572726F722200C5
:205FC0002DE9F04704460D462846FCF703F9C6B2A0192221FDF700FEC7B2082F00DB08275A
:205FE000154800218160C160A1193A460830FCF7BBF81248FCF7EEF880462846FCF7EAF8CD
:20600000C0F180090C480830FCF7E4F8A9EB0000801E80450CD20948FCF7DCF8074900EBC3
:206020000108054B08332A4605A1404607F062FC01F0B2FFBDE8F087BA1300205E0B0020A7
:2060400025732573222C000070B51648FCF7C2F80446224613491448FCF786F83C211348FF
:20606000FCF79BF81248FCF7B5F80446224610490E48FCF779F80C48FCF7ACF805460B4852
:20608000FCF7A8F8094944182A4607492046FCF76BF80648FCF79EF80449084405A109889C
:2060A000018070BDD87400200A0C0020860C00202B1701082F23000070B50446142119483C
:2060C000FCF76BF81848FCF785F805462A4616491448FCF749F840211448FCF75EF814488E
:2060E000FCF778F805462A4611491048FCF73CF80C48FCF76FF806460C48FCF76BF80B49B1
:206100004518324607492846FCF72EF84CB10748FCF760F805494518224606A1284607F01D
:20612000E9FB70BD0A0C0020D8740020460C002018170108257300002DE9F04706460F467C
:20614000124800881FFA80F93846FCF743F81FFA80F8002513E0002407E02819305C395D08
:20616000884200D003E0601C84B24445F5DB00BF444502D17019BDE8F087681C85B2A9EB88
:206180000800A842E7DC0020F5E700005C0000202DE9F041054600242846FCF71BF8C7B22F
:2061A000002600BF0EE0285D302802DB285D392800DD09E006EB86004600285D30380644B2
:2061C000601CC4B2BC42EEDB00BF3046BDE8F0812DE9F84F82460C465046FBF7FBFF8346F9
:2061E000002500260020009000274FF00308814600BF2FE01AF8090019490D5CFF2D01D1BA
:2062000000202070FD2D00D122E0FE2D02D10025A8F1010845EA86160098401C0090042891
:2062200015D1C6F3074238467F1C2254B8F1010F04DDC6F3072238467F1C2254B8F1020F22
:2062400002DD38467F1C265400200646009000BF09F10109D945CDDBB8B2BDE8F88F0000B1
:206260005C3201082DE9F0410546134600200022002600241BB900270F70BDE8F08100245C
:206280003AE02A5D032794FBF7FC07FB1C4727B1012F0CD0022F2CD116E0334F07EB920737
:2062A00097F800800746401C01F8078021E0B707BF0E47EA1217DFF8B0C01CF80780074691
:2062C000401C01F8078014E03707BF0E47EA9217DFF894C01CF807800746401C01F807801A
:2062E00002F03F071CF807800746401C01F8078000BF00BF1646641C9C42C2DB032793FB15
:20630000F7FC07FB1C37012F15D102F00307DFF858C00CEB071797F800800746401C01F86E
:2063200007804FF03D080746401C01F807800746401C01F80780032793FBF7FC07FB1C3700
:20634000022F0FD102F00F07DFF81CC01CF827800746401C01F807804FF03D080746401C60
:2063600001F8078000BF88E71C32010810B500244FF480711148FBF710FF4FF48071104815
:20638000FBF70BFF00BF03E00C490C55601C84B2802CF9DB80220A490848FFF763FF4FF497
:2063A00080710648FBF7F9FE04490548FFF710FF034904A007F08EFA10BD00004075002005
:2063C000407600206261736536343A2573000000F0B59BB00025002012900026002711904B
:2063E000604C202113A8FBF7D8FE00F0DFF812AA13A9204600F060FC002870D09DF84800F7
:2064000000286DD058480078001F08282AD2DFE800F0042A3D505F686F829DF84800202865
:2064200008DA13AA51A101A807F064FA53A101A8FFF798FC5548007828B9202213A9544816
:20644000FBF792FE00E000BF5048007850497C3981F844011820444908704E49087064202F
:2064600003F0D4FB6AE04A487C38BDF84C10A0F89C1011AA0121084602F0DEF9BDF8440088
:206480004549C1F8C80101F087FD57E040487C38BDF84C10A0F89E1011AA0221012002F0BC
:2064A000CBF9BDF844003C49C1F8CC0101F074FD44E0202213A936482430FBF755FE364AF9
:2064C00068320321012002F0B7F901F065FD35E02F487C38BDF84C10A0F89E102EE03FE024
:2064E0002DE0202213A92A484630FBF73DFE25E027487C38BDF84C10A0F8E21011AA0621D7
:20650000012002F099F9BDF84400234981F8C40101F042FD12E01E487C38BDF84C10A0F84E
:20652000E41011AA0721012002F086F9BDF844001949C1F8D40101F02FFD00BF00BF4FF42B
:2065400080710848FBF729FE00201449C880054808600548007800F069F8642003F056FB89
:206560001BB0F0BD420D0020A60000202F636D642F636F64652F2225732200002F636D64D3
:206580002F636F64652F222A300000007403002061680020A9000020AC120020000000203F
:2065A0000120014908707047A700002010B500241B480078002832D01A48008820B1194870
:2065C0000088401E1749088016480088B0B91648007800F02BF800211348007802F090FD42
:2065E000002408E0E0B202F0F3F910B10E490C7003E0601C84B2552CF4DB00BF552C04D191
:2066000009480078401C0849087007480078542802DD00200449087000200149087010BDD6
:20662000A7000020AC000020A900002070B588B004460025002620216846FBF7AEFD552CFF
:2066400070D2DFE804F02B333C454D565E66707881899199A2F1F9EEEDECEBEAE9E8E7E615
:20666000E5E4E3E2E1E0DFDEDDDCDBDAD9D8D7D6D5D4D3D2D1D0CFCECDCCCBCAC9C8C7C66A
:20668000C5C4C3C2C1C0BFBEBDBCBBBAB9B8B7B6B5B4B3B2B1B0AFAEADACAB000126142235
:2066A000F7496846FBF760FD2025F6E201262022F34914316846FBF757FD2025EDE2012667
:2066C0002022EF4934316846FBF74EFD2025E4E20126EB48416F0091806F01902025DCE2C7
:2066E00001262022E6497C316846FBF73DFD2025D3E20126E248B0F89C00ADF80000022520
:20670000CBE20126DE48B0F89E00ADF800000225C3E201262022DA49A0316846FBF724FDAA
:206720002025BAE2B8E20126D548B0F89E00ADF800000225B1E201262022D149C2316846D1
:20674000FBF712FD2025A8E20126CD48B0F8E200ADF800000225A0E20126C948B0F8E40091
:20676000ADF80000022598E20126C548B0F8E600ADF80000022590E201261022C049E83158
:206780006846FBF7F1FC202587E201261022BC49F8316846FBF7E8FC20257EE274E26BE26B
:2067A00062E259E250E247E23EE235E22CE223E21AE211E208E2FFE1F6E1EDE1E4E1DBE1D6
:2067C000D2E1C9E1C0E1B7E1AEE1A5E19CE193E18AE181E178E16FE166E15DE154E147E1C5
:2067E0003EE135E12CE123E11AE111E108E1FFE0F6E0EDE0E3E0DAE0D0E0C6E0BDE0B4E0F7
:20680000ABE0A2E099E090E088E07FE076E06DE064E05BE052E049E040E037E02EE025E0F4
:206820001CE012E008E0FFE70126102295496846FBF79AFC202530E2012610229149103164
:206840006846FBF791FC202527E2012610228D4920316846FBF788FC20251EE201268848DD
:20686000B0F83801ADF80000022516E201268448B0F83A01ADF8000002250EE201268048F2
:20688000B0F83C01ADF80000022506E201267C48B0F83E01ADF800000225FEE101267848FB
:2068A000B0F84001ADF800000225F6E101267448B0F84201ADF800000225EEE10126704804
:2068C000B0F84401ADF800000225E6E101266C48B0F84601ADF800000225DEE1012668480C
:2068E000B0F84801ADF800000225D6E101266448B0F84A01ADF800000225CEE10126604814
:20690000B0F84C01ADF800000225C6E101265C48B0F84E01ADF800000225BEE1012658481B
