:020000040800F2
:20000000B81C002045010008D1070008A10500084D07000855020008A50D0008000000009B
:20002000000000000000000000000000190800087102000800000000090800081B080008D8
:200040005F0100085F0100085F0100085F0100085F0100085F0100085F0100085F01000860
:200060005F0100085F0100085F0100085F0100085F0100085F0100085F0100085F01000840
:200080005F0100085F0100085F0100085F0100085F0100085F0100085F0100085F01000820
:2000A0005F0100085F0100085F0100085F0100085F0100085F0100085F0100085F01000800
:2000C0005F0100085F0100085F0100085F0100085F010008D10B0008210C0008710C00087A
:2000E0005F0100085F0100085F0100085F0100085F0100085F0100085F0100085F010008C0
:200100005F0100085F0100085F0100085F010008310B0008810B00085F0100085F01000897
:200120005F0100085F0100085F0100085F010008DFF80CD000F03CF800480047311400086C
:20014000B81C00200648804706480047FEE7FEE7FEE7FEE7FEE7FEE7FEE7FEE7FEE7FEE70F
:20016000290800083101000840EA01039B0703D009E008C9121F08C0042AFAD203E011F8D0
:20018000013B00F8013B521EF9D27047D2B201E000F8012B491EFBD270470022F6E710B5C5
:2001A00013460A4604461946FFF7F0FF204610BD064C074D06E0E06840F0010394E807004A
:2001C00098471034AC42F6D3FFF7B6FF001C0008201C000870B58C1810F8015B15F00703F6
:2001E00001D110F8013B2A1106D110F8012B03E010F8016B01F8016B5B1EF9D12B0705D499
:200200000023521E0DD401F8013BFAE710F8013BCB1A921C03E013F8015B01F8015B521E6E
:20022000F9D5A142D8D3002070BD000001490120087170473C0000207047000001490120FC
:20024000487070474800002001490120087070474E000020FEE70000014901204870704700
:200260005000002001490120C8707047600100207047000003484EF66021D0F8B001484368
:2002800070470000740300200148D0F8D40170477403002003484FF47A71D0F8D00148433F
:2002A00070470000740300200448D0F8AC0118B14EF66021484370470148704774030020C8
:2002C000E09304000B4810B50178002910D00021017000F08FFA014668220748FFF744FFA9
:2002E000BDE81040044A4FF41671002000F006B810BD0000AF010020740300202DE9F041A8
:20030000002416460D4680464F090CE008EB441081B206EB44132022A02000F048F90520E6
:2003200000F0F2F8641CBC42F0D3E8060BD008EB441006EB441305F01F02BDE8F04181B22B
:20034000A02000F034B9BDE8F0812DE9F041074600F086FF40F20534204600F01BFF651E83
:20036000284600F017FFE61E304600F013FF384600F032FF204600F00DFF284600F00AFF25
:20038000304600F007FFBDE8F04100F011BF00002DE9F04715460F46064600F061FF00249E
:2003A00040F205384FF4417940F2023A19E000BF55F8241006EB840000F06EFF55F82400E7
:2003C00056F82410884202D00020BDE8F087404600F0E0FE484600F0DDFE504600F0DAFEB8
:2003E000641CBC42E4D300F0E3FE0120EDE7000010B5002305E000BF50F8234042F823402E
:200400005B1C8B42F8D310BD0148807970470000B001002001490120C8717047B00100200A
:200420002DE9F04140F2026001F018F940F2036001F014F940F2046001F010F940F2056025
:2004400001F00CF92E4E4FF4005301221421304600F098FF4FF4804301221421304600F07B
:2004600091FF4FF40044234601221421304600F089FF244F01231A461021384600F082FF9F
:20048000022301221021384600F07CFF102301221946304600F076FF8023012210213046FD
:2004A00000F070FFE5112B4601221021304600F069FF234601221021384600F063FF2B4656
:2004C00001221021384600F05DFF01228021304600F052FF01222946304600F04DFF01221C
:2004E0000221384600F048FF01221021304600F043FF21463846BDE8F041012200F03CBF5F
:20050000001001400008014004490A68431C00D0401C0B689B1A8342FBD37047AC020020B7
:200520002DE9F0411C480168491C01601B4E002505EB450706EB870461684868C0B10A782F
:20054000D20723D06288012A16D1401E486061680ED1087820F0F80008300870616882079B
:2005600002D420F001000870A16809B16068884760680078C00709D0608838B936F82700B4
:20058000082803D1A16809B1606888476D1CEDB2152DCDD3BDE8F081AC020020F0180008FF
:2005A000FEE70020401CC0B23228FBD3704770B51D4614460E4600F069F8A8B1300A00F07F
:2005C00017F888B1F0B200F013F868B106E015F8010B00F00DF838B1641EA4B2002CF6D175
:2005E00000F08AF8012070BD00F086F8002070BD2DE9F041244E074680244FF47A753C4226
:2006000001D0012200E000228021304600F0B4FEFFF7C7FFFFF7C5FF01224021304600F0CB
:20062000ABFEFFF7BEFF00224021304600F0A4FEFFF7B7FF6408E2D1012280213446304654
:2006400000F09AFEFFF7ADFF01224021204600F093FEFFF7A6FF8021204600F0DEFE18B1CE
:200660006D1E2D042D0CF6D1FFF79BFF00224021204600F081FEFFF794FF15B10120BDE8C1
:20068000F0810020FBE70000000C014070B5194D06464FF47A7401228021284600F06CFE06
:2006A000FFF77FFF01224021284600F065FEFFF778FF4021284600F0B0FE18B9641E24042C
:2006C000240CF6D1FFF76DFF94B100228021284600F052FEFFF765FF00224021284600F0D0
:2006E0004BFEFFF75EFF3046BDE87040FFF780BF002070BD000C014010B50C4C00228021E4
:20070000204600F039FEFFF74CFF01224021204600F032FEFFF745FF01228021204600F0AD
:200720002BFEBDE81040FFF73CBF0000000C01400248C079002800D001207047BC0100202D
:200740000149887170470000BC010020FEE700000249CA7860F34102CA707047CA010020DE
:200760000248C078C0F3400070470000CA0100200149012008707047C8010020054AD17847
:2007800060F3000121F0FC00D0700120911E087070470000CA010020094906230122C878F0
:2007A000B3EB900F04D902EB900363F3870001E020F0FC00C8700248801E0270704700008C
:2007C000CA0100200149887070470000B001002070470907090E002806DA00F00F0000F18E
:2007E000E02080F8141D704700F1E02080F8001470470000004870474C0600200149012089
:2008000048707047D001002070470000014902200870704750020020704710B500F070FCDC
:20082000BDE81040FFF77CBE214808B5016841F00101016001688907FCD5416841F080014B
:20084000416000210091009A521C0092502AFAD3426842F0900242600091491C0091502954
:20086000FBD3416821F003014160026811490A4002604268104B1A40426002680A400260C4
:20088000026822F48022026042680C4B1A40426002680A4002604FF41F01816000F008FF86
:2008A000BDE8084000214FF0006000F061BE000000100240FFFFF6FE0C00FFE8FFFF00F750
:2008C00010B50178002221F0010101700121074800F052FD0120FFF751FF05484FF4FA6231
:2008E0000178426041F00301017010BD000C0140E80200207047000010B50020FFF720FF62
:2009000001490020087010BD4C02002010B50446FFF7C0FC6060FFF777FD002808D0FFF7D9
:20092000B3FC002804D0BDE810400520FFF74ABF10BD4FF4FA614160FFF72EBF10B54FF4FC
:20094000C8714160FFF70CFF30B10020FFF700FFBDE81040FFF70CBF0120F7E74FF47A71E3
:200960004160FFF771BC64214160FFF775BC10B50446FFF799FC6060FFF748FFFFF74AFD92
:20098000BDE810404FF4FA60AFF3008004494860087820F0F80040F00100087070470000C6
:2009A000F802002070B54D4C207840F003002070FFF77AFC60602078002220F0F800207086
:2009C00004F1400064250178426021F0FB01017030384FF47A720178456021F0F80141F0D0
:2009E00003010170083004F1180100784D6020F0F80040F00300087001F1080008310078B9
:200A00004D6020F0F80040F00300087001F1080058340178426021F0F80141F00301017025
:200A2000207820F0020040F001002070FFF722FC60602078002220F0F8002070A4F1280068
:200A400038340178426021F0FB01017008300178426021F0FB01017018300178426021F04C
:200A6000FB010170103047F230520178456021F0F80141F00301017008300178426021F0DC
:200A8000FB010170083042F210720178426021F0FB01017008300178426021F0FB01017091
:200AA00008300F4A0178426021F0FB010170083043F698220178426021F0FA0141F0010187
:200AC0000170207840F003002070FFF7E3FB6060207820F0F800207070BD0000B002002087
:200AE000A0BB0D0010B504460078C0070AD0FFF71FFE002806D060684FF6FF71884201D23B
:200B0000401C606010BD4FF47A714160FFF776BE10B504464FF47A706060FFF7A3FBFFF76D
:200B200085FB4FF496706060BDE81040FFF786BB70B5104D0E49284600F09FFE88B10E4C99
:200B4000206870B1284600F03DFEE18822680A44491CE1801070E088A188884201D300207D
:200B6000E0802846BDE87040044900F086BE000005030500004C00402800002007030700DF
:200B800070B5104D0E49284600F077FE88B10E4C206870B1284600F015FEE18822680A44BB
:200BA000491CE1801070E088A188884201D30020E0802846BDE87040044900F05EBE000024
:200BC0000503050000500040300000200703070070B5104D0E49284600F04FFE88B10E4C00
:200BE000206870B1284600F0EDFDE18822680A44491CE1801070E088A188884201D300202E
:200C0000E0802846BDE87040044900F036BE000005030500003801401000002007030700B9
:200C200070B5104D0E49284600F027FE88B10E4C206870B1284600F0C5FDE18822680A44BB
:200C4000491CE1801070E088A188884201D30020E0802846BDE87040044900F00EBE0000D3
:200C60000503050000440040180000200703070070B5104D0E49284600F0FFFD88B10E4CD4
:200C8000206870B1284600F09DFDE18822680A44491CE1801070E088A188884201D30020DD
:200CA000E0802846BDE87040044900F0E6BD0000050305000048004020000020070307004B
:200CC00010B500221146272000F004FC40F2036000F0C4FC40F2127000F0C0FC0A4C4FF461
:200CE000806303221821204600F04CFBE31403220421204600F046FBBDE810404FF416519F
:200D0000024800F01FB80000000C0140004800402DE9F0410E4607460024094D0BE0395D0A
:200D2000284600F053FD0721284600F084FD0028F9D0641CA4B2B442F1D3BDE8F081000067
:200D40000048004070B50C46054600F043FD2146284600F00BFD0021284600F0C1FD0021EE
:200D6000284600F0AFFD0021284600F09DFD0021284600F071FD0021284600F067FD04215B
:200D8000284600F099FD0821284600F0A3FD284600F04CFD2846BDE87040014900F062BD75
:200DA00005030500FEE7000070B5074800254FF40074057021460548FFF7EFF90448C58059
:200DC00084800249016070BD58030020B4060020200000202DE9F04F864F002585B0F8889D
:200DE0002E46854C4FF4007A4FF0020B2070DFF80C92A8464FE000BF19F805205A2A48D1F1
:200E000009EB050002904078012842D102984079FA28A1EB050020D00A283AD3029804215F
:200E2000001D00F0FFFA0299754A0B6813604B6853600989118181422BD1554651466F483A
:200E4000FFF7ABF984F8008084F801B00126A7F80680BD80C7F8009020E0942819D30298B5
:200E60000421001D00F0DEFA019002988021103000F0D8FA0490942261480299FFF774F9A9
:200E80005F4901980A89824203D1B1F892100498D1E76D1CEDB221788D42ADD36078032834
:200EA00066D2DFE800F065650200002E60D05248534D1430017821F00101017028790028D5
:200EC00056D0012854D0022852D1687948F20117F72816D006DC05284AD2DFE800F04949A6
:200EE00049490C00474EF838052841D2DFE800F01014264354000520FFF706FB4FF4004216
:200F000003E00520FFF700FB3A460121F72057E001213A46F82053E05FF0000506EB852011
:200F2000FFF713FAAD1CEDB2642DF7D305206660FFF7EAFA01221146F92041E06889304A07
:200F4000810810326068FFF723FA48B101221146FA2000F061F8688961680844606004E06B
:200F600000220121FA2000F057F8E868C4E9020805B0BDE8F08FE068234A20213044FFF794
:200F800037FA21498020103901224881E06811468030E060FB2013E04FF01A30164A1B4DF3
:200FA0002061103204212846FFF7F2F90A20FFF7ABFA28682169884207D000220121FC201A
:200FC00005B0BDE8F04F00F027B801221146FC2000F022F80A20FFF797FA71B6BFF34F8FA1
:200FE0000B4801680B4A01F4E06111430160BFF34F8FFEE72000002058030020B4060020EB
:20100000B40A002000200008C4080020C0FC03080CED00E00400FA0570B505462048224CF5
:20102000032985701F4822D00168216041686160008920816571E2800421201D00F0F2F943
:2010400020810520FFF760FAFB2D20D00A211648FFF75EFE4FF4007421461448FFF79DF882
:2010600013480021C18084801049016070BD50F80A1F216041686160008920810820E072C8
:2010800065710221201D00F0CDF9E080D9E706488021103000F0C6F9A4F892009421D6E7C6
:2010A00058030020EC190008B4080020B40600202000002002E008C8121F08C1002AFAD111
:2010C00070477047002001E001C1121F002AFBD17047000070B54FF6FF75074E08E0040AD8
:2010E00005EA002311F8010B604036F810005840521E92B2F3D270BD001A000870470000D4
:2011000003480168002902D00168491E016070473800002000B5034600F008F85B1E012850
:2011200002D1002BF8D1042000BD000008490020CA68D20701D001207047CA68D20601D502
:2011400003207047C9684907FBD50220704700000020024000B5034600F008F85B1E012899
:2011600002D1002BF8D1042000BD000008490020CA6CD20701D001207047CA6CD20601D5BA
:2011800003207047C96C4907FBD502207047000000200240054901EB90110A6800F01F0386
:2011A0000120984002430A6070470000002002400748016941F08001016106490988B1F51B
:2011C000007F03D9016D41F0800101657047000000200240E0F7FF1F70B505461D481E4CE1
:2011E0004FF470260088B0F5007F02D91B48854215D23046FFF78EFF00280FD1206940F0C4
:20120000020020616561206940F0400020613046FFF780FF216921F00201216170BD30465D
:20122000FFF798FF0028F9D1206D40F0020020656565E069800700D56561206D40F04000B9
:2012400020653046FFF786FF216D21F00201216570BD0000E0F7FF1F00200240FFFF07085F
:2012600009480169094A0B06094901D542604160084B1B88B3F5007F04D9036D1B0601D583
:2012800042644164704700000020024023016745AB89EFCDE0F7FF1FF0B505461748184C82
:2012A0000E4600884FF47027B0F5007F02D91548854211D23846FFF72DFF00280BD1206945
:2012C00040F0010020612E603846FFF723FF216921F001012161F0BD3846FFF73BFF002896
:2012E000F9D1206D40F0010020652E603846FFF731FF216D21F001012165F0BDE0F7FF1FE6
:2013000000200240FFFF070830B5124A104B45F255551C461560D568641E05F0010502D07E
:20132000002DF8D100E04DB95160D1685B1E01F0020102D00029F8D102E009B1002030BD0D
:20134000C0F30B0090604AF6AA201060012030BDFFFF0F000030004002494AF6AA2008601D
:20136000704700000030004002494CF6CC40086070470000003000400AB1016170474161A8
:20138000704700002DE9F04301F00F04CD0600D5144300254FF00F095FF0010202FA05F685
:2013A0001E4014D007684FEA850C09FA0CF827EA080704FA0CF848EA0708282902D04829B4
:2013C00002D002E0466100E00661C0F800806D1CADB2082DE2D3082502FA05F61E4016D0F9
:2013E00047684FEA8508A8F1200809FA08FC27EA0C0704FA08FC4CEA070C282902D04829AD
:2014000002D002E0466100E00661C0F804C06D1CADB2102DE0D3BDE8F0838068084000D0BE
:20142000012070470A4601460020FFF753BE00001D4801681D48C160C168B1F11A3F0ED1BF
:201440001B490A681B4B1A40B2F1005F07D14A68826082684260086880F308889047FEF7BD
:20146000DFFFFFF72DFC062140F6B830FFF74CFFFFF77AFFFFF796FA00F058F9FEF7DCFEE4
:2014800000220DA110A0FFF739FE002201211048FFF772FFFFF788FCFFF75EFFFFF79AFC43
:2014A000FEF710FFF8E70000C0FC030800000020002000080000FE2F73797374656D2072D6
:2014C00065736574000000006D61696E000000000008014070B505461F4800240E460068B6
:2014E000234600F4E0614FF4A06081420FD006DCB1F5407F16D0B1F5806F06D10FE0B1F53B
:20150000C06F09D0B1F5E06F04D000F027F80224234608E0042306E00124032303E0032412
:20152000012300E00424C4F104008640C3F104010F20C8401040304305F1E021000181F8DC
:20154000000405F01F01012088406909890001F1E021C1F8000170BD0CED00E00249084345
:2015600002490860704700000000FA050CED00E0034A1140014303480160BFF34F8F704754
:2015800080FFFF1F08ED00E070B52EA588B02ECD8DE82E002CA22F4BD2E90012CDE904122A
:2015A00029A20446D2E90012CDE9061259680020C1F381022849FAB1012A1DD0022A1BD117
:2015C0005A6802F480354A10B5F5803F05D15D6805F40035B5F5003F00D111465A685D687A
:2015E000C2F383422D0101D542F010020F2A01D2921C00E0521C51435A68C2F303121DF8EC
:20160000025021FA05F25D6804AEC5F302255B68755D22FA05F5C3F3C22306AEF35C22FAAB
:2016200003F344B1012C08D0022C08D0032C00D1184608B070BD0846FBE71046F9E728469D
:20164000F7E70000000000000000000001020304060708090010024000127A00054901EB6C
:2016600090110A6800F01F030120984002430A607047000000100240054901EB90110A6847
:2016800000F01F030120984082430A607047000000100240054901EB90110A6800F01F03A8
:2016A0000120984002430A6070470000001002401B480021026842F0010202604FF4A063AE
:2016C0000268491C12F0020F01D19942F8D10168890700D4FEE741684160416841604168C3
:2016E00041F48061416041680E4A1140416041680D4A11434160016841F0807101600168F6
:201700008901FCD5416821F003014160416841F0020141604168C1F381010229FAD1704705
:2017200000100240FFFFC3F70000040870B50E484FF47A710068B0FBF1F0401EB0F1807FF8
:2017400011D24FF0E024606165170F212846FFF740F80020A061072020612846BDE87040CE
:201760000021FFF736B8FEE77003002070B5134B04460D460020E11A1A159C421BD005DCD8
:201780000F49611817D0914208D114E0914212D0B1F56C4F02D10320FFF7F6FE00EB5500BB
:2017A000B0FBF5F14FF6F07201EA020001F00F010843A06070BD0220EEE70000004C004008
:2017C00000BCFFBF4068C0F308007047C1F3080141607047134B10B5C21A1915984213D076
:2017E00007DC114A80180CD088421AD140F212440FE08A420BD0B2F56C4F12D140F20E34AB
:2018000007E040F2114404E040F2134401E040F214442046FFF73EFF2046BDE81040FFF798
:201820002BBF10BD004C004000BCFFBFC16841F40051C160704700EB9110006801F01F025E
:2018400001219140084000D001207047426922F400720A4342617047426922F480720A43CB
:201860004261704710B5C1F38912835801F01F040121A1400B43835010BD10B5C1F3891206
:20188000835800EB915001F01F04012202FA04F400682340C1F304418A40104202D00BB108
:2018A000012010BD002010BDC26822F4C062C260C2680A43C2607047C26822F004020A43EA
:2018C000C2607047026922F44052026102690A4302617047C26822F008020A43C26070477B
:2018E000C26822F48052C260C2680A43C260704700000100B00200206F090008010001000F
:20190000C00200206709000802000100C8020020110B000803000100D0020020070B00084C
:2019200004000100D80200205D09000805000100F00200200000000006000100B802002041
:201940000000000007000100F8020020000000000800000048030020E50A000809000100F1
:2019600008030020000000000A000100E0020020C10800080B000100E80200203309000804
:201980000C00010000030020F90800080D000100100300203D0900080E0001001803002035
:2019A000F50800080F00010020030020000000001000010028030020000000001100010061
:2019C0005003002000000000120001003003002000000000130001003803002000000000BF
:2019E00014000100400300200D0900085A0004000101000000005A00020003010000000091
:201A000000002110422063308440A550C660E770088129914AA16BB18CC1ADD1CEE1EFF1C6
:201A20003112100273325222B5529442F772D662399318837BB35AA3BDD39CC3FFF3DEE386
:201A40006224433420040114E664C774A44485546AA54BB528850995EEE5CFF5ACC58DD546
:201A60005336722611163006D776F6669556B4465BB77AA719973887DFF7FEE79DD7BCC706
:201A8000C448E5588668A7784008611802282338CCC9EDD98EE9AFF9488969990AA92BB9C6
:201AA000F55AD44AB77A966A711A500A333A122AFDDBDCCBBFFB9EEB799B588B3BBB1AAB86
:201AC000A66C877CE44CC55C222C033C600C411CAEED8FFDECCDCDDD2AAD0BBD688D499D46
:201AE000977EB66ED55EF44E133E322E511E700E9FFFBEEFDDDFFCCF1BBF3AAF599F788F06
:201B00008891A981CAB1EBA10CD12DC14EF16FE18010A100C230E3200450254046706760C5
:201B2000B9839893FBA3DAB33DC31CD37FE35EF3B1029012F322D232354214527762567285
:201B4000EAB5CBA5A89589856EF54FE52CD50DC5E234C324A0148104667447642454054445
:201B6000DBA7FAB79987B8975FE77EF71DC73CD7D326F2369106B016576676761546345605
:201B80004CD96DC90EF92FE9C899E9898AB9ABA94458654806782768C018E1088238A328C5
:201BA0007DCB5CDB3FEB1EFBF98BD89BBBAB9ABB754A545A376A167AF10AD01AB32A923A85
:201BC0002EFD0FED6CDD4DCDAABD8BADE89DC98D267C076C645C454CA23C832CE01CC10C45
:201BE0001FEF3EFF5DCF7CDF9BAFBABFD98FF89F176E367E554E745E932EB23ED10EF01E05
:201C0000201C00080000002074030000D4010008C81D00087403002044190000C41000084F
:201C2000014243E02E723E02100100FF005EBCE2613FDD83C29C7E20A3FD1F419DC3217F56
:201C4000FCA2401E5F01E3BD3E6082DC237D9FC1421CFEA0E1BF5D0380DE3C62BEE0025C98
:201C6000DF81633D7C22C09E1D43A1FF4618FAA427799BC584DA3866E5BB5907DB85673970
:201C8000BAE406581947A5FB7826C49A653BD987045AB8E6A7F91B45C6987A24F8A6441A58
:201CA00099C7257B3A6486D85B05E7B98CD2306EEDB3510F4E10F2AC2F7193CD114FADF330
:201CC000702ECC92D38D6F31B2EC0E50AFF1134DCE90722C6D33D18F0C52B0EE326C8ED018
:201CE000530DEFB1F0AE4C1291CF2D73CA947628ABF517490856B4EA6937D58B5709EBB5F0
:201D000036688AD495CB2977F4AA4816E9B7550B88D6346A2B7597C94A14F6A8742AC896D7
:201D2000154BA9F7B6E80A54D7896B021C35130106220C3549C90104160FB00E01101201EE
:201D40001A020D1DBB8041330D12031F01020960A01B0B1A040B5D076CA5C939B94601215A
:201D6000023F80880FC56A290EFBBE5D72C3B9B881FBDD1415FACEB3985D12ACCD5F1439C0
:201D80008E998F150103F70D1F0127BD0103F8DA1EB4AF010620153B43CA083C05420908F5
:201DA0001E07C3C80106201117B96F010310011F07510801033028178B0A0106F00204CD96
:201DC000029ACB0400A24A04FFFFFFFFFFFFFFFFFFFFFFFFFFFFFFFFFFFFFFFFFFFFFFFFC0
:201DE000FFFFFFFFFFFFFFFFFFFFFFFFFFFFFFFFFFFFFFFFFFFFFFFFFFFFFFFFFFFFFFFF03
:201E0000FFFFFFFFFFFFFFFFFFFFFFFFFFFFFFFFFFFFFFFFFFFFFFFFFFFFFFFFFFFFFFFFE2
:201E2000FFFFFFFFFFFFFFFFFFFFFFFFFFFFFFFFFFFFFFFFFFFFFFFFFFFFFFFFFFFFFFFFC2
:201E4000FFFFFFFFFFFFFFFFFFFFFFFFFFFFFFFFFFFFFFFFFFFFFFFFFFFFFFFFFFFFFFFFA2
:201E6000FFFFFFFFFFFFFFFFFFFFFFFFFFFFFFFFFFFFFFFFFFFFFFFFFFFFFFFFFFFFFFFF82
:201E8000FFFFFFFFFFFFFFFFFFFFFFFFFFFFFFFFFFFFFFFFFFFFFFFFFFFFFFFFFFFFFFFF62
:201EA000FFFFFFFFFFFFFFFFFFFFFFFFFFFFFFFFFFFFFFFFFFFFFFFFFFFFFFFFFFFFFFFF42
:201EC000FFFFFFFFFFFFFFFFFFFFFFFFFFFFFFFFFFFFFFFFFFFFFFFFFFFFFFFFFFFFFFFF22
:201EE000FFFFFFFFFFFFFFFFFFFFFFFFFFFFFFFFFFFFFFFFFFFFFFFFFFFFFFFFFFFFFFFF02
:201F0000FFFFFFFFFFFFFFFFFFFFFFFFFFFFFFFFFFFFFFFFFFFFFFFFFFFFFFFFFFFFFFFFE1
:201F2000FFFFFFFFFFFFFFFFFFFFFFFFFFFFFFFFFFFFFFFFFFFFFFFFFFFFFFFFFFFFFFFFC1
:201F4000FFFFFFFFFFFFFFFFFFFFFFFFFFFFFFFFFFFFFFFFFFFFFFFFFFFFFFFFFFFFFFFFA1
:201F6000FFFFFFFFFFFFFFFFFFFFFFFFFFFFFFFFFFFFFFFFFFFFFFFFFFFFFFFFFFFFFFFF81
:201F8000FFFFFFFFFFFFFFFFFFFFFFFFFFFFFFFFFFFFFFFFFFFFFFFFFFFFFFFFFFFFFFFF61
:201FA000FFFFFFFFFFFFFFFFFFFFFFFFFFFFFFFFFFFFFFFFFFFFFFFFFFFFFFFFFFFFFFFF41
:201FC000FFFFFFFFFFFFFFFFFFFFFFFFFFFFFFFFFFFFFFFFFFFFFFFFFFFFFFFFFFFFFFFF21
:201FE000FFFFFFFFFFFFFFFFFFFFFFFFFFFFFFFFFFFFFFFFFFFFFFFFFFFFFFFFFFFFFFFF01
:202000004084002045210008419900085D85000849930008ED62000871BF0008000000002F
:202020000000000000000000000000005DB10008696500080000000079A5000881B3000852
:202040005F2100085F2100085F2100085F2100085F2100085F210008C96800085F2100088F
:202060005F2100085F2100085F2100085F2100085F2100085F2100085F2100085F21000820
:202080005F2100085F2100085F2100085F21000895BC00085F2100085F2100085F2100082F
:2020A0005F2100085F2100085F2100085F2100085F2100085F2100085F2100085F210008E0
:2020C0005F2100085F2100085F2100085F2100085F2100087DBB0008D5BB000835BC000887
:2020E0005F2100085F2100085F2100085F2100085F2100085F2100085F2100085F210008A0
:202100005F2100085F2100085F2100085F210008BDBA00081DBB00085F2100085F21000830
:202120005F2100085F2100085F2100085F210008DFF80CD000F04EFB0048004741D20008E9
:20214000408400200648804706480047FEE7FEE7FEE7FEE7FEE7FEE7FEE7FEE7FEE7FEE7FF
:202160008DB300083121000840EA01039B0703D009E008C9121F08C0042AFAD203E011F881
:20218000013B00F8013B521EF9D27047D2B201E000F8012B491EFBD270470022F6E710B5A5
:2021A00013460A4604461946FFF7F0FF204610BD30B505462A460B4612F8010B13F8014B57
:2021C00008B1A042F8D01CB1002802D06D1CF1E7284630BD421C10F8011B0029FBD1801A08
:2021E000704770B5064609F0D9FE046805460A220021304600F028FA2C6070BD2DE9FE4F3F
:20220000804681EA0300C00F0C46009021F0004123F00045B8EB0200A94105D240462146DC
:2022200090461C460B46024623F00040104347D0270DC7F30A00C3F30A510290401A01908A
:2022400040286BDAC3F3130040F4801B0098924620B10023D2EB030A63EB0B0B019859466F
:20226000C0F14002504600F0BEF906460D4650465946019A00F0D6F910EB08006141002437
:2022800087EA115284EAE7731A4340D0009A62B3019A012A4FEA075215DC001B61EB0201D3
:2022A0004FF0004202EA0752CDE90042001C41F5801132462B4600F00EFA03B0BDE8F08FC5
:2022C00040462146F9E7001B61EB0201001C41F5801300185B412018A2F5001747EB030112
:2022E00040EAD570B6196D4111E06D084FEA360645EAC0754FEA0752001B61EB0201001C9B
:2023000041F5801149084FEA30000019514132462B4603B0BDE8F04F00F0CEB900980122DF
:2023200040000023D0EB020263EBE073009821464FEAE074B8EB000061EB0401E9E783F017
:2023400000435BE781F0004158E72DE9FE4F81EA030404F0004421F0004100944FF0000BCA
:2023600023F0004350EA01045ED052EA03045BD0C3F30A54C1F30A552C44A4F2F334019443
:20238000A0FB0254C1F3130141F48011C3F3130343F4801301FB024400FB034E840A970A6B
:2023A00044EA815447EA8357A4FB076802958D0A05FB07854FEA932C04FB0C542705029D25
:2023C0004FEA065847EA1637B5EB08056EEB070C870E920E47EA811742EA8312A7FB02016B
:2023E000B6EB0B0164EB00042B0D43EA0C335E1844EB1C50DA465146E7FB0201C5F31304BD
:202400004FEA0B3343EA14534FEA0432019C43EA0603A4F10C040294009CCDE900B400F03E
:202420005AF903B0BDE8F08F00200146F9E72DE9F04D81EA030404F0004B21F00045144677
:202440004FF0000A23F0004150EA050220D054EA01021DD0C5F30A570246C5F31303C1F39D
:202460001300C1F30A5640F4801543F48013A7EB0608101BD64608F2FD3873EB050002D354
:2024800008F1010801E092185B41B8F1000F03DA00200146BDE8F08D00204FF480110646B5
:2024A00084460EE0171B73EB050705D3121B63EB050306434CEA010C49084FEA300092187D
:2024C0005B4150EA0107EDD152EA030012D082EA040083EA0501084305D0101BAB4106D24D
:2024E0000122002306E000224FF0004302E06FF0010253101AEB06004CEB085110EB0A00C5
:2025000041EB0B01BDE8F04D00F0D6B80EB540F2334102910021CDE900110A460B4600F0AE
:20252000DAF803B000BD000030B5041E71F1000404DB4FF00044404264EB0101141E73F121
:20254000000405DB1C464FF00043524263EB04038B4208BF824230BD30B50B4601460020E8
:202560002022012409E021FA02F59D4205D303FA02F5491B04FA02F52844151EA2F10102C0
:20258000F1DC30BD2DE9F05F0546002092469B4688460646814640241BE028464146474636
:2025A000224600F02FF853465A46C01A914110D311461846224600F016F82D1A67EB010817
:2025C0004F4622460120002100F00DF817EB00094E41201EA4F10104DFDC484631462A4625
:2025E0004346BDE8F09F202A04DB203A00FA02F1002070479140C2F1200320FA03F31943C4
:2026000090407047202A04DB203A21FA02F00021704721FA02F3D040C2F1200291400843BA
:2026200019467047202A06DBCB17203A41FA02F043EAE07306E041FA02F3D040C2F1200275
:2026400091400843194670472DE9F04791460F4680460446002614F8015B2DB100F0CCF89F
:202660000068405DC007F6D12B2D02D02D2D18D0641E4A463946204600F0C2F827B1396841
:20268000A14201D1C7F8008071054FF002040BD54042002803DD09F081FC0460A007BDE8FB
:2026A000F08746F48066E4E70028F8DA09F076FC04606FF00040F2E710B5141E73F1000418
:2026C00008DA401C41F1000192185B411A4301D120F0010010BD2DE9F04D92469B4611B168
:2026E000B1FA81F202E0B0FA80F220329046FFF77AFF04460F4640EA0A0041EA0B01534684
:202700005A46084313D0114653EA010019D0C8F140025046FFF776FF05460E46504659469D
:202720004246FFF760FF084305D0012004E020463946BDE8F08D0020054346EAE0762C4333
:2027400037430A986305E40AA0EB08000022FD0A44EA47540A3002D500200146E9E7010534
:2027600010196941DDE9084500196941BDE8F04DA2E7C1F30A52C1F3130140F2FF3341F4D4
:2027800080119A4202DA00200146704740F233439A42A2F2334202DC5242FFF733BFFFF7F5
:2027A00022BF000030B5041E71F1000404DB4FF00044404264EB0101141E73F1000405DB1C
:2027C0001C464FF00043524263EB0403994208BF904230BD064C074D06E0E06840F00103C3
:2027E00094E8070098471034AC42F6D3FFF7A4FCAC1B0108CC1B010800487047080F010807
:202800002DE9F05F82460078002715468B460AF10104B946302801D09DB113E014F8010B3F
:202820000127782803D0582801D045B10AE00DB1102D07D10027102514F8010B02E0082576
:2028400000E00A250026B0460EE005FB080005FB06F1012701EB10461FFA80F8B6F5803FFB
:2028600000D3B94614F8010B294600F018F80028EBDABBF1000F05D00FB1641E00E05446C6
:20288000CBF80040B9F1000F06D009F087FB02210160C81EBDE8F09F48EA0640FAE73A28D2
:2028A00000D2303820F02002412A01D3A2F13700884201D34FF0FF30704770B58C1810F80F
:2028C000015B15F0070301D110F8013B2A1106D110F8012B03E010F8016B01F8016B5B1EFC
:2028E000F9D12B0705D40023521E0DD401F8013BFAE710F8013BCB1A921C03E013F8015B58
:2029000001F8015B521EF9D5A142D8D3002070BD10B5002400BF20E0C4EBC40101EB4421DC
:20292000144A02EB810040F61C01FFF736FCC4EBC40101EB44210F4B03EB810204EB44018C
:202940004FF4806303EB812040F61C0103F06EFF052005F02FFD601CC4B2082CDCDB05489F
:202960000068401C20B944F2E0010248FFF715FC10BD0000641500202DE9F0438BB0002642
:2029800000200A900990152008F03AFE002873D0152008F011FEF948D0F85002002862D023
:2029A000F7480088401CF649088008460088B0F5616F58DB202101A8FFF7EFFBF148008824
:2029C000C0EBC00101EB4020EF4901EB8007202101A8FFF7E2FBEB49098801EB41014FF4A1
:2029E000806202EB8121E94A1288881801AA202103F01CFFE5480088074400240FE001A843
:202A0000005D395D884208D0022005F0D3FC3A462021480103F030FF03E0601C84B2202C2E
:202A2000EDD300BFD94800882030D84908800846008840F61C01884214D30020D3490880D7
:202A4000D0480088401CCF490880CC48D0F850020988884206D80020CC490880C94908801C
:202A6000C749088000BF00241FE202274FF000084FF0000900BF3DE01FE24FF000082EE0F0
:202A800000200790089007AA4146384604F058FB08B304EB4402BE4901EB420007A9FFF71F
:202AA00087FBC0B100200A900990032F08D1B8F1040F05D10AAA4146384604F0C3FA07E0E2
:202AC00009AA4146384604F0BDFABDF824000A904FF0010907E008F1010000F0FF08AD480A
:202AE000C05D4045CCDC00BFB9F1000F00D003E0781CC7B2052FC0DB00BFA74800EB0410D8
:202B000000683C2814D3C4EBC40101EB44219E4A02EB81003B2108F0F1FAC4EBC40101EB48
:202B20004421994A02EB81010A98C1F8EC0012E0994800EB041000683C21B0FBF1F201FB76
:202B40001200C4EBC40101EB44218F4A02EB81010A9A41F82020904800EB04100068401C9E
:202B60008D4901EB041108608B4800EB0410006800287DD0884800EB041000683C21B0FB28
:202B8000F1F201FB1200002872D1002600250BE0C4EBC40000EB44207B4901EB800050F869
:202BA00025000644681C85B23C2DF1DB7A4800EB041040683C2818D3C4EBC40101EB442139
:202BC000714A02EB810101F1F0003B2108F096FA3C20B6FBF0F1C4EBC40000EB44206A4AA1
:202BE00002EB8000C0F8DC1115E03C20B6FBF0F1694800EB041040683C22B0FBF2F302FB9D
:202C00001302C4EBC40000EB44205F4B03EB8000F03040F82210604800EB04104068401C90
:202C20005D4901EB041148605B4800EB0410406800289ED0584800EB041040683C21B0FB16
:202C4000F1F201FB120000289ED1002600250CE0C4EBC40000EB44204B4901EB8000F030D3
:202C600050F825000644681C85B23C2DF0DB00E0C2E0494800EB04108068182818D3C4EBDA
:202C8000C40101EB4421404A02EB810101F5F070172108F033FA3C20B6FBF0F1C4EBC40011
:202CA00000EB4420384A02EB8000C0F83C1216E03C20B6FBF0F1384800EB0410806818224B
:202CC000B0FBF2F302FB1302C4EBC40000EB44202D4B03EB800000F5F07040F822102E4875
:202CE00000EB04108068401C2B4901EB04118860294800EB0410806800287DD0264800EB0E
:202D0000041080681821B0FBF1F201FB1200002872D1002600250DE0C4EBC40000EB44207D
:202D2000194901EB800000F5F07050F825000644681C85B2182DEFDB174800EB0410808988
:202D4000B0F5B67F2ADDC4EBC40101EB44210E4A02EB810101F510704FF4B67108F0CEF967
:202D60001820B6FBF0F1C4EBC40000EB4420064A02EB8000C0F8F01728E0000058120020B9
:202D80005A0200205E020020641500205C020020AC140020CCFB0008E41400201820B6FB70
:202DA000F0F1474800EB0410808940F26D1290FBF2F302FB1302C4EBC40000EB4420414B1A
:202DC00003EB800000F5107040F822103C4800EB04108089401C3A4901EB041188813848B1
:202DE00000EB0410808900285DDD354800EB0410808940F26D1100E038E090FBF1F201FBD2
:202E0000120098BB002600250DE0C4EBC40000EB44202C4901EB800000F5107050F8250090
:202E20000644681C85B2B5F5B67FEEDD244800EB0410C0890A281ADBC4EBC40101EB442143
:202E4000204A02EB810101F2F470092108F056F940F26D10B6FBF0F1C4EBC40000EB4420CE
:202E6000184A02EB8000C0F8181813E01BE040F26D10B6FBF0F1C4EBC40000EB4420114A4F
:202E800002EB800000F2F4700D4A02EB0412D28940F822100A4800EB0410C089401C084909
:202EA00001EB0411C881601C84B2082C05DA0648D0F85002A0423FF6D8AD0BB0BDE8F0832C
:202EC000E4140020641500205812002001200149087070474700002010B502460B4606480A
:202EE0000088504300EB4004C4EB8010000B0A24B0FBF4F188B210BD3000002002460B4690
:202F00004FF49600B0FBF2F000F12D0188B27047704700002DE9F043002500260027A846DB
:202F2000A94600240AE0104830F8240005440E4800EB840040880644601CC4B21E2CF2DBC7
:202F40001E20B5FBF0F5B6FBF0F61E213046FFF7D5FF064908801E212846FFF7BDFF044905
:202F60000880BDE8F08300008406002030000020320000202DE9F04704460D462846FFF717
:202F800029F9C6B2A019222100F052FBC7B2202F00DB202720211448FFF7FFF8A1193A46B0
:202FA0001148FFF7E1F81148FFF714F980462846FFF710F9C0F180090B48FFF70BF9A9EB3F
:202FC0000000801E80450BD20848FFF703F9074900EB0108044B2A4605A1404608F0CAFF7F
:202FE00003F044FCBDE8F087C01200200A0B002025732573222C00002DE9F04704460D46F3
:203000002846FFF7E7F8C6B2A019222100F010FBC7B2102F00DB10271648002101634163AD
:203020008163C163A1193A463030FFF79DF81248FFF7D0F880462846FFF7CCF8C0F1800923
:203040000C483030FFF7C6F8A9EB0000801E80450CD20948FFF7BEF8074900EB0108054BA2
:2030600030332A4605A1404608F084FF03F0FEFBBDE8F087C01200200A0B00202573257377
:20308000222C00002DE9F04704460D462846FFF7A1F8C6B2A019222100F0CAFAC7B2102F1B
:2030A00000DB102716480021016241628162C162A1193A462030FFF757F81248FFF78AF8D2
:2030C00080462846FFF786F8C0F180090C482030FFF780F8A9EB0000801E80450CD20948D6
:2030E000FFF778F8074900EB0108054B20332A4605A1404608F03EFF03F0B8FBBDE8F087F0
:20310000C01200200A0B002025732573222C00002DE9F04704460D462846FFF75BF8C6B2F1
:20312000A019222100F084FAC7B2402F00DB402740211448FFF731F8A1193A461148FFF796
:2031400013F81148FFF746F880462846FFF742F8C0F180090B48FFF73DF8A9EB0000801E89
:2031600080450BD20848FFF735F8074900EB0108044B2A4605A1404608F0FCFE03F076FBB5
:20318000BDE8F087001300200A0B002025732573222C000010B590B0044640216846FEF7DA
:2031A000FCFF40216846FEF7F8FF012204A1684608F0E0FE684602F019FA10B010BD00008D
:2031C00041542B43474143543D312C25640D0A0010B590B0044640216846FEF7DEFF402102
:2031E0006846FEF7DAFF054A05A1684608F0C2FE684602F0FBF910B010BD0000C0120020E5
:2032000041542B434744434F4E543D312C224950222C222573220D0A00000000F0B585B07C
:2032200005462846FEF7D6FF86B2002004901A2003900120029006F0E3F8401E132804D061
:2032400014280BD0162808D146E02E215B4800F03FFA012103A800F03BFAACE002F054FB40
:2032600082200490012104A800F032FA5448FEF7B1FFC0B201909DF80400401D0090012142
:20328000684600F025FA00200490012104A800F01FFA01200490012104A800F019FA002040
:2032A0000490012104A800F013FA012101A800F00FFA9DF80410424800F00AFA0020049010
:2032C000012104A800F004FA0A2005F073F8012103A800F0FDF96EE006F08CF8072814D218
:2032E000DFE800F004070A0B0C0D100003F062FC0BE003F05FFC08E007E006E005E003F0B7
:20330000A7FF02E003F02AFB00BF00BF03F0EAFE074630200490012104A800F0D9F9294882
:20332000FEF758FFC0B201903846FEF753FF84B29DF804002044801C80B20090BDF8000033
:203340007F2819DDBDF80000C11700EB5161C1F3C71102919DF80800401EBDF80010A1EB3B
:20336000C01080B200900121684600F0B1F9012102A800F0ADF903E00121684600F0A8F9AB
:2033800000200490012104A800F0A2F9012101A800F09EF99DF804100A4800F099F90A2027
:2033A00005F008F82146384600F092F9012103A800F08EF900BF00BF05B0F0BD75000020FF
:2033C000320C0020F20B00200121034A11700021024A1170704700005500002054000020F4
:2033E00010B5A2B004461648FEF7F4FE082821D913484630FEF7EEFE88B111484E30FEF746
:20340000E9FE60B10E494E31A1F10800831F0C4ACDE900010BA102A808F0ACFD06E0084B65
:203420004033074A11A102A808F0A4FD02A802F0DDF803E01548006802F0D8F822B010BD59
:203440000013002041542B43495053544152543D22544350222C222573222C222573222C6B
:20346000222573222C222573220D0A0041542B43495053544152543D22544350222C22254C
:2034800073222C222573220D0A0000007000002010B590B0044640216846FEF77EFE054ACA
:2034A00005A1684608F066FD684602F09FF810B010BD0000FC0A002041542B434D47523D4D
:2034C00025730D0A0000000070B505461A48FEF781FE07280AD81848FEF77CFE164908446C
:2034E000441E16A1204608F045FD0EE01248FEF771FE7D2809D21048FEF76CFE0E4908448D
:20350000441E11A1204608F035FD0B4802F06EF8022004F04FFF01210C4800F0D9F8802120
:203520000548FEF73AFE044909A002680A6082888A808079887170BD0A0B00206572726F27
:20354000727D0D0A000000007D0D0A00650000207265706C793A7B0010B5044606A002F0C4
:2035600045F8084802F042F807A002F03FF814210448FEF712FE10BD41542B434D47533D48
:20358000220000008A0B0020220D0A0070B5054600240A2004F00EFF70BD000010B5A2B018
:2035A00004461448FEF716FEE8B112482030FEF711FE78B10F483030FEF70CFE50B10D48E0
:2035C0003030A0F110030B4A0BA1009002A808F0D1FC04E0074A0FA102A808F0CBFC02A8EF
:2035E00002F004F803E01148006801F0FFFF22B010BD0000C012002041542B435354543D7E
:20360000222573222C222573222C222573220D0A0000000041542B435354543D2225732290
:203620002C22222C22220D0A000000006C00002010B502460B460020002100BF03E0441C66
:20364000A0B24C1CA1B2545C9C4202D0545C002CF5D110BD10B50020134908701349087001
:203660004FF480611248FEF798FD0020114908601149086080211148FEF78FFD0F4810A11B
:203680000A6802608A8882808979817114210E48FEF783FD06480D4908600020C8804FF497
:2036A0008060888010BD00005400002055000020FC060020600000205C0000200A0B002019
:2036C0007265706C793A7B008A0B00200800002070B504460D462946204608F059FB042124
:2036E00003A005F021FE2946204605F01DFE70BD4D43553A000000002DE9F04704460D46F8
:203700002846FEF767FDC6B2A0192221FFF790FFC7B2082F00DB08271448002101604160B0
:20372000A1193A46FEF720FD1148FEF753FD80462846FEF74FFDC0F180090C48FEF74AFD60
:20374000A9EB0000801E80450BD20948FEF742FD074900EB0108054B2A4606A1404608F0E7
:2037600009FC03F083F8BDE8F0870000581300200A0B002025732573222C000070B504460D
:2037800004EB8400144901EB8005144804700020134908701148007800B970BD4FF4806149
:2037A0001048FEF7FAFC00200F49C8804FF4806088800C48086000200C4908600C49086085
:2037C000E86830B1286820B1312C02DAE9686868884700BFE1E7000068F5000854000020CE
:2037E00055000020FC06002008000020600000205C00002010B590B0044640216846FEF7BB
:20380000CCFC40216846FEF7C8FC0B480078012806DB0AA301220CA1684608F0ABFB05E095
:203820000FA3002208A1684608F0A4FB684601F0DDFE10B010BD0000A4000020746573743B
:203840006D7174743200000041542B434D515454414343513D25642C222573220D0A00002A
:20386000746573746D7174743100000010B5A4B00446802104A8FEF790FC802104A8FEF71E
:203880008CFC2348007801281DDB2248FEF7A2FC50B92048801FA0F1400301221EA1009049
:2038A00004A808F067FB2DE01A490831194A901FA0F14003CDE901210090012221A104A87A
:2038C00008F058FB1EE01348A830FEF783FC50B91048A230A0F1400300220FA1009004A8E3
:2038E00008F048FB0EE00B49B031A1F10802901FA0F14003CDE901210090002211A104A863
:2039000008F038FB04A801F071FE24B010BD0000A40000204613002041542B434D51545449
:20392000434F4E4E4543543D25642C227463703A2F2F25733A2573222C373230302C312C80
:203940002C0D0A0041542B434D515454434F4E4E4543543D25642C227463703A2F2F257346
:203960003A2573222C373230302C312C222573222C222573220D0A0070B5054603F0B2FBCA
:203980000446204601F032FE01A001F02FFE70BD0D0A000070B5A0B0064680216846FEF74E
:2039A000FCFB03F09FFB044680216846FEF7F5FB1048007801280ADB2046FEF70BFC05467A
:2039C0002B4601220CA1684608F0D4FA09E02046FEF700FC05462B46002207A1684608F0C6
:2039E000C9FA684601F002FE4FF47A7004F0E2FC20B070BDA400002041542B434D5154545C
:203A00005041594C4F41443D25642C25640D0A002DE9F04704460D462846FEF7DBFBC6B26F
:203A2000A0192221FFF704FEC7B20A2F00DB0A2714480021016041600181A1193A46FEF7A4
:203A400093FB1148FEF7C6FB80462846FEF7C2FBC0F180090B48FEF7BDFBA9EB0000801E77
:203A600080450BD20848FEF7B5FB074900EB0108044B2A4605A1404608F07CFA02F0F6FE2C
:203A8000BDE8F0874E1300200A0B002025732573222C000030B5A1B00546802101A8FEF716
:203AA0007CFB802101A8FEF778FB03F01BFB044609480078012805DB502208A101A808F0FC
:203AC00059FA04E050220BA101A808F053FA01A801F08CFD21B030BDA400002041542B43FB
:203AE0004D5154545055423D312C312C25640D0A0000000041542B434D5154545055423D95
:203B0000302C312C25640D0A0000000010B50446034801F06BFD03A001F068FD10BD0000D3
:203B2000320C00200D0A000030B5A1B00546802101A8FEF732FB802101A8FEF72EFB0F4864
:203B4000007801280ADB0E48FEF744FB0446234601220CA101A808F00DFA09E00848FEF7FC
:203B600039FB04462346002206A101A808F002FA01A801F03BFD21B030BD0000A4000020A4
:203B8000320C002041542B434D5154545355423D25642C25642C310D0A00000010B5044696
:203BA000034801F023FD03A001F020FD10BD0000320C00200D0A000030B5A1B00546802194
:203BC00001A8FEF7EAFA802101A8FEF7E6FA0F48007801280ADB0E48FEF7FCFA0446234673
:203BE00001220CA101A808F0C5F909E00848FEF7F1FA04462346002206A101A808F0BAF9AD
:203C000001A801F0F3FC21B030BD0000A4000020320C002041542B434D51545453554254B4
:203C20004F5049433D25642C25642C310D0A000010B50446034801F0D9FC03A001F0D6FCE4
:203C400010BD0000F20B00200D0A000030B5A1B00546802101A8FEF7A0FA802101A8FEF7CA
:203C60009CFA0F48007801280ADB0E48FEF7B2FA0446234601220CA101A808F07BF909E059
:203C80000848FEF7A7FA04462346002206A101A808F070F901A801F0A9FC21B030BD0000BB
:203CA000A4000020F20B002041542B434D515454544F5049433D25642C25640D0A000000C9
:203CC00010B50446034801F091FC03A001F08EFC10BD0000320C00200D0A000030B5A1B076
:203CE0000546802101A8FEF758FA802101A8FEF754FA0F48007801280ADB0E48FEF76AFACF
:203D00000446234601220CA101A808F033F909E00848FEF75FFA04462346002206A101A8A7
:203D200008F028F901A801F061FC21B030BD0000A4000020320C002041542B434D5154544A
:203D4000554E5355423D25642C25642C300D0A002DE9F04704460D462846FEF73BFAC6B2EE
:203D6000A0192221FFF764FCC7B2082F00DB08271448002101604160A1193A46FEF7F4F99C
:203D80001148FEF727FA80462846FEF723FAC0F180090C48FEF71EFAA9EB0000801E8045DC
:203DA0000BD20948FEF716FA074900EB0108054B2A4606A1404608F0DDF802F057FDBDE8E7
:203DC000F0870000461300200A0B002025732573222C00002DE9F34FB7B0002036908046D5
:203DE0003590002434903390002537981290A146A246002011903898312805DA389800EB6A
:203E00008000FE4901EB8009FDA11298FEF7D0F970B1FD48007824280ADB00220121FB48CA
:203E200009F026F94FF4167004F0C4FA05F0EEFAF7A11298FEF7BCF948B1F348007824282E
:203E400005DB0220FFF79AFC2620EF490870F4A11298FEF7ADF928B10720FFF78FFC07205C
:203E6000E9490870F1A11298FEF7A2F920B1EFA11298FEF79DF90446EEA11298FEF798F92D
:203E8000002830D0EDA11298FEF792F910B93120DD490870ECA11298FEF78AF9E5A11298AB
:203EA000FEF786F90446A41D002609E02C212046FFF7BEFB804608F101000444701CC6B206
:203EC000052EF3DB2C212046FFF7B2FB8046B8F1180F08DA1821DE48FEF75FF94246214678
:203EE000DB48FEF741F9DBA11298FEF761F958B1DAA11298FEF75CF918B1012003F082FF25
:203F000002E0002003F07EFFD6A11298FEF750F928B11120D54908700120D5490870CDA10B
:203F20001298FEF745F920B9B5A11298FEF740F978B1CE48007807280BD1C8A11298FEF7D3
:203F400037F918B1012003F05DFF02E0002003F059FF002617E006EB4600C64901EB800AD2
:203F6000DAF8040068B1DAF8080050B1DAF80410129801F041FD04461CB12046DAE9011265
:203F80009047701CC6B20C2EE5D3BBA11298FEF70FF990B1B8A11298FEF70AF904460E219C
:203FA000B748FEF7FAF82C21E01DFFF741FB80464246E11DB248FEF7D7F8B2A11298FEF7A3
:203FC000F7F8B2A11298FEF7F3F8B2A11298FEF7EFF850B12C21E01DFFF72AFB80460020F0
:203FE000AE4908700120AE490870AEA11298FEF7DFF80446ACB32C212046FFF719FB8046D1
:2040000008F1010004442C212046FFF711FB804600200D900E900F901090B8F1100F04DCA1
:20402000424621460DA8FEF79FF80DA803F07CFB08F1010004442C212046FFF7F9FA80468D
:2040400000200D900E900F901090B8F1100F04DC424621460DA8FEF787F80DA803F04CFB17
:2040600000BF92A11298FEF7A3F80446D4B100200F9010902C21A01DFFF7DAFA8046B8F1A3
:20408000080F01DD4FF008084246A11D0FA8FEF76BF80FA8FEF7A5F81FFA80FB584603F019
:2040A0000FFB00BF8349129801F0A6FC3490349800287DD080493498FEF77AF80028F8D03D
:2040C0007EA13498FEF774F818B100208049087002E001207E4908707EA13498FEF768F8E8
:2040E0000446002C65D0142004F064F900247DA13498FEF75DF80446002C75D06FA13498A1
:20410000FEF756F818B100207149087002E001206F490870E41C2C212046FFF789FAC5B26B
:20412000402D00DB402540216F48FEF736F82A4621466D48FEF718F86019441C2C2120467A
:20414000FFF776FAC5B2062D00DB0625664840300021016081802A462146FEF705F8601966
:20416000441C2C212046FFF763FAC5B2082D00DB08255D4846300021016041602A46214610
:20418000FDF7F2FF6019441C22212046FFF750FAC5B20A2D00DB0A2553484E300021016025
:2041A000416001812A462146FDF7DEFF002001E0C0E319E001F0E0FB802113A8FDF7EDFF8F
:2041C00049494E31A1F10800831F474ACDE9000146A113A807F0CEFE13A803F0CFF904204B
:2041E00005F0A8FB02F042FB46A13498FDF7E0FF0446002C00D08BE0DFE0000068F500089D
:204200004552524F5200000090020020000801402B434D515454434F4E4E4C4F53540000F5
:204220002A415452454144593A2031002B435245473A00002B435053493A00004E4F205395
:2042400045525649434500004F6E6C696E6500009E0B00202B4350494E3A000052454144C7
:20426000590000002B434D544900000091020020940200203CF9000822534D5F5022000054
:20428000FC0A00202B43504D530000002B49504400000000434C4F53454400009602002020
:2042A000980200202B434C42533A00002B4353513A20000055F50008B60B00202B434D5110
:2042C000545452585041594C4F41443A20300000A40000202F636D642F6E62726F6B6572AF
:2042E0002F0000000D0A220000130020226E62726F6B6572223A2225732C25732C25732C44
:20430000257322002F636D642F6E61706E2F00000B342C212046FFF78BF9C5B2202D00DB6A
:2043200020252021FE48FDF738FF2A462146FC48FDF71AFF6019441C2C212046FFF778F96B
:20434000C5B2102D00DB1025F5480021016241628162C1622A4621462030FDF705FF601997
:20436000441C22212046FFF763F9C5B2102D00DB1025EB480021016341638163C1632A464A
:2043800021463030FDF7F0FE002001F0F5FA802113A8FDF702FFE2483030A0F11003E04ACB
:2043A000E0A1009013A807F0E5FD13A803F0E6F8042005F0BFFA02F059FADFA13498FDF775
:2043C000F7FE04465CB304F10A00FDF70AFFD4496839C1F8AC01002001F0CEFAD0486838DE
:2043E000D0F8AC01B0F5347F05D94FF43470CC496839C1F8AC01802113A8FDF7CEFEC848E3
:204400006838D0A1D0F8AC2113A807F0B3FD13A803F0B4F8042005F08DFA02F027FACCA11A
:204420003498FDF7C5FE0446F4B1002001F0A4FA04F10A00FDF7D5FEB9496839C1F8B00188
:20444000802113A8FDF7A9FEB5486838C3A1D0F8B02113A807F08EFD13A803F08FF8042035
:2044600005F068FA02F002FABFA13498FDF7A0FE04464CB3BFA001F07FFAC1A1204601F06E
:20448000CDF8802113A8FDF788FEC148007830B904F10A02BFA113A807F06CFD0EE0BC48A9
:2044A0000078012805D1BEA2C1A113A807F062FD04E0C2A2BEA113A807F05CFD13A803F052
:2044C0005DF8042005F036FAC0A13498FDF770FE04462CB3C0A001F04FFA0A342046FDF754
:2044E00079FEC5B2082D00DB08258D4898300021016041602A462146FDF736FE802113A876
:20450000FDF74BFE864A9832B6A113A807F032FD13A803F033F8042005F00CFA02F0A6F903
:20452000B3A13498FDF744FE044634B3002001F023FA0A342046FDF74DFEC5B2082D00DB5C
:2045400008257748983000218160C1602A4621460830FDF709FE042005F0ECF9802113A820
:20456000FDF71BFE6E4AA032A4A113A807F002FD13A803F003F802F079F9A3A13498FDF79D
:2045800017FE04469CB3002001F0F6F9802113A8FDF703FE9FA12046FDF70AFE50B1012058
:2045A0005F49683981F8A8019CA29EA113A807F0E1FC14E09EA12046FDF7FAFD50B10020DF
:2045C0005749683981F8A8019BA296A113A807F0D1FC04E09AA293A113A807F0CBFC13A8FD
:2045E00002F0CCFF042005F0A5F902F03FF997A13498FDF7DDFD04469CB3002001F0BCF9EC
:20460000802113A8FDF7C9FD60A12046FDF7D0FD50B101204249683981F8A80100228EA19B
:2046200013A807F0A7FC14E08EA12046FDF7C0FD50B100203A49683981F8A801012286A13A
:2046400013A807F097FC04E087A289A113A807F091FC13A802F092FF042005F06BF902F0F2
:2046600005F986A13498FDF7A3FD0446F4B104F10A00FDF7B6FD2A496839C1F8B80100207A
:2046800001F07AF9802113A8FDF787FD244868387DA1D0F8B82113A807F06CFC13A802F050
:2046A0006DFF042005F046F902F0E0F879A13498FDF77EFD0446C4B178A13498FDF778FD0A
:2046C00008B101203390022005F034F9204603F053F98346FDF77EFD18B1032005F02AF918
:2046E00003E00020339902F05DFB6FA13498FDF75FFD044694B16EA13498FDF759FD08B108
:2047000001203390022005F015F9204603F034F98346FDF75FFD10B10320CFE0D5E0D0E0F9
:20472000C0120020226E61706E223A2225732C25732C2573220000002F636D642F67737418
:20474000772F00002267737477223A22256422002F636D642F676374772F000022676374CD
:2047600077223A22256422002F636D642F636F64652F00002F636D642F636F646500000010
:204780002F636D642F636F64652F222A30000000BC03002022636F6465223A2573000000B1
:2047A00070617373776F7264207573650000000022636F6465223A2225732200706173736D
:2047C000776F7264206572726F7200002F636D642F6D6672712F00002F636D642F6D667285
:2047E00071000000226D667271223A22257322002F636D642F746672712F0000227466724C
:2048000071223A22257322002F636D642F757064742F0000226175746F2200006175746FBB
:20482000000000002275706474223A2225732200226D616E752200006D616E7500000000BB
:204840006572726F7220636D640000002F636D642F7270746D2F0000227270746D223A22F3
:2048600025642200310000006572726F72000000227270746D223A22257322002F636D64B2
:204880002F686266712F00002268627271223A22256422002F617474000000002F61747431
:2048A0002F6D6574610000002F737473000000002F7374732F6D65746100000005F03AF813
:2048C00003E00220339902F06DFAFEA13498FDF76FFC0446C4B1FDA13498FDF769FC08B1A9
:2048E00001203390022005F025F8204603F044F88346FDF76FFC18B1032005F01BF803E00C
:204900000320339902F04EFAF3A13498FDF750FC0446002C0ED0EEA13498FDF749FC08B12D
:2049200001203390EEA13498FDF742FC18B1012005F000F89EE0EDA13498FDF739FC90B1ED
:20494000022004F0F7FF204603F016F88346FDF741FC18B1032004F0EDFF8BE000203399C7
:2049600002F020FA86E0E3A13498FDF721FC90B1022004F0DFFF204602F0FEFF8346FDF71D
:2049800029FC18B1032004F0D5FF73E00120339902F008FA6EE0D9A13498FDF709FC90B13C
:2049A000022004F0C7FF204602F0E6FF8346FDF711FC18B1032004F0BDFF5BE0022033994F
:2049C00002F0F0F956E0CFA13498FDF7F1FB90B1022004F0AFFF204602F0CEFF8346FDF7C3
:2049E000F9FB18B1032004F0A5FF43E00320339902F0D8F93EE0C5A13498FDF7D9FB90B111
:204A0000022004F097FF204602F0B6FF8346FDF7E1FB18B1032004F08DFF2BE004203399DD
:204A200002F0C0F926E0BBA13498FDF7C1FB08B300260EE006EB4602B84800EB42013498EB
:204A4000FDF7B6FB18B1304602F0AEF806E0701CC6B2B348D0F85002B042EBD800BFB0486F
:204A6000D0F85002B04202D8FF2002F09DF8062004F060FFABA13498FDF79AFB0446002C1A
:204A80007DD0AAA13498FDF793FB0446002C7CD0142003F08FFCAFF2DC713498FDF788FB8B
:204AA00018B10020A349087002E00120A1490870E41D2C212046FEF7BBFDC5B2402D00DB24
:204AC000402540219648A830FDF767FB2A4621469348A830FDF748FB6019441C2C212046B7
:204AE000FEF7A6FDC5B2062D00DB06258C48E8300021016081802A462146FDF735FB60198B
:204B0000441C2C212046FEF793FDC5B2082D00DB08258348EE300021016041602A46214666
:204B2000FDF722FB6019441C22212046FEF780FDC5B20A2D00DB0A257948F630002101604F
:204B4000416001812A462146FDF70EFB002000F013FF802113A8FDF720FB7149F631A1F15E
:204B60000800831FA0F14602CDE9000172A113A807F000FA13A802F001FD042001E0FAE3AF
:204B800003E004F0D7FE01F071FE71A13498FDF70FFB0446002C72D06FA13498FDF708FBA2
:204BA0000446ACB1802113A8FDF7F7FA09226DA113A8FDF7D9FA13A802F0E0FC0020584908
:204BC000C1F8D401502155487C38FDF7E6FAF1E04FF0000B002010905149C1F8D40150213D
:204BE0004E487C38FDF7D9FA00BF37E0002010902AE000200E900F900EAA5846109902F0B6
:204C00009FFAE8B10EA93498C01DFDF7D1FA0446B4B10EA941487C38FDF7CAFA80B9404827
:204C2000D0F8D411D0F8D401401C3D4A01EB4101C2F8D40102F5EC7000EB41000E99016003
:204C40001098401CC0B21090494810F80B1010988142CEDC0BF1010000F0FF0BBBF1050FBE
:204C6000C4DB802113A8FDF798FA42A103C9CDE913012B48D0F8D40110B300261AE09EE0C9
:204C800013A8FDF7A7FA13A9084406EB46010D9022487C3800EB410239A10D9807F06AF9C2
:204CA00013A8FDF797FA13A9084437A109780170701CC6B21A48D0F8D401B042E0D865E0F0
:204CC0006BE000002F737461000000002F7374612F6D65746100000022676574223A000007
:204CE00066756C6C6461746100000000226174740000000022636D6400000000227374732A
:204D000000000000226474610000000022646961000000002261626163000000AC1400205F
:204D20005812002022736574223A000062726F6B223A0000A40000202262726F6B223A2203
:204D400025732C25732C25732C2573220000000072616D6C223A000072616D6C223A5B5D85
:204D6000000000002272616D6C223A5B5D000000CCFB00082272616D6C223A5B00000000FD
:204D800022257322000000002C00000013A8FDF721FA401E13A900220A5413A8FDF71AFAE4
:204DA00013A90844AFF23C010978017013A802F0E5FB00BF042004F0BDFD01F057FDFEA119
:204DC0003498FDF7F5F90446F4B1A01DFDF709FA07B2012F05DBB7F5347F02DAF848C0F886
:204DE000D071802113A8FDF7D8F9F548F5A1D0F8D02113A807F0BEF813A802F0BFFB0420D2
:204E000004F098FD01F032FDF1A13498FDF7D0F90446002C7DD0F0A13498FDF7C9F90446AE
:204E2000A4B1802113A8FDF7B8F90922EDA113A8FDF79AF913A802F0A1FB0020E049C1F8D6
:204E400050023021EA48FDF7A8F980E04FF0000B00201090DA49C1F850023021E448FDF7DF
:204E60009CF900BF35E00020109028E000200E900F900EAA5846109902F062F9D8B10EA918
:204E80003498C01DFDF794F90446A4B10EA9D848FDF78EF978B9CA48D0F85012D0F8500270
:204EA000401CC74A01EB4101C2F85002D04800EB41000E9901601098401CC0B21090CD48D4
:204EC00010F80B1010988142D0DC0BF1010000F0FF0BBBF1050FC6DB802113A8FDF75DF99A
:204EE000C5A103C9CDE91301B548D0F8500250B300261CE013A8FDF76DF913A9084406EB6C
:204F000046010D90BA4800EB4102AFF28C110D9800E021E007F02EF813A8FDF75BF913A9DD
:204F20000844AFF29C1109780170701CC6B2A448D0F85002B042DDD813A8FDF74BF9401EE3
:204F400013A900220A5413A802F018FB00BF042004F0F0FC01F08AFCA9A13498FDF728F9F0
:204F6000044694B34FF0000BA7A1204600F056FB402101A8FDF711F9802113A8FDF70DF909
:204F8000A4480078B0B92321E01DFEF751FB401C00F0FF0B5A46E11D01A8FDF7E5F801AAA9
:204FA0009DA113A806F0E6FF13A8FDF713F900F0FF0B11E097480078012807D1AFF6200258
:204FC00095A113A806F0D6FF06E00CE0AFF6140291A113A806F0CEFF13A802F0CFFA04203E
:204FE00004F0A8FC00BF8FA13498FDF7E1F80446F4B1A01DFDF7F5F807B2002F05DDB7F58E
:20500000347F02DA6E48C0F8AC71802113A8FDF7C4F86B4885A1D0F8AC2113A806F0AAFFA2
:2050200013A802F0ABFA042004F084FC01F01EFC81A13498FDF7BCF8044604B3A01DFDF733
:20504000D0F807B2002F07DD5D48D0F8AC01B84202D95B48C0F8B071802113A8FDF79DF86C
:20506000574877A1D0F8B02113A806F083FF13A802F084FA042004F05DFC01F0F7FB73A11A
:205080003498FDF795F80446F4B3E41D2C212046FEF7CEFAC5B2202D00DB202520214848AC
:2050A0006830FDF77AF82A46214645486830FDF75BF86019441C2C212046FEF7B9FAC5B204
:2050C000102D00DB10253E4868300021016241628162C1622A4621462030FDF745F8601967
:2050E000441C22212046FEF7A3FAC5B2102D00DB1025334868300021016341638163C1630D
:205100002A462146303000E019E0FDF72DF8802113A8FDF742F82A489830A0F11003A0F16D
:205120003002AFF60021009013A806F023FF13A802F024FA042004F0FDFB01F097FB45A1D0
:205140003498FDF735F804466CB3802113A8FDF724F842A12046FDF72BF868B141A113A877
:2051600006F008FF072005F001FF322003F022F9082005F0FBFE10E03DA12046FDF718F868
:2051800038B13DA113A806F0F5FE092005F0EEFE03E03DA113A806F0EDFE13A802F0C0FBD5
:2051A000042004F0C7FB3CA13498FDF701F8044604B175E089E0000072616D74223A0000B2
:2051C000581200202272616D74223A256400000061626163223A000061626163223A5B5D0C
:2051E000000000002261626163223A5B5D000000AC140020CCFB00082261626163223A003E
:205200007075626B223A22007075626B223A222A30000000BC030020227075626B223A22A3
:205220002573220067737477223A00002267737477223A256400000067637477223A0000B6
:205240002267637477223A25640000006E61706E223A220073776368223A2200226F6E2213
:20526000000000002273776368223A226F6E2200226F6666220000002273776368223A2206
:205280006F666622000000002273776368223A226572726F7222000072656164223A2200F6
:2052A000802113A8FCF779FF2046FCF793FF83465A46214613A8FCF757FF13A802F05EF964
:2052C000042004F037FB01F0D1FA3CA13498FCF76FFF044684B3802113A8FCF75EFF39A1B7
:2052E0002046FCF765FF48B10120374981F8A801002236A113A806F03DFE15E036A120461E
:20530000FCF756FF48B100202F4981F8A80101222EA113A806F02EFE06E0AFF6B422AFF6BD
:20532000B02113A806F026FE13A802F027F9042004F000FB01F09AFA28A13498FCF738FFA3
:205340000446C4B1A01DFCF74CFF1F49C1F8B801802113A8FCF721FF1B4822A1D0F8B82183
:2053600013A806F007FE13A802F008F9042004F0E1FA01F07BFAB9F1000F1BD0D9F80810E3
:205380001298FCF715FF0446A4B1D9F80000162803D117201649087005E0012015490870F0
:2053A000002013490870D9F8100018B1D9F810101298884739B0BDE8F08F00007270746D15
:2053C000223A00003A30000058120020227270746D223A25640000003A31000068626671A7
:2053E000223A00002268626671223A256400000054000020550000202DE9F04107460D46D9
:205400002846FCF7E7FE00F0FF0809A1384600F0F3FA044654B1641C22212046FEF708F9DC
:20542000C6B2324621460348FCF79EFEBDE8F081222B00008A0B00202DE9F04704460D4639
:205440002846FCF7C7FEC6B2A0192221FEF7F0F8C7B2062F00DB0627144800210160818040
:20546000A1193A46FCF780FE1148FCF7B3FE80462846FCF7AFFEC0F180090C48FCF7AAFE87
:20548000A9EB0000801E80450BD20948FCF7A2FE074900EB0108054B2A4606A1404606F02D
:2054A00069FD01F0E3F9BDE8F0870000401300200A0B002025732573222C000030B5A1B041
:2054C000802101A8FCF769FE3E480078C008B0B13C48007820F0F8003A49087008464078FC
:2054E000401C487008464078062808DA36480078FEF744F9002141F2883006F00FF83348D6
:20550000C088334908603348046854E0601E3249085C0D2804D10846005D0A2800D1DCB99A
:205520002D48005D3E2817D02B48005D7D2813D0A01E2949085C2949097888423AD1601E1A
:205540002549085C25494978884233D12248005D2249897888422DD10A2002F02BFF601CBF
:205560001C490968401A1E49086004211DA003F0DBFE01A8FCF72EFE85B2294601A803F074
:20558000D3FE1549134A12688818FCF723FE85B21149104A12688818294603F0C5FE0E49D0
:2055A0000C4A1268881808490978FEF713FC601C08490860641C064800688442A6D321B02A
:2055C00030BD0000DC04002054000020080000205800002060000020FC060020B60B002047
:2055E0005C00002047534D3A0000000070B504462046FCF7EFFD85B22946204606F0C8FB95
:20560000042104A003F090FE2946204603F08CFE70BD00004D43553A000000002DE9F04F4D
:2056200093B08046894600200490039002900190009080A14046FCF7BBFD08B101200290DA
:205640004846FCF7C7FDC0B21290129908EB01002321FDF7EDFFC0B21190202105A8FCF73A
:205660009CFD129808EB000405A8109000270EE0E05D202809D0E15D109801701098401CD5
:2056800010900198401CC0B20190781C87B211988742EDDB6A48FCF79DFD82464846FCF7E3
:2056A00099FDC0F1800B05A8FCF794FDABEB0000801E82450DD2029858B96148FCF78AFD3F
:2056C0005F4900EB010A05AB4A465EA1504606F051FC019814280FDA029868B95848FCF708
:2056E00079FD57490844A0F1010A58A1504606F041FC13B0BDE8F08F0198142806DA5948AD
:20570000407820F00200801C564948700DF11E0000F09EF9064600208DF81E0005A800F07D
:2057200097F90546202105A8FCF737FDC5208DF821006A208DF8220029208DF823000E209E
:205740008DF82400FA208DF82500300E8DF82900300C8DF82800300A8DF82700F0B28DF8FA
:205760002600280E8DF82D00280C8DF82C00280A8DF82B00E8B28DF82A000DF12104207B4D
:205780008DF83700E07A8DF83600A07A8DF83500607A8DF83400207A8DF83B00E0798DF899
:2057A0003A00A0798DF8390060798DF838002E48DDE90D12C0E9141204F0DEFC2B4800785F
:2057C00008B903F097F929480078012810D11C48FCF700FD7A2821D21948FCF7FBFC1849FD
:2057E000084423A10A6840F8012C0979C17015E01E480078022811D11148FCF7EBFC7A285B
:205800000CD20F48FCF7E6FC0D4908441AA10A6840F8012D8A88828089798171134800786E
:2058200000906A460C21022001F0DCFE01F01EF800BF5EE72F636D642F636F6465000000D6
:205840000A0B002025732573222C00006973206E6F7420636F727265637420666F726D6101
:20586000742E20003A020020D4730020BC0300202075736522000000206572726F722200C9
:205880002DE9F04704460D462846FCF7A3FCC6B2A0192221FDF7CCFEC7B2082F00DB082732
:2058A000154800218160C160A1193A460830FCF75BFC1248FCF78EFC80462846FCF78AFC28
:2058C000C0F180090C480830FCF784FCA9EB0000801E80450CD20948FCF77CFC074900EBC3
:2058E0000108054B08332A4605A1404606F042FB00F0BCFFBDE8F087581300200A0B0020BE
:2059000025732573222C000070B51648FCF762FC0446224613491448FCF726FC3C211348FE
:20592000FCF73BFC1248FCF755FC0446224610490E48FCF719FC0C48FCF74CFC05460B4809
:20594000FCF748FC094944182A4607492046FCF70BFC0648FCF73EFC0449084405A10988F7
:20596000018070BDD4730020B60B0020320C002043F500082F23000070B50446142119483C
:20598000FCF70BFC1848FCF725FC05462A4616491448FCF7E9FB40211448FCF7FEFB144847
:2059A000FCF718FC05462A4611491048FCF7DCFB0C48FCF70FFC06460C48FCF70BFC0B4969
:2059C0004518324607492846FCF7CEFB4CB10748FCF700FC05494518224606A1284606F01F
:2059E000C9FA70BDB60B0020D4730020F20B002034F50008257300002DE9F04706460F469B
:205A0000124800881FFA80F93846FCF7E3FB1FFA80F8002513E0002407E02819305C395DAC
:205A2000884200D003E0601C84B24445F5DB00BF444502D17019BDE8F087681C85B2A9EBCF
:205A40000800A842E7DC0020F5E700005C0000202DE9F041054600242846FCF7BBFBC7B2D3
:205A6000002600BF0EE0285D302802DB285D392800DD09E006EB86004600285D30380644F9
:205A8000601CC4B2BC42EEDB00BF3046BDE8F081F0B59BB00025002012900026002711903D
:205AA000604C202113A8FCF778FB00F0DFF812AA13A9204600F066FB002870D09DF848009D
:205AC00000286DD058480078001F08282AD2DFE800F0042A3D505F686F829DF848002028AF
:205AE00008DA13AA51A101A806F044FA53A101A8FFF794FD5548007828B9202213A9544884
:205B0000FCF732FB00E000BF5048007850495C3981F824011820444908704E49087064201A
:205B200002F048FC6AE04A485C38BDF84C10A0F87C1011AA0121084601F084FABDF84400F7
:205B40004549C1F8AC0100F091FE57E040485C38BDF84C10A0F87E1011AA0221012001F058
:205B600071FABDF844003C49C1F8B00100F07EFE44E0202213A936482430FCF7F5FA364A10
:205B800068320321012001F05DFA00F06FFE35E02F485C38BDF84C10A0F87E102EE03FE0FD
:205BA0002DE0202213A92A484630FCF7DDFA25E027485C38BDF84C10A0F8C21011AA0621C3
:205BC000012001F03FFABDF84400234981F8A80100F04CFE12E01E485C38BDF84C10A0F824
:205BE000C41011AA0721012001F02CFABDF844001949C1F8B80100F039FE00BF00BF4FF401
:205C000080710848FCF7C9FA00201449C880054808600548007800F051F8642002F0CAFBDA
:205C20001BB0F0BDEE0C0020A60000202F636D642F636F64652F2225732200002F636D6471
:205C40002F636F64652F222A30000000BC0300207A670020A900002058120020000000207C
:205C60000120014908707047A700002010B510480078E0B10F48008820B10E480088401EB1
:205C80000C4908800B48008838B90B4908780978491C094B197000F011F8074800783D289F
:205CA00002DD00200449087000200149087010BDA7000020AC000020A900002070B588B0B8
:205CC00004460025002620216846FCF766FA3E2C75D2DFE804F01F273039414A525A636BCD
:205CE000757D858D969FA8B1B9C1F3FBF0EFEEEDECEBEAE9E8E7E6E5E4E3E2E1E0DFDEDDA8
:205D0000DCDBDAD9D8D7D6D5D4D3D2D1D0CFCECDCCCBCAC901261422F9496846FCF724FAB3
:205D2000202522E201262022F54914316846FCF71BFA202519E201262022F1493431684682
:205D4000FCF712FA202510E20126ED48416D0091806D0190202508E201262022E8495C319E
:205D60006846FCF701FA2025FFE10126E448B0F87C00ADF800000225F7E10126E048B0F850
:205D80007E00ADF800000225EFE101262022DC4980316846FCF7E8F92025E6E10126D848D5
:205DA000B0F87E00ADF800000225DEE101262022D349A2316846FCF7D7F92025D5E1D3E1BA
:205DC0000126CF48B0F8C200ADF800000225CCE10126CB48B0F8C400ADF800000225C4E18B
:205DE0000126C748B0F8C600ADF800000225BCE101261022C249C8316846FCF7B5F92025A5
:205E0000B3E101261022BE49D8316846FCF7ACF92025AAE101261022B949E8316846FCF75A
:205E2000A3F92025A1E101261022B549F8316846FCF79AF9202598E101261022B14968468C
:205E4000FCF792F9202590E10126AD48B0F81801ADF80000022588E10126A948B0F81A0121
:205E6000ADF80000022580E176E16DE164E15BE152E149E13CE133E12AE121E118E10FE14B
:205E800006E1FDE0F4E0EBE0E2E0D9E0D0E0C7E0BEE0B5E0ABE0A2E098E08EE085E07CE0E6
:205EA00073E06AE061E059E050E047E03EE035E02CE023E01AE011E008E0FFE7012690487A
:205EC000B0F81C01ADF8000002254EE101268C48B0F81E01ADF80000022546E10126884856
:205EE000B0F82001ADF8000002253EE101268448B0F82201ADF80000022536E1012680485E
:205F0000B0F82401ADF8000002252EE101267C48B0F82601ADF80000022526E10126784865
:205F2000B0F82801ADF8000002251EE101267448B0F82A01ADF80000022516E1012670486D
:205F4000B0F82C01ADF8000002250EE101266C48B0F82E01ADF80000022506E10126684875
:205F6000D0F8300100900425FFE001266448B0F83401ADF800000225F7E001266048B0F8C6
:205F80003601ADF800000225EFE001265C48B0F83801ADF800000225E7E001265848B0F881
:205FA0003A01ADF800000225DFE001265448B0F83C01ADF800000225D7E0012610225149FD
:205FC00036316846FCF7D0F81025CEE0012610224C4946316846FCF7C7F81025C5E0012648
:205FE0004748B0F85E01ADF800000225BDE001261822444958316846FCF7B6F81825B4E00B
:2060000001263F48B0F87801ADF800000225ACE001263B48B0F87A01ADF800000225A4E03C
:2060200001263748B0F87C01ADF8000002259CE001263348B0F87E01ADF80000022594E044
:2060400001262F48B0F88001ADF8000002258CE001262B48B0F88201ADF80000022584E04C
:2060600001262748B0F88401ADF8000002257CE001262348B0F88601ADF80000022574E054
:2060800001261F48B0F88801ADF8000002256CE001261B48B0F88A01ADF80000022564E05C
:2060A00001261748B0F88C01ADF8000002255CE001261348B0F88E01ADF80000022554E064
:2060C00001260F48B0F89001ADF8000002254CE001260B48B0F89201ADF80000022544E06C
:2060E00001260748B0F89401ADF8000002253CE001260348B0F89601ADF80000022534E074
:206100001E6700202668002001261D48B0F89801ADF80000022528E001261948B0F89A01C0
:20612000ADF80000022520E001261548B0F89C01ADF80000022518E001261148B0F89E013F
:20614000ADF80000022510E001260D48B0F8A001ADF80000022508E001260948B0F8A20147
:20616000ADF80000022500E000BF00BF36B104F18001C8B22A46694600F040F808B070BDF2
:206180001E6700202DE9F04705460E4617464FF00008C1462C462078AA282BD1E078401D36
:2061A0006178884226D16078401C00EB05086078401E00EB05096078801E81B2601C00F0D5
:2061C00097F8B9F80010884214D1B8F8000045F65B2188420ED1E07820B1E278211D304679
:2061E000FBF7C2FFE0783870A078034908700120BDE8F0870020FBE7A6000020FEB506460C
:206200000F461546AA208DF80000681DC0B28DF801008DF80260E8B28DF8030080212448EC
:20622000FBF7BBFF2248009901603FB17C2D05DC25B12A463946001DFBF796FF9DF80100D5
:20624000801E81B21A48401C00F052F8ADF8080045F65B20ADF80A009DF80100401E144912
:2062600008440299016000241BE09DF80100C01C04F10801884205DD0D490819082100F00B
:2062800019F808E09DF80120D21C121BD1B2084A101900F00FF8022002F08CF804F10800AA
:2062A000C4B29DF80100C01CA042DEDCFEBD00006E0C002070B504460D462946204605F079
:2062C0002BFD70BD00200449C8804FF480708880024808607047000000000020EE0C0020D6
:2062E0000120014908707047AE00002000BFFEE770B502460C46FF25FF2309E012F8010B8E
:2063000080EA05010648405C80EA03050548435C201EA4F10106B4B2F0D145EA032070BD45
:20632000CCF90008CCFA000810B50246002006E013784340034CE05C521C4B1ED9B200298B
:20634000F6DC10BDC00000200120014908707047B10000202DE9F04F91B005460E461746C1
:206360004FF00009CA46C846C3462846FBF732FF81463046FBF72EFF824615B10EB14F45E0
:2063800003DD002011B0BDE8F08F002402E008F10108641CBC42FADB002406E02A5D58468E
:2063A0000BF1010B01A90A54641C4C45F6DB002405E0325D404608F101082A54641C544534
:2063C000F7DB3C4606E001A8025D404608F101082A54641C4C45F6DB002005F80800284600
:2063E000D0E770B503460A4600200AE00A25B3FBF5F605FB1635303515540A25B3FBF5F378
:20640000401C002BF2D1411E08E0545C451A6D1E555D5554451A6D1E5455491E00EBD076CB
:20642000B1EB660FF1DA70BD0120014908707047B000002000B589B04FF4C06007F086F823
:2064400006A9002006F0B9FB01A9012006F0B5FB2D4806F013FA40F2197007F077F84FF476
:20646000006303224821294806F054FE4FF4805303221821254806F04DFE00208DF81C008F
:206480008DF81D008DF81E008DF81F008DF820008DF821008DF818008DF8190004208DF8E4
:2064A0001A0002208DF81B000C20ADF8220006A9154806F07BFA0020ADF80E00ADF810000E
:2064C0000120ADF812000020ADF80400ADF80600ADF80800ADF80A00ADF80C0001208DF8BD
:2064E000140001A806F0DAF90221074806F0EFFA0749032006F061FB00221146142006F05D
:2065000027FF09B000BD000000640040000801405C05002010B5812007F048F804460C4836
:206520000078A04211D10B480078062805DA09480078401C0749087009E00748407820F05A
:206540000400001D0449487001E00148047010BD53020020500200203A02002001200149FC
:2065600008707047C1010020704701B5BDF8000000EBC00101EB00104FF6FF7101EAC000E0
:20658000009004E0BDF80000401E80B20090BDF800000028F6D108BD002001E0411CC8B271
:2065A0001428FBDB704700000120014908707047F8020020014890F8AB01704758120020A0
:2065C0000148D0F8B8017047581200200448D0F8B001C0EB001080004FF47A714843704740
:2065E000581200200148D0F8D4017047581200200348D0F8D0014FF47A7148437047000096
:20660000581200200748D0F8AC0148B10548D0F8AC01C0EB001080004FF47A7148437047C6
:206620000148FCE758120020E09304000148D0F8BC0170475812002010B54FF423714848F2
:20664000FBF7ABFD464A4FF42371002000F0EEF84348D0F88802434988427DD040480078C3
:20666000FF2805D14FF423713D48FBF796FD05E04FF409713A486830FBF78FFD98213848C9
:206680006830FBF78AFD38480021016041608160C16098211030FBF780FD0F2233A130485F
:2066A0006830FBF761FD1C2234A12F485838FBF75BFD2D48183839A10A6802600979017127
:2066C00038A10A68C0F806208A884281897901730E3036A10A680260496841601C2236A1F6
:2066E0005A30FBF741FD204890303BA10A680260097901711A483AA10A68C0F89621097974
:2067000080F89A1138A10A68C0F89E214968C0F8A2110120124981F8A801052081F8A90192
:20672000C1F8AC010220C1F8B0010120C1F8B8010020C1F8BC011E20C1F8D0010020C1F89D
:20674000D401C1F8500230212A48FBF726FD05480349C1F8880200E001E000F087F810BDA8
:206760005812002067452301581300206F72616E67652E6D326D2E73706563006D717474DF
:206780002D636C69656E74312E6F6D6E69766F6C746169632E636F6D000000003138383803
:2067A00034000000436C69656E74310033517470466E4453000000006D7174742D66616345
:2067C000746F72792E6F6D6E69766F6C746169632E636F6D0000000031383838330000009F
:2067E00041646D696E00000037787A5556404D5400000000AC14002010B50A48007880B15B
:2068000000200849087003F089FC0446682221460548FBF7A9FC044A4FF42371002000F0C3
:206820002BF810BD580200205812002070B504460D461646AAB2A1B23346A02001F033FF3B
:2068400070BD000000B50246024880F8AB2100F00DF800BD5812002000B502460248C0F845
:20686000BC2100F003F800BD581200200120014908707047580200202DE9F04106460D460F
:20688000174600244FEA551800BF0CE007EB441306EB441081B22022A02001F043FF05200B
:2068A00001F088FD641C4445F0D305F01F0048B107EB441305F01F0206EB441081B2A020F2
:2068C00001F030FFBDE8F08110B5012006F06EFA28B1012001F07EFD012006F061FA10BD99
:2068E00010B54FF4C06006F031FE4FF4A06006F085FD02221146062006F02AFD0021012090
:2069000006F0BCFB01220021104606F0EBF9012006F046FA10BD10B5044606F043FB40F2BD
