:020000040800F2
:20000000B81C002045010008D1070008A10500084D07000855020008A50D0008000000009B
:20002000000000000000000000000000190800087102000800000000090800081B080008D8
:200040005F0100085F0100085F0100085F0100085F0100085F0100085F0100085F01000860
:200060005F0100085F0100085F0100085F0100085F0100085F0100085F0100085F01000840
:200080005F0100085F0100085F0100085F0100085F0100085F0100085F0100085F01000820
:2000A0005F0100085F0100085F0100085F0100085F0100085F0100085F0100085F01000800
:2000C0005F0100085F0100085F0100085F0100085F010008D10B0008210C0008710C00087A
:2000E0005F0100085F0100085F0100085F0100085F0100085F0100085F0100085F010008C0
:200100005F0100085F0100085F0100085F010008310B0008810B00085F0100085F01000897
:200120005F0100085F0100085F0100085F010008DFF80CD000F03CF800480047311400086C
:20014000B81C00200648804706480047FEE7FEE7FEE7FEE7FEE7FEE7FEE7FEE7FEE7FEE70F
:20016000290800083101000840EA01039B0703D009E008C9121F08C0042AFAD203E011F8D0
:20018000013B00F8013B521EF9D27047D2B201E000F8012B491EFBD270470022F6E710B5C5
:2001A00013460A4604461946FFF7F0FF204610BD064C074D06E0E06840F0010394E807004A
:2001C00098471034AC42F6D3FFF7B6FF001C0008201C000870B58C1810F8015B15F00703F6
:2001E00001D110F8013B2A1106D110F8012B03E010F8016B01F8016B5B1EF9D12B0705D499
:200200000023521E0DD401F8013BFAE710F8013BCB1A921C03E013F8015B01F8015B521E6E
:20022000F9D5A142D8D3002070BD000001490120087170473C0000207047000001490120FC
:20024000487070474800002001490120087070474E000020FEE70000014901204870704700
:200260005000002001490120C8707047600100207047000003484EF66021D0F8B001484368
:2002800070470000740300200148D0F8D40170477403002003484FF47A71D0F8D00148433F
:2002A00070470000740300200448D0F8AC0118B14EF66021484370470148704774030020C8
:2002C000E09304000B4810B50178002910D00021017000F08FFA014668220748FFF744FFA9
:2002E000BDE81040044A4FF41671002000F006B810BD0000AF010020740300202DE9F041A8
:20030000002416460D4680464F090CE008EB441081B206EB44132022A02000F048F90520E6
:2003200000F0F2F8641CBC42F0D3E8060BD008EB441006EB441305F01F02BDE8F04181B22B
:20034000A02000F034B9BDE8F0812DE9F041074600F086FF40F20534204600F01BFF651E83
:20036000284600F017FFE61E304600F013FF384600F032FF204600F00DFF284600F00AFF25
:20038000304600F007FFBDE8F04100F011BF00002DE9F04715460F46064600F061FF00249E
:2003A00040F205384FF4417940F2023A19E000BF55F8241006EB840000F06EFF55F82400E7
:2003C00056F82410884202D00020BDE8F087404600F0E0FE484600F0DDFE504600F0DAFEB8
:2003E000641CBC42E4D300F0E3FE0120EDE7000010B5002305E000BF50F8234042F823402E
:200400005B1C8B42F8D310BD0148807970470000B001002001490120C8717047B00100200A
:200420002DE9F04140F2026001F018F940F2036001F014F940F2046001F010F940F2056025
:2004400001F00CF92E4E4FF4005301221421304600F098FF4FF4804301221421304600F07B
:2004600091FF4FF40044234601221421304600F089FF244F01231A461021384600F082FF9F
:20048000022301221021384600F07CFF102301221946304600F076FF8023012210213046FD
:2004A00000F070FFE5112B4601221021304600F069FF234601221021384600F063FF2B4656
:2004C00001221021384600F05DFF01228021304600F052FF01222946304600F04DFF01221C
:2004E0000221384600F048FF01221021304600F043FF21463846BDE8F041012200F03CBF5F
:20050000001001400008014004490A68431C00D0401C0B689B1A8342FBD37047AC020020B7
:200520002DE9F0411C480168491C01601B4E002505EB450706EB870461684868C0B10A782F
:20054000D20723D06288012A16D1401E486061680ED1087820F0F80008300870616882079B
:2005600002D420F001000870A16809B16068884760680078C00709D0608838B936F82700B4
:20058000082803D1A16809B1606888476D1CEDB2152DCDD3BDE8F081AC020020F0180008FF
:2005A000FEE70020401CC0B23228FBD3704770B51D4614460E4600F069F8A8B1300A00F07F
:2005C00017F888B1F0B200F013F868B106E015F8010B00F00DF838B1641EA4B2002CF6D175
:2005E00000F08AF8012070BD00F086F8002070BD2DE9F041244E074680244FF47A753C4226
:2006000001D0012200E000228021304600F0B4FEFFF7C7FFFFF7C5FF01224021304600F0CB
:20062000ABFEFFF7BEFF00224021304600F0A4FEFFF7B7FF6408E2D1012280213446304654
:2006400000F09AFEFFF7ADFF01224021204600F093FEFFF7A6FF8021204600F0DEFE18B1CE
:200660006D1E2D042D0CF6D1FFF79BFF00224021204600F081FEFFF794FF15B10120BDE8C1
:20068000F0810020FBE70000000C014070B5194D06464FF47A7401228021284600F06CFE06
:2006A000FFF77FFF01224021284600F065FEFFF778FF4021284600F0B0FE18B9641E24042C
:2006C000240CF6D1FFF76DFF94B100228021284600F052FEFFF765FF00224021284600F0D0
:2006E0004BFEFFF75EFF3046BDE87040FFF780BF002070BD000C014010B50C4C00228021E4
:20070000204600F039FEFFF74CFF01224021204600F032FEFFF745FF01228021204600F0AD
:200720002BFEBDE81040FFF73CBF0000000C01400248C079002800D001207047BC0100202D
:200740000149887170470000BC010020FEE700000249CA7860F34102CA707047CA010020DE
:200760000248C078C0F3400070470000CA0100200149012008707047C8010020054AD17847
:2007800060F3000121F0FC00D0700120911E087070470000CA010020094906230122C878F0
:2007A000B3EB900F04D902EB900363F3870001E020F0FC00C8700248801E0270704700008C
:2007C000CA0100200149887070470000B001002070470907090E002806DA00F00F0000F18E
:2007E000E02080F8141D704700F1E02080F8001470470000004870474C0600200149012089
:2008000048707047D001002070470000014902200870704750020020704710B500F070FCDC
:20082000BDE81040FFF77CBE214808B5016841F00101016001688907FCD5416841F080014B
:20084000416000210091009A521C0092502AFAD3426842F0900242600091491C0091502954
:20086000FBD3416821F003014160026811490A4002604268104B1A40426002680A400260C4
:20088000026822F48022026042680C4B1A40426002680A4002604FF41F01816000F008FF86
:2008A000BDE8084000214FF0006000F061BE000000100240FFFFF6FE0C00FFE8FFFF00F750
:2008C00010B50178002221F0010101700121074800F052FD0120FFF751FF05484FF4FA6231
:2008E0000178426041F00301017010BD000C0140E80200207047000010B50020FFF720FF62
:2009000001490020087010BD4C02002010B50446FFF7C0FC6060FFF777FD002808D0FFF7D9
:20092000B3FC002804D0BDE810400520FFF74ABF10BD4FF4FA614160FFF72EBF10B54FF4FC
:20094000C8714160FFF70CFF30B10020FFF700FFBDE81040FFF70CBF0120F7E74FF47A71E3
:200960004160FFF771BC64214160FFF775BC10B50446FFF799FC6060FFF748FFFFF74AFD92
:20098000BDE810404FF4FA60AFF3008004494860087820F0F80040F00100087070470000C6
:2009A000F802002070B54D4C207840F003002070FFF77AFC60602078002220F0F800207086
:2009C00004F1400064250178426021F0FB01017030384FF47A720178456021F0F80141F0D0
:2009E00003010170083004F1180100784D6020F0F80040F00300087001F1080008310078B9
:200A00004D6020F0F80040F00300087001F1080058340178426021F0F80141F00301017025
:200A2000207820F0020040F001002070FFF722FC60602078002220F0F8002070A4F1280068
:200A400038340178426021F0FB01017008300178426021F0FB01017018300178426021F04C
:200A6000FB010170103047F230520178456021F0F80141F00301017008300178426021F0DC
:200A8000FB010170083042F210720178426021F0FB01017008300178426021F0FB01017091
:200AA00008300F4A0178426021F0FB010170083043F698220178426021F0FA0141F0010187
:200AC0000170207840F003002070FFF7E3FB6060207820F0F800207070BD0000B002002087
:200AE000A0BB0D0010B504460078C0070AD0FFF71FFE002806D060684FF6FF71884201D23B
:200B0000401C606010BD4FF47A714160FFF776BE10B504464FF47A706060FFF7A3FBFFF76D
:200B200085FB4FF496706060BDE81040FFF786BB70B5104D0E49284600F09FFE88B10E4C99
:200B4000206870B1284600F03DFEE18822680A44491CE1801070E088A188884201D300207D
:200B6000E0802846BDE87040044900F086BE000005030500004C00402800002007030700DF
:200B800070B5104D0E49284600F077FE88B10E4C206870B1284600F015FEE18822680A44BB
:200BA000491CE1801070E088A188884201D30020E0802846BDE87040044900F05EBE000024
:200BC0000503050000500040300000200703070070B5104D0E49284600F04FFE88B10E4C00
:200BE000206870B1284600F0EDFDE18822680A44491CE1801070E088A188884201D300202E
:200C0000E0802846BDE87040044900F036BE000005030500003801401000002007030700B9
:200C200070B5104D0E49284600F027FE88B10E4C206870B1284600F0C5FDE18822680A44BB
:200C4000491CE1801070E088A188884201D30020E0802846BDE87040044900F00EBE0000D3
:200C60000503050000440040180000200703070070B5104D0E49284600F0FFFD88B10E4CD4
:200C8000206870B1284600F09DFDE18822680A44491CE1801070E088A188884201D30020DD
:200CA000E0802846BDE87040044900F0E6BD0000050305000048004020000020070307004B
:200CC00010B500221146272000F004FC40F2036000F0C4FC40F2127000F0C0FC0A4C4FF461
:200CE000806303221821204600F04CFBE31403220421204600F046FBBDE810404FF416519F
:200D0000024800F01FB80000000C0140004800402DE9F0410E4607460024094D0BE0395D0A
:200D2000284600F053FD0721284600F084FD0028F9D0641CA4B2B442F1D3BDE8F081000067
:200D40000048004070B50C46054600F043FD2146284600F00BFD0021284600F0C1FD0021EE
:200D6000284600F0AFFD0021284600F09DFD0021284600F071FD0021284600F067FD04215B
:200D8000284600F099FD0821284600F0A3FD284600F04CFD2846BDE87040014900F062BD75
:200DA00005030500FEE7000070B5074800254FF40074057021460548FFF7EFF90448C58059
:200DC00084800249016070BD58030020B4060020200000202DE9F04F864F002585B0F8889D
:200DE0002E46854C4FF4007A4FF0020B2070DFF80C92A8464FE000BF19F805205A2A48D1F1
:200E000009EB050002904078012842D102984079FA28A1EB050020D00A283AD3029804215F
:200E2000001D00F0FFFA0299754A0B6813604B6853600989118181422BD1554651466F483A
:200E4000FFF7ABF984F8008084F801B00126A7F80680BD80C7F8009020E0942819D30298B5
:200E60000421001D00F0DEFA019002988021103000F0D8FA0490942261480299FFF774F9A9
:200E80005F4901980A89824203D1B1F892100498D1E76D1CEDB221788D42ADD36078032834
:200EA00066D2DFE800F065650200002E60D05248534D1430017821F00101017028790028D5
:200EC00056D0012854D0022852D1687948F20117F72816D006DC05284AD2DFE800F04949A6
:200EE00049490C00474EF838052841D2DFE800F01014264354000520FFF706FB4FF4004216
:200F000003E00520FFF700FB3A460121F72057E001213A46F82053E05FF0000506EB852011
:200F2000FFF713FAAD1CEDB2642DF7D305206660FFF7EAFA01221146F92041E06889304A07
:200F4000810810326068FFF723FA48B101221146FA2000F061F8688961680844606004E06B
:200F600000220121FA2000F057F8E868C4E9020805B0BDE8F08FE068234A20213044FFF794
:200F800037FA21498020103901224881E06811468030E060FB2013E04FF01A30164A1B4DF3
:200FA0002061103204212846FFF7F2F90A20FFF7ABFA28682169884207D000220121FC201A
:200FC00005B0BDE8F04F00F027B801221146FC2000F022F80A20FFF797FA71B6BFF34F8FA1
:200FE0000B4801680B4A01F4E06111430160BFF34F8FFEE72000002058030020B4060020EB
:20100000B40A002000200008C4080020C0FC03080CED00E00400FA0570B505462048224CF5
:20102000032985701F4822D00168216041686160008920816571E2800421201D00F0F2F943
:2010400020810520FFF760FAFB2D20D00A211648FFF75EFE4FF4007421461448FFF79DF882
:2010600013480021C18084801049016070BD50F80A1F216041686160008920810820E072C8
:2010800065710221201D00F0CDF9E080D9E706488021103000F0C6F9A4F892009421D6E7C6
:2010A00058030020EC190008B4080020B40600202000002002E008C8121F08C1002AFAD111
:2010C00070477047002001E001C1121F002AFBD17047000070B54FF6FF75074E08E0040AD8
:2010E00005EA002311F8010B604036F810005840521E92B2F3D270BD001A000870470000D4
:2011000003480168002902D00168491E016070473800002000B5034600F008F85B1E012850
:2011200002D1002BF8D1042000BD000008490020CA68D20701D001207047CA68D20601D502
:2011400003207047C9684907FBD50220704700000020024000B5034600F008F85B1E012899
:2011600002D1002BF8D1042000BD000008490020CA6CD20701D001207047CA6CD20601D5BA
:2011800003207047C96C4907FBD502207047000000200240054901EB90110A6800F01F0386
:2011A0000120984002430A6070470000002002400748016941F08001016106490988B1F51B
:2011C000007F03D9016D41F0800101657047000000200240E0F7FF1F70B505461D481E4CE1
:2011E0004FF470260088B0F5007F02D91B48854215D23046FFF78EFF00280FD1206940F0C4
:20120000020020616561206940F0400020613046FFF780FF216921F00201216170BD30465D
:20122000FFF798FF0028F9D1206D40F0020020656565E069800700D56561206D40F04000B9
:2012400020653046FFF786FF216D21F00201216570BD0000E0F7FF1F00200240FFFF07085F
:2012600009480169094A0B06094901D542604160084B1B88B3F5007F04D9036D1B0601D583
:2012800042644164704700000020024023016745AB89EFCDE0F7FF1FF0B505461748184C82
:2012A0000E4600884FF47027B0F5007F02D91548854211D23846FFF72DFF00280BD1206945
:2012C00040F0010020612E603846FFF723FF216921F001012161F0BD3846FFF73BFF002896
:2012E000F9D1206D40F0010020652E603846FFF731FF216D21F001012165F0BDE0F7FF1FE6
:2013000000200240FFFF070830B5124A104B45F255551C461560D568641E05F0010502D07E
:20132000002DF8D100E04DB95160D1685B1E01F0020102D00029F8D102E009B1002030BD0D
:20134000C0F30B0090604AF6AA201060012030BDFFFF0F000030004002494AF6AA2008601D
:20136000704700000030004002494CF6CC40086070470000003000400AB1016170474161A8
:20138000704700002DE9F04301F00F04CD0600D5144300254FF00F095FF0010202FA05F685
:2013A0001E4014D007684FEA850C09FA0CF827EA080704FA0CF848EA0708282902D04829B4
:2013C00002D002E0466100E00661C0F800806D1CADB2082DE2D3082502FA05F61E4016D0F9
:2013E00047684FEA8508A8F1200809FA08FC27EA0C0704FA08FC4CEA070C282902D04829AD
:2014000002D002E0466100E00661C0F804C06D1CADB2102DE0D3BDE8F0838068084000D0BE
:20142000012070470A4601460020FFF753BE00001D4801681D48C160C168B1F11A3F0ED1BF
:201440001B490A681B4B1A40B2F1005F07D14A68826082684260086880F308889047FEF7BD
:20146000DFFFFFF72DFC062140F6B830FFF74CFFFFF77AFFFFF796FA00F058F9FEF7DCFEE4
:2014800000220DA110A0FFF739FE002201211048FFF772FFFFF788FCFFF75EFFFFF79AFC43
:2014A000FEF710FFF8E70000C0FC030800000020002000080000FE2F73797374656D2072D6
:2014C00065736574000000006D61696E000000000008014070B505461F4800240E460068B6
:2014E000234600F4E0614FF4A06081420FD006DCB1F5407F16D0B1F5806F06D10FE0B1F53B
:20150000C06F09D0B1F5E06F04D000F027F80224234608E0042306E00124032303E0032412
:20152000012300E00424C4F104008640C3F104010F20C8401040304305F1E021000181F8DC
:20154000000405F01F01012088406909890001F1E021C1F8000170BD0CED00E00249084345
:2015600002490860704700000000FA050CED00E0034A1140014303480160BFF34F8F704754
:2015800080FFFF1F08ED00E070B52EA588B02ECD8DE82E002CA22F4BD2E90012CDE904122A
:2015A00029A20446D2E90012CDE9061259680020C1F381022849FAB1012A1DD0022A1BD117
:2015C0005A6802F480354A10B5F5803F05D15D6805F40035B5F5003F00D111465A685D687A
:2015E000C2F383422D0101D542F010020F2A01D2921C00E0521C51435A68C2F303121DF8EC
:20160000025021FA05F25D6804AEC5F302255B68755D22FA05F5C3F3C22306AEF35C22FAAB
:2016200003F344B1012C08D0022C08D0032C00D1184608B070BD0846FBE71046F9E728469D
:20164000F7E70000000000000000000001020304060708090010024000127A00054901EB6C
:2016600090110A6800F01F030120984002430A607047000000100240054901EB90110A6847
:2016800000F01F030120984082430A607047000000100240054901EB90110A6800F01F03A8
:2016A0000120984002430A6070470000001002401B480021026842F0010202604FF4A063AE
:2016C0000268491C12F0020F01D19942F8D10168890700D4FEE741684160416841604168C3
:2016E00041F48061416041680E4A1140416041680D4A11434160016841F0807101600168F6
:201700008901FCD5416821F003014160416841F0020141604168C1F381010229FAD1704705
:2017200000100240FFFFC3F70000040870B50E484FF47A710068B0FBF1F0401EB0F1807FF8
:2017400011D24FF0E024606165170F212846FFF740F80020A061072020612846BDE87040CE
:201760000021FFF736B8FEE77003002070B5134B04460D460020E11A1A159C421BD005DCD8
:201780000F49611817D0914208D114E0914212D0B1F56C4F02D10320FFF7F6FE00EB5500BB
:2017A000B0FBF5F14FF6F07201EA020001F00F010843A06070BD0220EEE70000004C004008
:2017C00000BCFFBF4068C0F308007047C1F3080141607047134B10B5C21A1915984213D076
:2017E00007DC114A80180CD088421AD140F212440FE08A420BD0B2F56C4F12D140F20E34AB
:2018000007E040F2114404E040F2134401E040F214442046FFF73EFF2046BDE81040FFF798
:201820002BBF10BD004C004000BCFFBFC16841F40051C160704700EB9110006801F01F025E
:2018400001219140084000D001207047426922F400720A4342617047426922F480720A43CB
:201860004261704710B5C1F38912835801F01F040121A1400B43835010BD10B5C1F3891206
:20188000835800EB915001F01F04012202FA04F400682340C1F304418A40104202D00BB108
:2018A000012010BD002010BDC26822F4C062C260C2680A43C2607047C26822F004020A43EA
:2018C000C2607047026922F44052026102690A4302617047C26822F008020A43C26070477B
:2018E000C26822F48052C260C2680A43C260704700000100B00200206F090008010001000F
:20190000C00200206709000802000100C8020020110B000803000100D0020020070B00084C
:2019200004000100D80200205D09000805000100F00200200000000006000100B802002041
:201940000000000007000100F8020020000000000800000048030020E50A000809000100F1
:2019600008030020000000000A000100E0020020C10800080B000100E80200203309000804
:201980000C00010000030020F90800080D000100100300203D0900080E0001001803002035
:2019A000F50800080F00010020030020000000001000010028030020000000001100010061
:2019C0005003002000000000120001003003002000000000130001003803002000000000BF
:2019E00014000100400300200D0900085A0004000101000000005A00020003010000000091
:201A000000002110422063308440A550C660E770088129914AA16BB18CC1ADD1CEE1EFF1C6
:201A20003112100273325222B5529442F772D662399318837BB35AA3BDD39CC3FFF3DEE386
:201A40006224433420040114E664C774A44485546AA54BB528850995EEE5CFF5ACC58DD546
:201A60005336722611163006D776F6669556B4465BB77AA719973887DFF7FEE79DD7BCC706
:201A8000C448E5588668A7784008611802282338CCC9EDD98EE9AFF9488969990AA92BB9C6
:201AA000F55AD44AB77A966A711A500A333A122AFDDBDCCBBFFB9EEB799B588B3BBB1AAB86
:201AC000A66C877CE44CC55C222C033C600C411CAEED8FFDECCDCDDD2AAD0BBD688D499D46
:201AE000977EB66ED55EF44E133E322E511E700E9FFFBEEFDDDFFCCF1BBF3AAF599F788F06
:201B00008891A981CAB1EBA10CD12DC14EF16FE18010A100C230E3200450254046706760C5
:201B2000B9839893FBA3DAB33DC31CD37FE35EF3B1029012F322D232354214527762567285
:201B4000EAB5CBA5A89589856EF54FE52CD50DC5E234C324A0148104667447642454054445
:201B6000DBA7FAB79987B8975FE77EF71DC73CD7D326F2369106B016576676761546345605
:201B80004CD96DC90EF92FE9C899E9898AB9ABA94458654806782768C018E1088238A328C5
:201BA0007DCB5CDB3FEB1EFBF98BD89BBBAB9ABB754A545A376A167AF10AD01AB32A923A85
:201BC0002EFD0FED6CDD4DCDAABD8BADE89DC98D267C076C645C454CA23C832CE01CC10C45
:201BE0001FEF3EFF5DCF7CDF9BAFBABFD98FF89F176E367E554E745E932EB23ED10EF01E05
:201C0000201C00080000002074030000D4010008C81D00087403002044190000C41000084F
:201C2000014243E02E723E02100100FF005EBCE2613FDD83C29C7E20A3FD1F419DC3217F56
:201C4000FCA2401E5F01E3BD3E6082DC237D9FC1421CFEA0E1BF5D0380DE3C62BEE0025C98
:201C6000DF81633D7C22C09E1D43A1FF4618FAA427799BC584DA3866E5BB5907DB85673970
:201C8000BAE406581947A5FB7826C49A653BD987045AB8E6A7F91B45C6987A24F8A6441A58
:201CA00099C7257B3A6486D85B05E7B98CD2306EEDB3510F4E10F2AC2F7193CD114FADF330
:201CC000702ECC92D38D6F31B2EC0E50AFF1134DCE90722C6D33D18F0C52B0EE326C8ED018
:201CE000530DEFB1F0AE4C1291CF2D73CA947628ABF517490856B4EA6937D58B5709EBB5F0
:201D000036688AD495CB2977F4AA4816E9B7550B88D6346A2B7597C94A14F6A8742AC896D7
:201D2000154BA9F7B6E80A54D7896B021C35130106220C3549C90104160FB00E01101201EE
:201D40001A020D1DBB8041330D12031F01020960A01B0B1A040B5D076CA5C939B94601215A
:201D6000023F80880FC56A290EFBBE5D72C3B9B881FBDD1415FACEB3985D12ACCD5F1439C0
:201D80008E998F150103F70D1F0127BD0103F8DA1EB4AF010620153B43CA083C05420908F5
:201DA0001E07C3C80106201117B96F010310011F07510801033028178B0A0106F00204CD96
:081DC000029ACB0400A24A04C0
:202000006884002045210008259C00087D86000881950008BD63000851C50008000000000E
:202020000000000000000000000000000DB70008396600080000000029AB000831B900085F
:202040005F2100085F2100085F2100085F2100085F2100085F210008996900085F210008BE
:202060005F2100085F2100085F2100085F2100085F2100085F2100085F2100085F21000820
:202080005F2100085F2100085F2100085F21000845C200085F2100085F2100085F21000879
:2020A0005F2100085F2100085F2100085F2100085F2100085F2100085F2100085F210008E0
:2020C0005F2100085F2100085F2100085F2100085F2100082DC1000885C10008E5C1000866
:2020E0005F2100085F2100085F2100085F2100085F2100085F2100085F2100085F210008A0
:202100005F2100085F2100085F2100085F2100086DC00008CDC000085F2100085F210008C5
:202120005F2100085F2100085F2100085F210008DFF80CD000F04EFB0048004775D80008AF
:20214000688400200648804706480047FEE7FEE7FEE7FEE7FEE7FEE7FEE7FEE7FEE7FEE7D7
:202160003DB900083121000840EA01039B0703D009E008C9121F08C0042AFAD203E011F8CB
:20218000013B00F8013B521EF9D27047D2B201E000F8012B491EFBD270470022F6E710B5A5
:2021A00013460A4604461946FFF7F0FF204610BD30B505462A460B4612F8010B13F8014B57
:2021C00008B1A042F8D01CB1002802D06D1CF1E7284630BD421C10F8011B0029FBD1801A08
:2021E000704770B506460AF0D9F9046805460A220021304600F028FA2C6070BD2DE9FE4F43
:20220000804681EA0300C00F0C46009021F0004123F00045B8EB0200A94105D240462146DC
:2022200090461C460B46024623F00040104347D0270DC7F30A00C3F30A510290401A01908A
:2022400040286BDAC3F3130040F4801B0098924620B10023D2EB030A63EB0B0B019859466F
:20226000C0F14002504600F0BEF906460D4650465946019A00F0D6F910EB08006141002437
:2022800087EA115284EAE7731A4340D0009A62B3019A012A4FEA075215DC001B61EB0201D3
:2022A0004FF0004202EA0752CDE90042001C41F5801132462B4600F00EFA03B0BDE8F08FC5
:2022C00040462146F9E7001B61EB0201001C41F5801300185B412018A2F5001747EB030112
:2022E00040EAD570B6196D4111E06D084FEA360645EAC0754FEA0752001B61EB0201001C9B
:2023000041F5801149084FEA30000019514132462B4603B0BDE8F04F00F0CEB900980122DF
:2023200040000023D0EB020263EBE073009821464FEAE074B8EB000061EB0401E9E783F017
:2023400000435BE781F0004158E72DE9FE4F81EA030404F0004421F0004100944FF0000BCA
:2023600023F0004350EA01045ED052EA03045BD0C3F30A54C1F30A552C44A4F2F334019443
:20238000A0FB0254C1F3130141F48011C3F3130343F4801301FB024400FB034E840A970A6B
:2023A00044EA815447EA8357A4FB076802958D0A05FB07854FEA932C04FB0C542705029D25
:2023C0004FEA065847EA1637B5EB08056EEB070C870E920E47EA811742EA8312A7FB02016B
:2023E000B6EB0B0164EB00042B0D43EA0C335E1844EB1C50DA465146E7FB0201C5F31304BD
:202400004FEA0B3343EA14534FEA0432019C43EA0603A4F10C040294009CCDE900B400F03E
:202420005AF903B0BDE8F08F00200146F9E72DE9F04D81EA030404F0004B21F00045144677
:202440004FF0000A23F0004150EA050220D054EA01021DD0C5F30A570246C5F31303C1F39D
:202460001300C1F30A5640F4801543F48013A7EB0608101BD64608F2FD3873EB050002D354
:2024800008F1010801E092185B41B8F1000F03DA00200146BDE8F08D00204FF480110646B5
:2024A00084460EE0171B73EB050705D3121B63EB050306434CEA010C49084FEA300092187D
:2024C0005B4150EA0107EDD152EA030012D082EA040083EA0501084305D0101BAB4106D24D
:2024E0000122002306E000224FF0004302E06FF0010253101AEB06004CEB085110EB0A00C5
:2025000041EB0B01BDE8F04D00F0D6B80EB540F2334102910021CDE900110A460B4600F0AE
:20252000DAF803B000BD000030B5041E71F1000404DB4FF00044404264EB0101141E73F121
:20254000000405DB1C464FF00043524263EB04038B4208BF824230BD30B50B4601460020E8
:202560002022012409E021FA02F59D4205D303FA02F5491B04FA02F52844151EA2F10102C0
:20258000F1DC30BD2DE9F05F0546002092469B4688460646814640241BE028464146474636
:2025A000224600F02FF853465A46C01A914110D311461846224600F016F82D1A67EB010817
:2025C0004F4622460120002100F00DF817EB00094E41201EA4F10104DFDC484631462A4625
:2025E0004346BDE8F09F202A04DB203A00FA02F1002070479140C2F1200320FA03F31943C4
:2026000090407047202A04DB203A21FA02F00021704721FA02F3D040C2F1200291400843BA
:2026200019467047202A06DBCB17203A41FA02F043EAE07306E041FA02F3D040C2F1200275
:2026400091400843194670472DE9F04791460F4680460446002614F8015B2DB100F0CCF89F
:202660000068405DC007F6D12B2D02D02D2D18D0641E4A463946204600F0C2F827B1396841
:20268000A14201D1C7F8008071054FF002040BD54042002803DD09F081FF0460A007BDE8F8
:2026A000F08746F48066E4E70028F8DA09F076FF04606FF00040F2E710B5141E73F1000415
:2026C00008DA401C41F1000192185B411A4301D120F0010010BD2DE9F04D92469B4611B168
:2026E000B1FA81F202E0B0FA80F220329046FFF77AFF04460F4640EA0A0041EA0B01534684
:202700005A46084313D0114653EA010019D0C8F140025046FFF776FF05460E46504659469D
:202720004246FFF760FF084305D0012004E020463946BDE8F08D0020054346EAE0762C4333
:2027400037430A986305E40AA0EB08000022FD0A44EA47540A3002D500200146E9E7010534
:2027600010196941DDE9084500196941BDE8F04DA2E7C1F30A52C1F3130140F2FF3341F4D4
:2027800080119A4202DA00200146704740F233439A42A2F2334202DC5242FFF733BFFFF7F5
:2027A00022BF000030B5041E71F1000404DB4FF00044404264EB0101141E73F1000405DB1C
:2027C0001C464FF00043524263EB0403994208BF904230BD064C074D06E0E06840F00103C3
:2027E00094E8070098471034AC42F6D3FFF7A4FC742201089422010800487047501501081B
:202800002DE9F05F82460078002715468B460AF10104B946302801D09DB113E014F8010B3F
:202820000127782803D0582801D045B10AE00DB1102D07D10027102514F8010B02E0082576
:2028400000E00A250026B0460EE005FB080005FB06F1012701EB10461FFA80F8B6F5803FFB
:2028600000D3B94614F8010B294600F018F80028EBDABBF1000F05D00FB1641E00E05446C6
:20288000CBF80040B9F1000F06D009F087FE02210160C81EBDE8F09F48EA0640FAE73A28CF
:2028A00000D2303820F02002412A01D3A2F13700884201D34FF0FF30704770B58C1810F80F
:2028C000015B15F0070301D110F8013B2A1106D110F8012B03E010F8016B01F8016B5B1EFC
:2028E000F9D12B0705D40023521E0DD401F8013BFAE710F8013BCB1A921C03E013F8015B58
:2029000001F8015B521EF9D5A142D8D3002070BD10B5002400BF20E0C4EBC40101EB4421DC
:20292000144A02EB810040F61C01FFF736FCC4EBC40101EB44210F4B03EB810204EB44018C
:202940004FF4806303EB812040F61C0103F0D6FF052005F0BFFD601CC4B2082CDCDB0548A7
:202960000068401C20B944F2E0010248FFF715FC10BD00008C1500202DE9F0438BB000261A
:2029800000200A900990152009F012F9002873D0152009F0E9F8F948D0F86C02002862D060
:2029A000F7480088401CF649088008460088B0F5616F58DB202101A8FFF7EFFBF148008824
:2029C000C0EBC00101EB4020EF4901EB8007202101A8FFF7E2FBEB49098801EB41014FF4A1
:2029E000806202EB8121E94A1288881801AA202103F084FFE5480088074400240FE001A8DB
:202A0000005D395D884208D0022005F063FD3A462021480103F098FF03E0601C84B2202C35
:202A2000EDD300BFD94800882030D84908800846008840F61C01884214D30020D3490880D7
:202A4000D0480088401CCF490880CC48D0F86C020988884206D80020CC490880C949088000
:202A6000C749088000BF00241FE202274FF000084FF0000900BF3DE01FE24FF000082EE0F0
:202A800000200790089007AA4146384604F0C0FB08B304EB4402BE4901EB420007A9FFF7B7
:202AA00087FBC0B100200A900990032F08D1B8F1040F05D10AAA4146384604F02BFB07E079
:202AC00009AA4146384604F025FBBDF824000A904FF0010907E008F1010000F0FF08AD48A1
:202AE000C05D4045CCDC00BFB9F1000F00D003E0781CC7B2052FC0DB00BFA74800EB0410D8
:202B000000683C2814D3C4EBC40101EB44219E4A02EB81003B2108F0C9FDC4EBC40101EB6D
:202B20004421994A02EB81010A98C1F8EC0012E0994800EB041000683C21B0FBF1F201FB76
:202B40001200C4EBC40101EB44218F4A02EB81010A9A41F82020904800EB04100068401C9E
:202B60008D4901EB041108608B4800EB0410006800287DD0884800EB041000683C21B0FB28
:202B8000F1F201FB1200002872D1002600250BE0C4EBC40000EB44207B4901EB800050F869
:202BA00025000644681C85B23C2DF1DB7A4800EB041040683C2818D3C4EBC40101EB442139
:202BC000714A02EB810101F1F0003B2108F06EFD3C20B6FBF0F1C4EBC40000EB44206A4AC6
:202BE00002EB8000C0F8DC1115E03C20B6FBF0F1694800EB041040683C22B0FBF2F302FB9D
:202C00001302C4EBC40000EB44205F4B03EB8000F03040F82210604800EB04104068401C90
:202C20005D4901EB041148605B4800EB0410406800289ED0584800EB041040683C21B0FB16
:202C4000F1F201FB120000289ED1002600250CE0C4EBC40000EB44204B4901EB8000F030D3
:202C600050F825000644681C85B23C2DF0DB00E0C2E0494800EB04108068182818D3C4EBDA
:202C8000C40101EB4421404A02EB810101F5F070172108F00BFD3C20B6FBF0F1C4EBC40036
:202CA00000EB4420384A02EB8000C0F83C1216E03C20B6FBF0F1384800EB0410806818224B
:202CC000B0FBF2F302FB1302C4EBC40000EB44202D4B03EB800000F5F07040F822102E4875
:202CE00000EB04108068401C2B4901EB04118860294800EB0410806800287DD0264800EB0E
:202D0000041080681821B0FBF1F201FB1200002872D1002600250DE0C4EBC40000EB44207D
:202D2000194901EB800000F5F07050F825000644681C85B2182DEFDB174800EB0410808988
:202D4000B0F5B67F2ADDC4EBC40101EB44210E4A02EB810101F510704FF4B67108F0A6FC8C
:202D60001820B6FBF0F1C4EBC40000EB4420064A02EB8000C0F8F01728E0000064120020AD
:202D80005A0200205E0200208C1500205C020020D4140020140201080C1500201820B6FBA7
:202DA000F0F1474800EB0410808940F26D1290FBF2F302FB1302C4EBC40000EB4420414B1A
:202DC00003EB800000F5107040F822103C4800EB04108089401C3A4901EB041188813848B1
:202DE00000EB0410808900285DDD354800EB0410808940F26D1100E038E090FBF1F201FBD2
:202E0000120098BB002600250DE0C4EBC40000EB44202C4901EB800000F5107050F8250090
:202E20000644681C85B2B5F5B67FEEDD244800EB0410C0890A281ADBC4EBC40101EB442143
:202E4000204A02EB810101F2F470092108F02EFC40F26D10B6FBF0F1C4EBC40000EB4420F3
:202E6000184A02EB8000C0F8181813E01BE040F26D10B6FBF0F1C4EBC40000EB4420114A4F
:202E800002EB800000F2F4700D4A02EB0412D28940F822100A4800EB0410C089401C084909
:202EA00001EB0411C881601C84B2082C05DA0648D0F86C02A0423FF6D8AD0BB0BDE8F08310
:202EC0000C1500208C1500206412002001200149087070474700002010B502460B460648AD
:202EE0000088504300EB4004C4EB8010000B0A24B0FBF4F188B210BD3000002002460B4690
:202F00004FF49600B0FBF2F000F12D0188B27047704700002DE9F043002500260027A846DB
:202F2000A94600240AE0104830F8240005440E4800EB840040880644601CC4B21E2CF2DBC7
:202F40001E20B5FBF0F5B6FBF0F61E213046FFF7D5FF064908801E212846FFF7BDFF044905
:202F60000880BDE8F08300009006002030000020320000202DE9F04704460D462846FFF70B
:202F800029F9C6B2A019222100F052FBC7B2202F00DB202720211448FFF7FFF8A1193A46B0
:202FA0001148FFF7E1F81148FFF714F980462846FFF710F9C0F180090B48FFF70BF9A9EB3F
:202FC0000000801E80450BD20848FFF703F9074900EB0108044B2A4605A1404609F0CAFA83
:202FE00003F0ACFCBDE8F087CC120020160B002025732573222C00002DE9F04704460D4673
:203000002846FFF7E7F8C6B2A019222100F010FBC7B2102F00DB10271648002101634163AD
:203020008163C163A1193A463030FFF79DF81248FFF7D0F880462846FFF7CCF8C0F1800923
:203040000C483030FFF7C6F8A9EB0000801E80450CD20948FFF7BEF8074900EB0108054BA2
:2030600030332A4605A1404609F084FA03F066FCBDE8F087CC120020160B002025732573FA
:20308000222C00002DE9F04704460D462846FFF7A1F8C6B2A019222100F0CAFAC7B2102F1B
:2030A00000DB102716480021016241628162C162A1193A462030FFF757F81248FFF78AF8D2
:2030C00080462846FFF786F8C0F180090C482030FFF780F8A9EB0000801E80450CD20948D6
:2030E000FFF778F8074900EB0108054B20332A4605A1404609F03EFA03F020FCBDE8F0878B
:20310000CC120020160B002025732573222C00002DE9F04704460D462846FFF75BF8C6B2D9
:20312000A019222100F084FAC7B2402F00DB402740211448FFF731F8A1193A461148FFF796
:2031400013F81148FFF746F880462846FFF742F8C0F180090B48FFF73DF8A9EB0000801E89
:2031600080450BD20848FFF735F8074900EB0108044B2A4605A1404609F0FCF903F0DEFB51
:20318000BDE8F0870C130020160B002025732573222C000010B590B0044640216846FEF7C2
:2031A000FCFF40216846FEF7F8FF012204A1684609F0E0F9684602F07FFA10B010BD00002B
:2031C00041542B43474143543D312C25640D0A0010B590B0044640216846FEF7DEFF402102
:2031E0006846FEF7DAFF054A05A1684609F0C2F9684602F061FA10B010BD0000CC12002076
:2032000041542B434744434F4E543D312C224950222C222573220D0A00000000F0B585B07C
:2032200005462846FEF7D6FF86B2002004901A2003900120029006F0FFF9401E132804D044
:2032400014280BD0162808D146E02E215B4800F03FFA012103A800F03BFAACE002F0BAFBDA
:2032600082200490012104A800F032FA5448FEF7B1FFC0B201909DF80400401D0090012142
:20328000684600F025FA00200490012104A800F01FFA01200490012104A800F019FA002040
:2032A0000490012104A800F013FA012101A800F00FFA9DF80410424800F00AFA0020049010
:2032C000012104A800F004FA0A2005F003F9012103A800F0FDF96EE006F0A8F9072814D26A
:2032E000DFE800F004070A0B0C0D100003F0CAFC0BE003F0C7FC08E007E006E005E004F0E6
:203300000FF802E003F092FB00BF00BF03F052FF074630200490012104A800F0D9F9294850
:20332000FEF758FFC0B201903846FEF753FF84B29DF804002044801C80B20090BDF8000033
:203340007F2819DDBDF80000C11700EB5161C1F3C71102919DF80800401EBDF80010A1EB3B
:20336000C01080B200900121684600F0B1F9012102A800F0ADF903E00121684600F0A8F9AB
:2033800000200490012104A800F0A2F9012101A800F09EF99DF804100A4800F099F90A2027
:2033A00005F098F82146384600F092F9012103A800F08EF900BF00BF05B0F0BD750000206F
:2033C0003E0C0020FE0B00200121034A11700021024A1170704700005500002054000020DC
:2033E00010B5A2B004461648FEF7F4FE082821D913484630FEF7EEFE88B111485630FEF73E
:20340000E9FE60B10E495631A1F11000831F0C4ACDE900010BA102A809F0ACF806E0084B59
:203420004033074A11A102A809F0A4F802A802F043F903E01548006802F03EF922B010BD8F
:203440000C13002041542B43495053544152543D22544350222C222573222C222573222C5F
:20346000222573222C222573220D0A0041542B43495053544152543D22544350222C22254C
:2034800073222C222573220D0A0000007000002010B590B0044640216846FEF77EFE054ACA
:2034A00005A1684609F066F8684602F005F910B010BD0000080B002041542B434D47523DDD
:2034C00025730D0A0000000070B505461A48FEF781FE07280AD81848FEF77CFE164908446C
:2034E000441E16A1204609F045F80EE01248FEF771FE7D2809D21048FEF76CFE0E49084491
:20350000441E11A1204609F035F80B4802F0D4F8022004F0DFFF01210C4800F0D9F880212E
:203520000548FEF73AFE044909A002680A6082888A808079887170BD160B00206572726F1B
:20354000727D0D0A000000007D0D0A00650000207265706C793A7B0010B5044606A002F0C4
:20356000ABF8084802F0A8F807A002F0A5F814210448FEF712FE10BD41542B434D47533D16
:2035800022000000960B0020220D0A0070B5054600240A2004F09EFF70BD000010B5A2B07C
:2035A00004461448FEF716FEE8B112482030FEF711FE78B10F483030FEF70CFE50B10D48E0
:2035C0003030A0F110030B4A0BA1009002A808F0D1FF04E0074A0FA102A808F0CBFF02A8E9
:2035E00002F06AF803E01148006802F065F822B010BD0000CC12002041542B435354543DAC
:20360000222573222C222573222C222573220D0A0000000041542B435354543D2225732290
:203620002C22222C22220D0A000000006C00002010B502460B460020002100BF03E0441C66
:20364000A0B24C1CA1B2545C9C4202D0545C002CF5D110BD10B50020134908701349087001
:203660004FF480611248FEF798FD0020114908601149086080211148FEF78FFD0F4810A11B
:203680000A6802608A8882808979817114210E48FEF783FD06480D4908600020C8804FF497
:2036A0008060888010BD0000540000205500002008070020600000205C000020160B002000
:2036C0007265706C793A7B00960B00200800002070B504460D462946204608F031FE04A0BE
:2036E00008F038FF214604A008F034FF70BD00004D43553A00000000257300002DE9F04734
:2037000004460D462846FEF765FDC6B2A0192221FFF78EFFC7B2082F00DB08271648002117
:20372000C0F80E11C0F81211A1193A4600F58770FEF71AFD1148FEF74DFD80462846FEF7E4
:2037400049FDC0F180090E48FEF744FDA9EB0000801E80450BD20948FEF73CFD074900EBCF
:203760000108074B2A4607A1404608F003FF03F0E5F8BDE8F087000064120020160B002093
:203780007213002025732573222C000070B5044604EB8400144901EB800514480470002066
:2037A000134908701148007800B970BD4FF480611048FEF7F2FC00200F49C8804FF480603C
:2037C00088800C48086000200C4908600C490860E86830B1286820B1322C02DAE96868689E
:2037E000884700BFE1E700009CFB0008540000205500002008070020080000206000002014
:203800005C00002010B590B0044640216846FEF7C4FC40216846FEF7C0FC0B480078012865
:2038200006DB0AA301220CA1684608F0A3FE05E00FA3002208A1684608F09CFE684601F0A2
:203840003BFF10B010BD0000A4000020746573746D7174743200000041542B434D515454DC
:20386000414343513D25642C222573220D0A0000746573746D7174743100000010B5A4B07B
:203880000446802104A8FEF788FC802104A8FEF784FC2348007801281DDB2248FEF79AFC5D
:2038A00050B92048801FA0F1400301221EA1009004A808F05FFE2DE01A491031194A901FEE
:2038C000A0F14003CDE901210090012221A104A808F050FE1EE01348B630FEF77BFC50B921
:2038E0001048B030A0F1400300220FA1009004A808F040FE0EE00B49C631A1F11002901FEC
:20390000A0F14003CDE901210090002211A104A808F030FE04A801F0CFFE24B010BD0000BA
:20392000A40000205213002041542B434D515454434F4E4E4543543D25642C227463703A56
:203940002F2F25733A2573222C373230302C312C2C0D0A0041542B434D515454434F4E4E45
:203960004543543D25642C227463703A2F2F25733A2573222C373230302C312C2225732292
:203980002C222573220D0A0070B5054603F012FC0446204601F090FE01A001F08DFE70BD1E
:2039A0000D0A000070B5A0B0064680216846FEF7F4FB03F0FFFB044680216846FEF7EDFB99
:2039C0001048007801280ADB2046FEF703FC05462B4601220CA1684608F0CCFD09E0204665
:2039E000FEF7F8FB05462B46002207A1684608F0C1FD684601F060FE4FF47A7004F06AFD70
:203A000020B070BDA400002041542B434D5154545041594C4F41443D25642C25640D0A0000
:203A20002DE9F04704460D462846FEF7D3FBC6B2A0192221FFF7FCFDC7B2102F00DB10273E
:203A400010211448FEF7A9FBA1193A461148FEF78BFB1148FEF7BEFB80462846FEF7BAFB4D
:203A6000C0F180090B48FEF7B5FBA9EB0000801E80450BD20848FEF7ADFB074900EB01080F
:203A8000044B2A4605A1404608F074FD02F056FFBDE8F08762130020160B00202573257369
:203AA000222C000030B5A1B00546802101A8FEF774FB802101A8FEF770FB03F07BFB04462C
:203AC00009480078012805DB502208A101A808F051FD04E050220BA101A808F04BFD01A876
:203AE00001F0EAFD21B030BDA400002041542B434D5154545055423D312C312C25640D0AA5
:203B00000000000041542B434D5154545055423D302C312C25640D0A0000000010B50446D0
:203B2000034801F0C9FD03A001F0C6FD10BD00003E0C00200D0A000030B5A1B005468021BC
:203B400001A8FEF72AFB802101A8FEF726FB0F48007801280ADB0E48FEF73CFB0446234630
:203B600001220CA101A808F005FD09E00848FEF731FB04462346002206A101A808F0FAFC65
:203B800001A801F099FD21B030BD0000A40000203E0C002041542B434D5154545355423D99
:203BA00025642C25642C310D0A00000010B50446034801F081FD03A001F07EFD10BD0000AE
:203BC0003E0C00200D0A000030B5A1B00546802101A8FEF7E2FA802101A8FEF7DEFA0F485A
:203BE000007801280ADB0E48FEF7F4FA0446234601220CA101A808F0BDFC09E00848FEF7FB
:203C0000E9FA04462346002206A101A808F0B2FC01A801F051FD21B030BD0000A40000208C
:203C20003E0C002041542B434D515454535542544F5049433D25642C25642C310D0A000079
:203C400010B50446034801F037FD03A001F034FD10BD0000FE0B00200D0A000030B5A1B0DD
:203C60000546802101A8FEF798FA802101A8FEF794FA0F48007801280ADB0E48FEF7AAFA8F
:203C80000446234601220CA101A808F073FC09E00848FEF79FFA04462346002206A101A8A5
:203CA00008F068FC01A801F007FD21B030BD0000A4000020FE0B002041542B434D51545416
:203CC000544F5049433D25642C25640D0A00000010B50446034801F0EFFC03A001F0ECFC21
:203CE00010BD00003E0C00200D0A000030B5A1B00546802101A8FEF750FA802101A8FEF72D
:203D00004CFA0F48007801280ADB0E48FEF762FA0446234601220CA101A808F02BFC09E0A5
:203D20000848FEF757FA04462346002206A101A808F020FC01A801F0BFFC21B030BD0000A1
:203D4000A40000203E0C002041542B434D515454554E5355423D25642C25642C300D0A0071
:203D60002DE9F04704460D462846FEF733FAC6B2A0192221FFF75CFCC7B2102F00DB10273D
:203D800010211448FEF709FAA1193A461148FEF7EBF91148FEF71EFA80462846FEF71AFA8F
:203DA000C0F180090B48FEF715FAA9EB0000801E80450BD20848FEF70DFA074900EB01080E
:203DC000044B2A4605A1404608F0D4FB02F0B6FDBDE8F08752130020160B0020257325737A
:203DE000222C00002DE9F34FB7B00020369080463590002434903390002537981290A1461D
:203E0000A246002011903898322805DA389800EB8000FE4901EB8009FDA11298FEF7C8F9FB
:203E200048B3FD48007801280BDB0220FFF7AEFC012141F2883007F049FE1820F7490870BE
:203E400004E0F7480078401CF5490870F248007888B9F348007806280DDD00220121F1487A
:203E600009F020FC4FF47A7004F034FB05F0EAFB0020EB490870ECA11298FEF799F9F0B1D8
:203E8000EDA008F067FBF8A11298FEF791F930B10020E14908700120F549087004E00120FA
:203EA000DD490870F24908700220FFF76FFC2720DA49087001214FF4FA6007F007FEEDA103
:203EC0001298FEF775F950B10220FFF75FFC0620D249087001214FF4FA6007F0F7FDE8A175
:203EE0001298FEF765F950B10220FFF74FFC1D20CA490870012141F2883007F0E7FDE6A12A
:203F00001298FEF755F920B1E3A11298FEF750F90446E3A11298FEF74BF9002830D0E2A11B
:203F20001298FEF745F910B93220BC490870E1A11298FEF73DF9DAA11298FEF739F904461F
:203F4000A41D002609E02C212046FFF771FB804608F101000444701CC6B2052EF3DB2C2122
:203F60002046FFF765FB8046B8F1180F08DA1821D248FEF712F942462146D048FEF7F4F8D2
:203F8000CFA11298FEF714F958B1CFA11298FEF70FF918B1012003F0A5FF02E0002003F06F
:203FA000A1FFCBA11298FEF703F928B11120CA4908700120C9490870C1A11298FEF7F8F829
:203FC00020B993A11298FEF7F3F878B1C248007807280BD1BCA11298FEF7EAF818B10120CC
:203FE00003F080FF02E0002003F07CFF002617E006EB4600BA4901EB800ADAF8040068B123
:20400000DAF8080050B1DAF80410129801F05AFD04461CB12046DAE901129047701CC6B2BF
:204020000C2EE5D3AFA11298FEF7C2F890B1ADA11298FEF7BDF804460E21AC48FEF7ADF8FB
:204040002C21E01DFFF7F4FA80464246E11DA748FEF78AF8A6A11298FEF7AAF8A6A1129807
:20406000FEF7A6F8A6A11298FEF7A2F850B12C21E01DFFF7DDFA80460020A34908700120AA
:204080007B490870A1A11298FEF792F80446ACB32C212046FFF7CCFA804608F10100044459
:2040A0002C212046FFF7C4FA804600200D900E900F901090B8F1100F04DC424621460DA8ED
:2040C000FEF752F80DA803F09FFB08F1010004442C212046FFF7ACFA804600200D900E90AD
:2040E0000F901090B8F1100F04DC424621460DA8FEF73AF80DA803F06FFB00BF85A112986D
:20410000FEF756F80446D4B100200F9010902C21A01DFFF78DFA8046B8F1080F01DD4FF004
:2041200008084246A11D0FA8FEF71EF80FA8FEF758F81FFA80FB584603F032FB00BF77499A
:20414000129801F0BFFC3490349800285CD074493498FEF72DF80028F8D072A13498FEF7BE
:2041600027F818B100202C49087002E001202A49087071A13498FEF71BF80446002C44D0EC
:20418000142004F0A7F900246FA13498FEF710F80446002CF3D063A13498FEF709F818B192
:2041A00000201D49087002E001201B490870E41C2C212046FFF73CFAC5B2402D00DB40251F
:2041C00040216248FDF7E9FF2A4621465F48FDF7CBFF6019441C2C212046FFF729FAC5B2A0
:2041E000062D00DB0625594840300021016081802A462146FDF7B8FF6019441C2C212046E4
:20420000FFF716FAC5B2A3E0F6E3DDE09CFB00084552524F52000000A40000209702002062
:20422000A5000020000801402B434D515454434F4E4E4C4F535400002D2D2D2D2D2D2D2DE4
:204240002D2D2D2D2D2D2D4D515454204C4F53542D2D2D2D2D2D2D2D2D2D2D2D2D2D2D2DAB
:204260002D200D0A000000004C4F53543A2030009F0200202A415452454144593A2031008E
:204280004E4F20534552564943452C466C69676874204D6F646500002B435245473A00009B
:2042A0002B435053493A00004E4F205345525649434500004F6E6C696E650000AA0B002062
:2042C0002B4350494E3A000052454144590000002B434D5449000000980200209B0200200B
:2042E00084FF000822534D5F50220000080B00202B43504D530000002B4950440000000007
:20430000434C4F53454400009D0200202B434C42533A00002B4353513A20000089FB0008A3
:20432000C20B00202B434D51545452585041594C4F41443A203000002F636D642F6E6272CA
:204340006F6B65722F0000000D0A22000C130020102D00DB10251021FE48FDF71EFF2A46C0
:204360002146FC48FDF700FF6019441C22212046FFF75EF9C5B2102D00DB10251021F5489E
:204380001030FDF70AFF2A462146F2481030FDF7EBFE002001F056FB802113A8FDF7FDFE05
:2043A000EC491031EB48831FA0F14602CDE90001E9A113A808F0DEF813A803F047F90420FD
:2043C00005F02AFC02F0BAFAE9A13498FDF7F0FE0446002C59D00B342C212046FFF728F93C
:2043E000C5B2202D00DB20252021DA488638FDF7D4FE2A462146D7488638FDF7B5FE60191E
:20440000441C2C212046FFF713F9C5B2102D00DB1025D04886380021016241628162C162C0
:204420002A4621462030FDF79FFE6019441C22212046FFF7FDF8C5B2102D00DB1025C54886
:2044400086380021016341638163C1632A4621463030FDF789FE002001F0F4FA802113A860
:20446000FDF79BFEBB485638A0F11003A0F13002C2A1009013A808F07DF813A803F0E6F810
:20448000042005F0C9FB02F059FAC1A13498FDF78FFE04465CB304F10A00FDF7A2FEAD4969
:2044A000EE39C1F8C801002001F0CCFAA948EE38D0F8C801B0F5347F05D94FF43470A549C9
:2044C000EE39C1F8C801802113A8FDF766FEA148EE38B2A1D0F8C82113A808F04BF813A8BB
:2044E00003F0B4F8042005F097FB02F027FAAEA13498FDF75DFE0446F4B1002001F0A2FA59
:2045000004F10A00FDF76DFE9249EE39C1F8CC01802113A8FDF741FE8E48EE38A5A1D0F81C
:20452000CC2113A808F026F813A803F08FF8042005F072FB02F002FAA1A13498FDF738FEDC
:2045400004464CB3A1A001F07DFAA3A1204601F0CBF8802113A8FDF720FEA348007830B951
:2045600004F10A02A1A113A808F004F80EE09E480078012805D1A0A2A3A113A807F0FAFFCD
:2045800004E0A4A2A0A113A807F0F4FF13A803F05DF8042005F040FBA2A13498FDF708FEAB
:2045A00004464CB3A2A001F04DFA0A342046FDF711FEC5B2082D00DB08256648EE380021E8
:2045C000C0F80E11C0F812112A46214600F58770FDF7CAFD802113A8FDF7DFFD5D4A203286
:2045E00096A113A807F0C6FF13A803F02FF8042005F012FB02F0A2F993A13498FDF7D8FDBC
:20460000044634B3002001F01DFA0A342046FDF7E1FDC5B2082D00DB08254E482030002110
:204620008160C1602A4621460830FDF79DFD042005F0F2FA802113A8FDF7AFFD454A2832F1
:2046400084A113A807F096FF13A802F0FFFF02F075F983A13498FDF7ABFD04469CB300209E
:2046600001F0F0F9802113A8FDF797FD7FA12046FDF79EFD50B101203649EE3981F8C40161
:204680007CA27EA113A807F075FF14E07EA12046FDF78EFD50B100202E49EE3981F8C401C2
:2046A0007BA276A113A807F065FF04E07AA273A113A807F05FFF13A802F0C8FF042005F0FF
:2046C000ABFA02F03BF977A13498FDF771FD04469CB3002001F0B6F9802113A8FDF75DFDC6
:2046E00040A12046FDF764FD50B101201949EE3981F8C40100226EA113A807F03BFF14E024
:204700006EA12046FDF754FD50B100201149EE3981F8C401012266A113A807F02BFF04E015
:2047200067A269A113A807F025FF13A802F08EFF042005F071FA02F001F966A13498FDF71F
:2047400037FD044624B104F10A00FDF74AFDC7E0DFE0000052130020226E62726F6B6572CC
:20476000223A2225732C25732C25732C257322002F636D642F6E61706E2F0000226E6170E6
:204780006E223A2225732C25732C2573220000002F636D642F677374772F000022677374F5
:2047A00077223A22256422002F636D642F676374772F00002267637477223A2225642200E3
:2047C0002F636D642F636F64652F00002F636D642F636F64650000002F636D642F636F6488
:2047E000652F222A30000000C403002022636F6465223A257300000070617373776F72649E
:20480000207573650000000022636F6465223A222573220070617373776F7264206572725A
:204820006F7200002F636D642F6D6672712F00002F636D642F6D667271000000226D667271
:2048400071223A22257322002F636D642F746672712F00002274667271223A22257322001A
:204860002F636D642F757064742F0000226175746F2200006175746F000000002275706499
:2048800074223A2225732200226D616E752200006D616E75000000006572726F7220636DAC
:2048A000640000002F636D642F7270746D2F0000227270746D223A222564220031000000D1
:2048C0006572726F72000000227270746D223A22257322002F636D642F686266712F00002F
:2048E000F749C1F8D401002001F0ACF8802113A8FDF753FCF248F3A1D0F8D42113A807F059
:2049000039FE13A802F0A2FE042005F085F902F015F8EFA13498FDF74BFC0446C4B1EEA198
:204920003498FDF745FC08B101203390022005F073F9204603F090F88346FDF74BFC18B1A8
:20494000032005F069F903E00020339902F092FAE4A13498FDF72CFC0446C4B1E3A1349814
:20496000FDF726FC08B101203390022005F054F9204603F071F88346FDF72CFC18B103208D
:2049800005F04AF903E00220339902F073FADAA13498FDF70DFC0446C4B1D9A13498FDF772
:2049A00007FC08B101203390022005F035F9204603F052F88346FDF70DFC18B1032005F0C8
:2049C0002BF903E00320339902F054FACFA13498FDF7EEFB0446002C0ED0C0A13498FDF713
:2049E000E7FB08B101203390CAA13498FDF7E0FB18B1012005F010F99EE0C9A13498FDF7A2
:204A0000D7FB90B1022005F007F9204603F024F88346FDF7DFFB18B1032005F0FDF88BE01F
:204A20000020339902F026FA86E0BFA13498FDF7BFFB90B1022005F0EFF8204603F00CF89C
:204A40008346FDF7C7FB18B1032005F0E5F873E00120339902F00EFA6EE0B5A13498FDF77B
:204A6000A7FB90B1022005F0D7F8204602F0F4FF8346FDF7AFFB18B1032005F0CDF85BE0DA
:204A80000220339902F0F6F956E0ABA13498FDF78FFB90B1022005F0BFF8204602F0DCFF39
:204AA0008346FDF797FB18B1032005F0B5F843E00320339902F0DEF93EE0A1A13498FDF71E
:204AC00077FB90B1022005F0A7F8204602F0C4FF8346FDF77FFB18B1032005F09DF82BE09A
:204AE0000420339902F0C6F926E097A13498FDF75FFB08B300260EE006EB4602944800EBEE
:204B000042013498FDF754FB18B1304602F0B4F806E0701CC6B26A48D0F86C02B042EBD8DF
:204B200000BF6748D0F86C02B04202D8FF2002F0A3F8062005F070F886A13498FDF738FBBC
:204B40000446002C78D085A13498FDF731FB0446002C7FD0142003F0BDFCAFF63801349836
:204B6000FDF726FB18B100207E49087002E001207C490870E41D2C212046FEF759FDC5B242
:204B8000402D00DB402540214D48A830FDF705FB2A4621464A48A830FDF7E6FA6019441CB8
:204BA0002C212046FEF744FDC5B2062D00DB06254348E8300021016081802A462146FDF76B
:204BC000D3FA6019441C2C212046FEF731FDC5B2102D00DB102510213948EE30FDF7DDFAFA
:204BE0002A4621463648EE30FDF7BEFA6019441C22212046FEF71CFDC5B2102D00DB102542
:204C000010212F48FE30FDF7C8FA2A4621462C48FE30FDF7A9FA002000F014FF802113A879
:204C2000FDF7BBFA2649FE31A1F11000831FA0F14602CDE9000101E0F2E30BE04AA113A812
:204C400007F098FC13A802F001FD042004F0E4FF01F074FE4AA13498FDF7AAFA0446002CFB
:204C60002CD049A13498FDF7A3FA0446ACB1802113A8FDF792FA092246A113A8FDF774FA3F
:204C800013A802F0E3FC00200D49C1F8F00150212F487C38FDF781FAF9E04FF0000B00201A
:204CA00010900749C1F8F001502129487C38FDF774FA00BFA7E0002010909AE0ECE0000016
:204CC000641200202268627271223A22256422002F617474000000002F6174742F6D6574E1
:204CE000610000002F737473000000002F7374732F6D6574610000002F73746100000000F4
:204D00002F7374612F6D65746100000022676574223A000066756C6C64617461000000003B
:204D2000226174740000000022636D640000000022737473000000002264746100000000DB
:204D400022646961000000002261626163000000D414002022736574223A000062726F6BDA
:204D6000223A0000A40000202262726F6B223A2225732C25732C25732C25732200000000BF
:204D800072616D6C223A000072616D6C223A5B5D000000002272616D6C223A5B5D00000069
:204DA00000200E900F900EAA5846109902F030FAD8B10EA93498C01DFDF7FAF90446A4B10C
:204DC0000EA9FE48FDF7F4F978B9FD48D0F8F011D0F8F001401CFA4A01EB4101C2F8F00184
:204DE000F64800EB41000E9901601098401CC0B21090F44810F80B1010988142D0DC0BF1B9
:204E0000010000F0FF0BBBF1050FFFF654AF802113A8FDF7C2F9ECA103C9CDE91301E84881
:204E2000D0F8F00130B3002618E013A8FDF7D2F913A9084406EB46010D90E04800EB41020B
:204E4000E4A10D9807F096FB13A8FDF7C3F913A90844E2A109780170701CC6B2D848D0F8CC
:204E6000F001B042E1D813A8FDF7B4F9401E13A900220A5413A8FDF7ADF913A90844AFF2A2
:204E8000E4010978017013A802F0E0FB00BF042004F0C2FE01F052FDD1A13498FDF788F929
:204EA0000446F4B1A01DFDF79CF907B2012F05DBB7F5347F02DAC248C0F8EC71802113A83E
:204EC000FDF76BF9BE48C8A1D0F8EC2113A807F051FB13A802F0BAFB042004F09DFE01F032
:204EE0002DFDC4A13498FDF763F90446002C72D0C2A13498FDF75CF90446ACB1802113A8D4
:204F0000FDF74BF90922C0A113A8FDF72DF913A802F09CFB0020AA49C1F86C023021A7483A
:204F20007C30FDF73AF981E04FF0000B00201090A349C1F86C023021A0487C30FDF72DF921
:204F400000BF37E0002010902AE000200E900F900EAA5846109902F05BF9E8B10EA93498F3
:204F6000C01DFDF725F90446B4B10EA993487C30FDF71EF980B99248D0F86C12D0F86C02BB
:204F8000401C8F4A01EB4101C2F86C0202F51C7000EB41000E9901601098401CC0B21090B9
:204FA000884810F80B1010988142CEDC0BF1010000F0FF0BBBF1050FC4DB802113A8FDF743
:204FC000ECF894A103C9CDE913017D48D0F86C0240B300261AE02EE013A8FDF7FBF813A9A8
:204FE000084406EB46010D9074487C3000EB410278A10D9807F0BEFA13A8FDF7EBF813A93F
:20500000084476A109780170701CC6B26C48D0F86C02B042E0D813A8FDF7DCF8401E13A906
:2050200000220A5413A802F011FB00BF042004F0F3FD01F083FC79A13498FDF7B9F804462B
:2050400094B34FF0000B77A1204600F04DFB402101A8FDF7A2F8802113A8FDF79EF87448CF
:205060000078B0B92321E01DFEF7E2FA401C00F0FF0B5A46E11D01A8FDF776F801AA6DA185
:2050800013A807F077FA13A8FDF7A4F800F0FF0B11E067480078012807D1AFF6A40265A13E
:2050A00013A807F067FA06E00CE0AFF6980261A113A807F05FFA13A802F0C8FA042004F038
:2050C000ABFD00BF5EA13498FDF772F80446F4B1A01DFDF786F807B2002F05DDB7F5347FF9
:2050E00002DA3748C0F8C871802113A8FDF755F8334855A1D0F8C82113A807F03BFA13A803
:2051000002F0A4FA042004F087FD01F017FC51A13498FDF74DF8044604B3A01DFDF761F85D
:2051200007B2002F07DD2648D0F8C801B84202D92348C0F8CC71802113A8FDF72EF8204891
:2051400046A1D0F8CC2113A807F014FA13A802F07DFA042004F060FD01F0F0FB42A13498CF
:20516000FDF726F804463CB3E41D2C212046FEF75FFAC5B2202D00DB2025202110486830CD
:20518000FDF70BF82A4621460D486830FCF7ECFF6019441C2C212046FEF74AFAC5B2102DFD
:2051A00000DB1025064868300021016241628162C1622A4621465BE089E0000058140020C5
:2051C00064120020140201082272616D6C223A5B0000000022257322000000002C0000008D
:2051E00072616D74223A00002272616D74223A256400000061626163223A0000616261637A
:20520000223A5B5D000000002261626163223A5B5D0000002261626163223A007075626B06
:20522000223A22007075626B223A222A30000000C4030020227075626B223A222573220073
:2052400067737477223A00002267737477223A256400000067637477223A000022676374F0
:2052600077223A25640000006E61706E223A22002030FCF779FF6019441C22212046FEF775
:20528000D7F9C5B2102D00DB102576480021016341638163C1632A4621463030FCF764FFFE
:2052A000802113A8FCF779FF6E483030A0F110036C4AAFF63831009013A807F05BF913A858
:2052C00002F0C4F9042004F0A7FC01F037FB66A13498FCF76DFF04466CB3802113A8FCF757
:2052E0005CFF63A12046FCF763FF68B162A113A807F040F9072006F011F9322003F0EAF83F
:20530000082006F00BF910E05EA12046FCF750FF38B15EA113A807F02DF9092006F0FEF8FF
:2053200003E05EA113A807F025F913A802F068FB042004F071FC5DA13498FCF739FF0446E7
:20534000A4B1802113A8FCF728FF2046FCF742FF83465A46214613A8FCF706FF13A802F0B8
:2053600075F9042004F058FC01F0E8FA51A13498FCF71EFF044694B3802113A8FCF70DFFC6
:205380004EA12046FCF714FF50B101203549683981F8C40100224AA113A807F0EBF816E09B
:2053A0004AA12046FCF704FF50B100202D49683981F8C401012242A113A807F0DBF806E0BF
:2053C000AFF60432AFF6003113A807F0D3F813A802F03CF9042004F01FFC01F0AFFA3CA113
:2053E0003498FCF7E5FE0446D4B1A01DFCF7F9FE1C496839C1F8D401802113A8FCF7CDFEE7
:205400001848683834A1D0F8D42113A807F0B2F813A802F01BF9042004F0FEFB01F08EFA53
:20542000B9F1000F1BD0D9F808101298FCF7C0FE0446A4B1D9F80000162803D11720294959
:20544000087005E0012028490870002025490870D9F8100018B1D9F810101298884739B0E2
:20546000BDE8F08FCC12002073776368223A2200226F6E22000000002273776368223A2261
:205480006F6E2200226F6666220000002273776368223A226F66662200000000227377636D
:2054A00068223A226572726F7222000072656164223A22007270746D223A00003A30000017
:2054C000227270746D223A25640000003A31000068626671223A00002268626671223A2556
:2054E0006400000054000020550000202DE9F04107460D462846FCF76DFE00F0FF0809A10B
:20550000384600F0DFFA044654B1641C22212046FEF78EF8C6B2324621460348FCF724FE9A
:20552000BDE8F081222B0000960B00202DE9F04704460D462846FCF74DFEC6B2A01922213D
:20554000FEF776F8C7B2062F00DB06271448002101608180A1193A46FCF706FE1148FCF7D6
:2055600039FE80462846FCF735FEC0F180090C48FCF730FEA9EB0000801E80450BD20948C6
:20558000FCF728FE074900EB0108054B2A4606A1404606F0EFFF01F0D1F9BDE8F087000006
:2055A0004C130020160B002025732573222C000010B536480078C008B0B13448007820F0C5
:2055C000F8003249087008464078401C487008464078062808DA2E480078FEF7D7F80021DD
:2055E00041F2883006F072FA2A48C0882A4908602A48046844E0601E2949085C0D2804D169
:205600000846005D0A2800D1DCB92548005D3E2817D02348005D7D2813D0A01E2049085C55
:205620002049097888422AD1601E1D49085C1D494978884223D11A48005D1A4989788842A1
:205640001DD10A2002F046FF601C14490968401A1549086015A006F07DFF11480F4A12683E
:20566000811814A006F076FF0D490C4A1268881807490978FEF7B6FB601C08490860641C80
:20568000054800688442B6D310BD0000E4040020540000200800002058000020600000209D
:2056A00008070020C20B00205C00002047534D3A000000002573000070B504462046FCF7D1
:2056C00089FD85B22946204606F03AFE03A006F041FF214603A006F03DFF70BD4D43553AA9
:2056E00000000000257300002DE9F04F93B08046894600200490039002900190009080A1CA
:205700004046FCF755FD08B1012002904846FCF761FDC0B21290129908EB01002321FDF788
:2057200087FFC0B21190202105A8FCF736FD129808EB000405A8109000270EE0E05D202834
:2057400009D0E15D109801701098401C10900198401CC0B20190781C87B211988742EDDB76
:205760006A48FCF737FD82464846FCF733FDC0F1800B05A8FCF72EFDABEB0000801E8245D5
:205780000DD2029858B96148FCF724FD5F4900EB010A05AB4A465EA1504606F0EBFE0198D7
:2057A00014280FDA029868B95848FCF713FD57490844A0F1010A58A1504606F0DBFE13B0BD
:2057C000BDE8F08F0198142806DA5948407820F00200801C564948700DF11E0000F09EF9EF
:2057E000064600208DF81E0005A800F097F90546202105A8FCF7D1FCC5208DF821006A205F
:205800008DF8220029208DF823000E208DF82400FA208DF82500300E8DF82900300C8DF8A8
:205820002800300A8DF82700F0B28DF82600280E8DF82D00280C8DF82C00280A8DF82B005E
:20584000E8B28DF82A000DF12104207B8DF83700E07A8DF83600A07A8DF83500607A8DF83D
:205860003400207A8DF83B00E0798DF83A00A0798DF8390060798DF838002E48DDE90D12BA
:20588000C0E9141204F050FF2B48007808B903F0C1F929480078012810D11C48FCF79AFCBD
:2058A0007A2821D21948FCF795FC1849084423A10A6840F8012C0979C17015E01E480078A0
:2058C000022811D11148FCF785FC7A280CD20F48FCF780FC0D4908441AA10A6840F8012D74
:2058E0008A888280897981711348007800906A460C21022001F0DEFE01F020F800BF5EE764
:205900002F636D642F636F6465000000160B002025732573222C00006973206E6F742063CB
:205920006F727265637420666F726D61742E20003A020020FC730020C403002020757365A2
:2059400022000000206572726F7222002DE9F04704460D462846FCF73DFCC6B2A0192221C1
:20596000FDF766FEC7B2082F00DB0827154800218160C160A1193A460830FCF7F5FB1248E6
:20598000FCF728FC80462846FCF724FCC0F180090C480830FCF71EFCA9EB0000801E8045DF
:2059A0000CD20948FCF716FC074900EB0108054B08332A4605A1404606F0DCFD00F0BEFFCC
:2059C000BDE8F08772130020160B002025732573222C000070B51648FCF7FCFB0446224628
:2059E00013491448FCF7C0FB3C211348FCF7D5FB1248FCF7EFFB0446224610490E48FCF73B
:205A0000B3FB0C48FCF7E6FB05460B48FCF7E2FB094944182A4607492046FCF7A5FB06488D
:205A2000FCF7D8FB0449084405A10988018070BDFC730020C20B00203E0C002077FB0008C2
:205A40002F23000070B5044614211948FCF7A5FB1848FCF7BFFB05462A4616491448FCF7E6
:205A600083FB40211448FCF798FB1448FCF7B2FB05462A4611491048FCF776FB0C48FCF751
:205A8000A9FB06460C48FCF7A5FB0B494518324607492846FCF768FB4CB10748FCF79AFB1E
:205AA00005494518224606A1284606F063FD70BDC20B0020FC730020FE0B002068FB00082B
:205AC000257300002DE9F04706460F46124800881FFA80F93846FCF77DFB1FFA80F800252D
:205AE00013E0002407E02819305C395D884200D003E0601C84B24445F5DB00BF444502D1A2
:205B00007019BDE8F087681C85B2A9EB0800A842E7DC0020F5E700005C0000202DE9F0411D
:205B2000054600242846FCF755FBC7B2002600BF0EE0285D302802DB285D392800DD09E093
:205B400006EB86004600285D30380644601CC4B2BC42EEDB00BF3046BDE8F081F0B59BB05D
:205B6000002500201290002600271190604C202113A8FCF712FB00F0DFF812AA13A9204603
:205B800000F068FB002870D09DF8480000286DD058480078001F08282AD2DFE800F0042AC0
:205BA0003D505F686F829DF84800202808DA13AA51A101A806F0DEFC53A101A8FFF794FD4D
:205BC0005548007828B9202213A95448FCF7CCFA00E000BF5048007850495C3981F8240101
:205BE0001820444908704E490870642002F072FC6AE04A485C38BDF84C10A0F87C1011AA15
:205C00000121084601F086FABDF844004549C1F8C80100F093FE57E040485C38BDF84C10B5
:205C2000A0F87E1011AA0221012001F073FABDF844003C49C1F8CC0100F080FE44E0202209
:205C400013A936482430FCF78FFA364A68320321012001F05FFA00F071FE35E02F485C3812
:205C6000BDF84C10A0F87E102EE03FE02DE0202213A92A484630FCF777FA25E027485C3861
:205C8000BDF84C10A0F8C21011AA0621012001F041FABDF84400234981F8C40100F04EFE7B
:205CA00012E01E485C38BDF84C10A0F8C41011AA0721012001F02EFABDF844001949C1F84A
:205CC000D40100F03BFE00BF00BF4FF480710848FCF763FA00201449C880054808600548AD
:205CE000007800F051F8642002F0F4FB1BB0F0BDFA0C0020A60000202F636D642F636F6462
:205D0000652F2225732200002F636D642F636F64652F222A30000000C4030020A26700202B
:205D2000A900002064120020000000200120014908707047A700002010B510480078E0B15D
:205D40000F48008820B10E480088401E0C4908800B48008838B90B4908780978491C094BA0
:205D6000197000F011F8074800783D2802DD00200449087000200149087010BDA70000203B
:205D8000AC000020A900002070B588B004460025002620216846FCF700FA3E2C75D2DFE828
:205DA00004F01F273039414A525A636B757D858D969FA8B1B9C1F3FBF0EFEEEDECEBEAE9DD
:205DC000E8E7E6E5E4E3E2E1E0DFDEDDDCDBDAD9D8D7D6D5D4D3D2D1D0CFCECDCCCBCAC9B3
:205DE00001261422F9496846FCF7BEF9202522E201262022F54914316846FCF7B5F92025E3
:205E000019E201262022F14934316846FCF7ACF9202510E20126ED48416D0091806D0190E9
:205E2000202508E201262022E8495C316846FCF79BF92025FFE10126E448B0F87C00ADF896
:205E400000000225F7E10126E048B0F87E00ADF800000225EFE101262022DC498031684645
:205E6000FCF782F92025E6E10126D848B0F87E00ADF800000225DEE101262022D349A23158
:205E80006846FCF771F92025D5E1D3E10126CF48B0F8C200ADF800000225CCE10126CB48ED
:205EA000B0F8C400ADF800000225C4E10126C748B0F8C600ADF800000225BCE1012610229F
:205EC000C249C8316846FCF74FF92025B3E101261022BE49D8316846FCF746F92025AAE1E3
:205EE00001261022B949E8316846FCF73DF92025A1E101261022B549F8316846FCF734F942
:205F0000202598E101261022B1496846FCF72CF9202590E10126AD48B0F81801ADF8000072
:205F2000022588E10126A948B0F81A01ADF80000022580E176E16DE164E15BE152E149E146
:205F40003CE133E12AE121E118E10FE106E1FDE0F4E0EBE0E2E0D9E0D0E0C7E0BEE0B5E0B2
:205F6000ABE0A2E098E08EE085E07CE073E06AE061E059E050E047E03EE035E02CE023E0BD
:205F80001AE011E008E0FFE701269048B0F81C01ADF8000002254EE101268C48B0F81E01C7
:205FA000ADF80000022546E101268848B0F82001ADF8000002253EE101268448B0F8220185
:205FC000ADF80000022536E101268048B0F82401ADF8000002252EE101267C48B0F826018D
:205FE000ADF80000022526E101267848B0F82801ADF8000002251EE101267448B0F82A0195
:20600000ADF80000022516E101267048B0F82C01ADF8000002250EE101266C48B0F82E019C
:20602000ADF80000022506E101266848D0F8300100900425FFE001266448B0F83401ADF8F0
:2060400000000225F7E001266048B0F83601ADF800000225EFE001265C48B0F83801ADF8A8
:2060600000000225E7E001265848B0F83A01ADF800000225DFE001265448B0F83C01ADF8B0
:2060800000000225D7E001261022514936316846FCF76AF81025CEE0012610224C4946317D
:2060A0006846FCF761F81025C5E001264748B0F85E01ADF800000225BDE0012618224449F8
:2060C00058316846FCF750F81825B4E001263F48B0F87801ADF800000225ACE001263B48AC
:2060E000B0F87A01ADF800000225A4E001263748B0F87C01ADF8000002259CE00126334878
:20610000B0F87E01ADF80000022594E001262F48B0F88001ADF8000002258CE001262B487F
:20612000B0F88201ADF80000022584E001262748B0F88401ADF8000002257CE00126234887
:20614000B0F88601ADF80000022574E001261F48B0F88801ADF8000002256CE001261B488F
:20616000B0F88A01ADF80000022564E001261748B0F88C01ADF8000002255CE00126134897
:20618000B0F88E01ADF80000022554E001260F48B0F89001ADF8000002254CE001260B489F
:2061A000B0F89201ADF80000022544E001260748B0F89401ADF8000002253CE001260348A7
:2061C000B0F89601ADF80000022534E0466700204E68002001261E48B0F89801ADF800008A
:2061E000022528E001261A48B0F89A01ADF80000022520E001261648B0F89C01ADF8000069
:20620000022518E001261248B0F89E01ADF80000022510E001260E48B0F8A001ADF8000070
:20622000022508E001260A48B0F8A201ADF80000022500E000BF00BF46B1802C06DA04F1E9
:206240008001C8B22A46694600F040F808B070BD466700202DE9F04705460E4617464FF0C2
:206260000008C1462C462078AA282BD1E078401D6178884226D16078401C00EB05086078E4
:20628000401E00EB05096078801E81B2601C00F097F8B9F80010884214D1B8F8000045F6A8
:2062A0005B2188420ED1E07820B1E278211D3046FBF75AFFE0783870A0780349087001203A
:2062C000BDE8F0870020FBE7A6000020FEB506460F461546AA208DF80000681DC0B28DF860
:2062E00001008DF80260E8B28DF8030080212448FBF753FF2248009901603FB17C2D05DC65
:2063000025B12A463946001DFBF72EFF9DF80100801E81B21A48401C00F052F8ADF8080070
:2063200045F65B20ADF80A009DF80100401E144908440299016000241BE09DF80100C01CCE
:2063400004F10801884205DD0D490819082100F019F808E09DF80120D21C121BD1B2084A64
:20636000101900F00FF8022002F0B4F804F10800C4B29DF80100C01CA042DEDCFEBD000001
:206380007A0C002070B504460D462946204605F09BFF70BD00200449C8804FF48070888014
:2063A000024808607047000000000020FA0C00200120014908707047AE00002000BFFEE722
:2063C00070B502460C46FF25FF2309E012F8010B80EA05010648405C80EA03050548435C01
:2063E000201EA4F10106B4B2F0D145EA032070BD140001081401010810B50246002006E0CF
:2064000013784340034CE05C521C4B1ED9B20029F6DC10BDC000002001200149087070473F
:20642000B10000202DE9F04F91B005460E4617464FF00009CA46C846C3462846FBF7CAFE62
:2064400081463046FBF7C6FE824615B10EB14F4503DD002011B0BDE8F08F002402E008F184
:206460000108641CBC42FADB002406E02A5D58460BF1010B01A90A54641C4C45F6DB00247B
:2064800005E0325D404608F101082A54641C5445F7DB3C4606E001A8025D404608F101089F
:2064A0002A54641C4C45F6DB002005F808002846D0E770B503460A4600200AE00A25B3FB8D
:2064C000F5F605FB1635303515540A25B3FBF5F3401C002BF2D1411E08E0545C451A6D1EC8
:2064E000555D5554451A6D1E5455491E00EBD076B1EB660FF1DA70BD012001490870704773
:20650000B000002000B589B04FF4C06007F038FB06A9002006F051FE01A9012006F04DFE10
:206520002D4806F0ABFC40F2197007F029FB4FF4006303224821294807F006F94FF48053C2
:2065400003221821254807F0FFF800208DF81C008DF81D008DF81E008DF81F008DF8200033
:206560008DF821008DF818008DF8190004208DF81A0002208DF81B000C20ADF8220006A913
:20658000154806F013FD0020ADF80E00ADF810000120ADF812000020ADF80400ADF80600C4
:2065A000ADF80800ADF80A00ADF80C0001208DF8140001A806F072FC0221074806F087FD1B
:2065C0000749032006F0F9FD00221146142007F0D9F909B000BD0000006400400008014083
:2065E0006805002010B5812007F0FAFA04460C480078A04211D10B480078062805DA0948BA
:206600000078401C0749087009E00748407820F00400001D0449487001E00148047010BD4D
:2066200053020020500200203A0200200120014908707047C1010020704701B5BDF8000079
:2066400000EBC00101EB00104FF6FF7101EAC000009004E0BDF80000401E80B20090BDF834
:2066600000000028F6D108BD002001E0411CC8B21428FBDB7047000001200149087070472B
:2066800000030020014890F8C7017047641200200148D0F8D4017047641200200448D0F8AA
:2066A000CC01C0EB001080004FF47A7148437047641200200148D0F8F0017047641200207D
:2066C0000348D0F8EC014FF47A71484370470000641200200748D0F8C80148B10548D0F8C6
:2066E000C801C0EB001080004FF47A71484370470148FCE764120020E09304000148D0F8DC
:20670000D80170476412002010B54FF42A714848FBF743FD464A4FF42A71002000F0EEF88A
:206720004348D0F8A402434988427FD040480078FF2805D14FF42A713D48FBF72EFD05E059
:206740004FF410713A486830FBF727FDA62138486830FBF722FD10213748FBF71EFDA621D1
:2067600035481030FBF719FD0F2234A130486830FBF7FAFC1C2235A12F486638FBF7F4FC4B
:206780002D48263839A10A6802600979017139A10A68C0F806208A884281897901731630C9
:2067A00036A10A680260496841601C2236A16030FBF7DAFC204890303BA10A680260097915
:2067C00001711B483AA10A68C0F8A421097980F8A81139A10A68C0F8B4214968C0F8B8115C
:2067E0000120134981F8C401052081F8C501C1F8C8010220C1F8CC010120C1F8D401002081
:20680000C1F8D8011E20C1F8EC010020C1F8F001C1F86C0230212B48FBF7BFFC0548044906
:20682000C1F8A40200E001E000F088F810BD00006412002067452301721300206F72616E40
:2068400067652E6D326D2E73706563006D7174742D636C69656E74312E6F6D6E69766F6C84
:20686000746169632E636F6D000000003138383834000000436C69656E7431003351747005
:20688000466E4453000000006D7174742D666163746F72792E6F6D6E69766F6C74616963EF
:2068A0002E636F6D00000000313838383300000041646D696E00000037787A5556404D54C1
:2068C00000000000D414002010B50A48007880B100200849087003F0F9FE044668222146E2
:2068E0000548FBF741FC044A4FF42A71002000F02BF810BD580200206412002070B5044671
:206900000D461646AAB2A1B23346A02001F05BFF70BD000000B50246024880F8C72100F0D1
:206920000DF800BD6412002000B502460248C0F8D82100F003F800BD64120020012001495E
:2069400008707047580200202DE9F04106460D46174600244FEA551800BF0CE007EB44138D
:2069600006EB441081B22022A02001F06BFF052001F0B0FD641C4445F0D305F01F0048B1A6
:2069800007EB441305F01F0206EB441081B2A02001F058FFBDE8F08110B5012006F006FD23
:2069A00028B1012001F0A6FD012006F0F9FC10BD10B54FF4C06007F0E3F84FF4A06007F03C
:2069C00037F802221146062006F0DCFF0021012006F06EFE01220021104606F083FC012042
:2069E00006F0DEFC10BD10B5044606F0DBFD40F2053006F03BFD4FF4417006F037FD40F238
:206A0000023006F033FD204606F056FD40F2053006F02CFD4FF4417006F028FD40F2023076
:206A200006F024FD06F032FD10BD00002DE9F04F85B00027B846B946BA46BB467648067862
:206A40004FF480517548FBF7A8FB14216846FBF7A4FB724C7248D0F86C0220B17048D0F85D
:206A60006C02082800D300266EA0007820702046FBF7B0FB04446A48D0F86C0220B16848B5
:206A8000D0F86C02082805D367A269A1204605F071FD08E006EB4601694800EB410264A1D8
:206AA000204605F067FD2046FBF794FB044465A00168216000792071641D002512E0C6EBA6
:206AC000C60000EB4620614901EB800050F825205FA1204605F04EFD2046FBF77BFB044440
:206AE000681C85B23C2DEADB5AA10A6844F8012C8A88A4F8032089796171A41D002513E059
:206B0000C6EBC60000EB4620504901EB8000F03050F825204EA1204605F02CFD2046FBF730
:206B200059FB0444681C85B23C2DE9DB4BA10A6844F8012C8A88A4F8032089796171A41DA4
:206B4000002514E0C6EBC60000EB46203F4901EB800000F5F07050F825203DA1204605F045
